:100000000C94EC040C9409050C9409050C944A26F4
:100010000C9409050C9409050C9409050C94090528
:100020000C9409050C9409050C948A230C94622401
:100030000C94C60F0C9409050C9409050C94090541
:100040000C9409050C9409050C9409050C940905F8
:100050000C9409050C9466230C9409050C9409056D
:100060000C9409050C9409050C9409050C940905D8
:100070000C9409050C9409050C9409050C940905C8
:100080000C9409050C9409050C9409050C940905B8
:100090000C9409050C9409050C9409050C940905A8
:1000A0000C9409050C9409050C94090500AF00AEE9
:1000B0000000000000003E5B4F5B3E003E6B4F6B5C
:1000C0003E001C3E7C3E1C00183C7E3C18001C5729
:1000D0007D571C001C5E7F5E1C0000183C18000051
:1000E000FFE7C3E7FF00001824180000FFE7DBE785
:1000F000FF0030483A060E00262979292600407F65
:1001000005050700407F05253F005A3CE73C5A00A3
:100110007F3E1C1C0800081C1C3E7F0014227F220E
:1001200014005F5F005F5F0006097F017F000066CB
:1001300089956A0060606060600094A2FFA29400EC
:1001400008047E04080010207E20100008082A1CE5
:100150000800081C2A0808001E10101010000C1EB1
:100160000C1E0C0030383E383000060E3E0E0600E5
:1001700000000000000000005F0000000007000712
:100180000000147F147F1400242A7F2A12002313F6
:10019000086462003649562050000008070300003A
:1001A000001C224100000041221C00002A1C7F1C70
:1001B0002A0008083E080800008070300000080887
:1001C0000808080000006060000020100804020019
:1001D0003E5149453E0000427F4000007249494976
:1001E00046002141494D33001814127F1000274565
:1001F000454539003C4A4949310041211109070070
:10020000364949493600464949291E000000140074
:1002100000000040340000000008142241001414C3
:1002200014141400004122140800020159090600A8
:100230003E415D594E007C1211127C007F494949B4
:1002400036003E41414122007F4141413E007F490D
:10025000494941007F09090901003E4141517300AC
:100260007F0808087F0000417F4100002040413F97
:1002700001007F08142241007F40404040007F027F
:100280001C027F007F0408107F003E4141413E0078
:100290007F09090906003E4151215E007F091929A5
:1002A000460026494949320003017F0103003F40CF
:1002B00040403F001F2040201F003F4038403F008B
:1002C0006314081463000304780403006159494D62
:1002D0004300007F4141410002040810200000411A
:1002E00041417F00040201020400404040404000C0
:1002F0000003070800002054547840007F2844443D
:100300003800384444442800384444287F00385496
:100310005454180000087E0902001824241C780098
:100320007F080404780000447D4000002040403DE8
:1003300000007F102844000000417F4000007C0442
:10034000780478007C080404780038444444380079
:100350007C1824241800182424187C007C08040429
:10036000080048545454240004043F4424003C40F2
:1003700040207C001C2040201C003C4030403C00C1
:100380004428102844004C9090907C004464544CC5
:1003900044000008364100000000770000000041E2
:1003A000360800000201020402003C2623263C001D
:1003B000000000000000000000000000000000003D
:1003C000C0E0F0F8F81800C0F0FCFEFFFFFFFFFFF0
:1003D000FFFF7E00000000000000000080C0E0E0A1
:1003E000E0E0E0E0E0E0C0800000000080C0E0E08D
:1003F000E0E0E0E0E0E0C080000000E0E0C0C0E05D
:10040000E0E0E00000E0E0C0C0E0E0E0E0E0C0806C
:100410000000000080C0E0E0E0E0E0E0E0E0C0805C
:100420000000000000000000000000000000E0F0FC
:10043000F0F0E0ECEEF7F37020007C7C7C7E007E38
:100440007E7E7F7F7F000080C0E07E5B4F5BFEC0D2
:100450000000C000DCD7DEDEDED7DC00C00000001C
:10046000000000000000000000000000000000008C
:10047000000000000000000000F8FCFEFFE000FFAC
:10048000FFFFFFFFFF80FFFFFFFFFFFFFFFFFF1FDB
:100490000701000000000000000000FFFFFF8100D6
:1004A000000000000081C3C3C30000FFFFFF810004
:1004B000000000000081FFFFFF0000FFFFFF0100C0
:1004C0000000000000FFFFFF010000000001FFFF2F
:1004D000FF0000FFFFFF9D1C1C1C1C1C1C9DDFDF80
:1004E000DF000000000000000000000000000F1FFF
:1004F0003F7F7F7F7F7F3F1E0C001F1F1F3F003FFE
:100500003F3F7F7F7F00307B7F7830202030787FB7
:100510003B0003000F7F0F0F0F7F0F000300000051
:1005200000000000000000000000000000000000CB
:10053000000000000000000000030F1F3F3F3F3F8E
:100540001F1F3F3F7F7F7F3F3F1F3F7F7F7F7F7C1E
:100550007878381C0F000000000000000103070736
:10056000070707070707030100000000010307074B
:100570000707070707070301000000070707000038
:100580000000000000070707000000000000070748
:100590000700000001030707070707070707030114
:1005A000000000000000000000000000000000004B
:1005B000000000000000000000000000000000003B
:1005C000000000000000000000000000000000002B
:1005D000000000000000000000000000000000001B
:1005E000000000000000000000000000000000000B
:1005F00005010902A10185020901A10005091901EE
:1006000029081500250195087501810205010930A9
:1006100009311581257F95027508810609381581F4
:10062000257F950175088106050C0A38021581257C
:100630007F950175088106C0C005010980A101856B
:100640000319012AB700150126B70095017510811D
:1006500000C0050C0901A101850419012AA0021599
:100660000126A002950175108100C005010906A1AF
:10067000018506050719E029E7150025019508758C
:100680000181020507190029EF1500250195F07574
:100690000181020508190129059505750191029549
:1006A0000175039101C005010906A101050719E0C3
:1006B00029E7150025019508750181029501750846
:1006C00081010507190029FF150026FF0095067511
:1006D00008810005081901290515002501950575F2
:1006E000019102950175039101C009023B000201CD
:1006F00000A0FA0904000001030101000921110111
:1007000000012244000705810308000109040100DB
:10071000010300000009211101000122B6000705B4
:10072000820320000112010002000000085346016C
:10073000000100010200010C0343006F0072006E13
:100740000065000000100366006F006F0073007406
:100750000061006E0000000403090400DA02812831
:10076000D9F1DB20A4A62EAF00A0C0D30000A1C801
:10077000D30000AED580A81F408D1420000A202091
:100780002020200A2020202020000A5F5F5F5F5F7A
:100790000A43415053200047616D2020004E61768E
:1007A00020200053796D2020004E756D20200044DC
:1007B00065662020004C415945520A002B00140068
:1007C0001A000800150017003922040016410742DC
:1007D00009430A00E0001D001B0006001900050087
:1007E000000000000000E20021522C002A0013004B
:1007F00012000C0018001C00280038000F410E42A7
:100800000D430B004F005000370036001000110060
:10081000000000000000E30022522C0029003A00F2
:100820003B003C003D00000039223E003F004000FC
:1008300041006300E00042004300440045003600F0
:10084000000000000000E20001002C002A00270246
:10085000260025002400550028003800230022002F
:10086000210054004F00500020001F001E005700C0
:10087000000000000000E30023522700290035009B
:1008800022022F002F0233143922340035022302B2
:100890002D021E02E000640064022E0234142102C4
:1008A000000000000000E20023522C002A00270272
:1008B00033002E0032005500280038002D0030147F
:1008C0002F1454004F005000351426022502570003
:1008D000000000000000E30001002C002900645229
:1008E00000000000000000003922D900DB00CD002C
:1008F000DC00BD00E000DA00CF00CE00D000BE007A
:10090000000000000000E20001002C00D500D4002F
:10091000D200D300D100A90028004B004D005200A6
:100920004A00AA0000004E004F0051005000A800ED
:10093000000000000000E30001002C002B00140068
:100940001A000800150017003922040016000700DD
:1009500009000A00E0001D001B0006001900050048
:10096000000000000000E2002C0029002A00130013
:1009700012000C0018001C00280038000F000E00A8
:100980000D000B004F005000370036001000110022
:10099000000000000000E30064522C002020202012
:1009A0006162636465666768696A6B6C6D6E6F70BF
:1009B0007172737475767778797A3132333435366B
:1009C00037383930524542545F2D3D5B5D5C233BE7
:1009D00027602C2E2F20202011241FBECFEFDAE01D
:1009E000DEBFCDBF11E0A0E0B1E0EAEFF1E502C06B
:1009F00005900D92A838B107D9F725E0A8E8B1E035
:100A000001C01D92AA33B207E1F70E94BA1D0C94EF
:100A1000AA280C9400009C01892F99270097E9F0DF
:100A20009C0188E0A90174E0569547957A95E1F715
:100A30004115510511F08C5F9A01A9015695479512
:100A4000569547954115510511F08E5F9A013695DF
:100A50002795232B09F08F5F089580E0E3CF9093D3
:100A6000F2048093F10408959093F4048093F304C6
:100A7000089521E030E002C0220F331F8A95E2F78B
:100A80008091F3049091F404822B932B0E943405FF
:100A9000089521E030E002C0220F331F8A95E2F76B
:100AA000209530958091F3049091F4048223932350
:100AB0000E9434050895983098F5863088F5E82F1F
:100AC000F0E086E0989FE00DF11D11248E2F8770D5
:100AD00041E001C0440F8A95EAF783E0F695E79577
:100AE0008A95E1F7EE0FFF1FEE0FFF1FE057FB4F58
:100AF00020E030E070E05191DF011197CB01022E30
:100B000002C0969587950A94E2F7817081958527B2
:100B1000842385278C932F5F3F4F2430310559F76D
:100B20000895983078F5863068F5E82FF0E086E093
:100B3000989FE00DF11D11249E2F977083E0F6958C
:100B4000E7958A95E1F7EE0FFF1FEE0FFF1FE057C5
:100B5000FB4F40E050E080E0219130E0092E02C0E0
:100B6000369527950A94E2F721703327042E01C0A9
:100B7000220F0A94EAF7822B4F5F5F4F44305105F2
:100B800059F7089580E008958091FA049091F9044E
:100B9000981301C008958F5F8770FACF9091F50484
:100BA000809589238093F504282F277021110DC08B
:100BB000891759F09091F70492FF07C086958695A2
:100BC00086950E9449051092F50408958091EE04DF
:100BD0009091F804892B5091EF045523C1F0909126
:100BE0003B019923A9F09091F60497FF11C09DE174
:100BF00024E931E040E0F90160812F5F3F4F61114E
:100C00004F5F9150C0F741111092EF04852B08956A
:100C100095E02CE831E0EECF982F90958091EE048E
:100C200089238093EE0408957830B8F46630A8F4F0
:100C30008530B0F4E62FF0E096E0799FE00DF11DED
:100C4000112490E3899FE00DF11D1124EE0FFF1F89
:100C5000E454F84F85919491089580E090E00895D0
:100C600081E0FCCF803E9105D1F1C8F4813391053C
:100C700009F47FC048F48932910509F46FC08A32C3
:100C8000910509F47DC0089589339105E1F082381A
:100C90009105C9F08533910509F45BC00895843E40
:100CA0009105D1F148F4823E910531F1833E9105E1
:100CB00041F181EE90E00895863E9105C1F1873EB5
:100CC0009105E1F108952091F6042370211165C08A
:100CD0002091F70423FF14C089E290E00895209149
:100CE000F60420FD43C03091F70430FF09C024FF13
:100CF0004EC080E090E008952091F60422FDF7CFE9
:100D000008952091F60422FD45C03091F70430FD8E
:100D100044C024FFF5CFEDCF2091F70421FFF0CFA1
:100D20008091F60484FDE5CF87EE90E00895209150
:100D3000F60423FFE5CF24FDDCCFF6CF2091F604A7
:100D400023FD2EC03091F70431FFE3CF84EE90E015
:100D500008952091F60425FFD3CFBECF2091F6044D
:100D600025FD21C02091F70423FFCACF89E390E03D
:100D700008952091F60426FFC3CF8AE290E00895FB
:100D80002091F60426FFBCCF81E390E0089583EE26
:100D900090E0089582EE90E0089580EE90E008954E
:100DA00086EE90E0089585E390E0AACF9091F60456
:100DB00092FF10C041E0282F2471243009F040E058
:100DC00031E0282F2871283009F030E0431711F066
:100DD0002CE0822793FF10C041E0282F247124319A
:100DE00009F040E031E0282F2871283109F030E087
:100DF000431711F02CE082273091F70430FF10C028
:100E000051E0282F2171213009F050E041E0282FD6
:100E10002871283009F040E0541711F029E08227AA
:100E200031FF10C041E0282F2171213109F040E04D
:100E300031E0282F2871283109F030E0431711F0F4
:100E400029E0822794FD877E08951F93CF93DF9337
:100E50000E943206EC01811522E5920708F053C08A
:100E6000811540E5940708F0DDC0803E9105F8F457
:100E70008D3C910508F0AEC0883A910580F4853A22
:100E8000910508F099C08130910521F00497813ACD
:100E9000910550F4CE01DF91CF911F910895885AAA
:100EA00091094B9708F48BC0C0E0D0E0F3CF8115D7
:100EB00050E49507F8F4C11580E2D80708F0CBC0DC
:100EC000C83ED10538F3CE019A9581159F4160F750
:100ED0008D2F0E94D606182FCE0199270E94320628
:100EE000212F30E0322F2227E901CC27DF71C82BD8
:100EF000D92BD0CF99270E943206CC27DF70C82B80
:100F0000D92BD06AC7CF803842E59407C8F5803620
:100F100052E5950708F067C0C03482E5D807B0F005
:100F20008C2F86958695877020E2829FC0011124C0
:100F3000C37021E030E0A90102C0440F551FCA95DB
:100F4000E2F7EA01C82BD92BDC68A4CFC03252E506
:100F5000D50708F041C08C2F8695869520E2829FA8
:100F6000C0011124C37021E030E0A90102C0440F88
:100F7000551FCA95E2F7EA01C82BD92BDD688ACF45
:100F8000803C52E5950760F48F71C03AD24508F075
:100F90003FC090E0982F8827EC01C46FD06A7ACFC9
:100FA000805C9245809708F07FCFDC2FCC27CC2740
:100FB000DF71C06FD06A6ECFA497D0646BCFC85A70
:100FC000D0E0CC0FDD1FCF5ADE4F0990D881C02D65
:100FD000D46460CFD0655ECFCF71D0E0DC2FCC275A
:100FE000C16FD06A57CF86958695877020E2829F21
:100FF000C0011124C37021E030E0A90102C0440FF8
:10100000551FCA95E2F7EA01C82BD92BDA6842CFFF
:101010000E94D606C82FD0E0DC2FCC27CC27DF716A
:10102000D06238CF8F710E94D60665E0D695C795FD
:101030006A95E1F7CF70D0E0DC2FCC27282F30E085
:1010400084FF05C054E0220F331F5A95E1F7C22BED
:10105000D32BD0691FCF8D2F8F710E94D606182FEA
:10106000CE0199270E943206212F30E0322F22270D
:1010700022273F71282B392BE901D2CFA0E0B0E025
:10108000E4E4F8E00C9482278C01E090F304F09003
:10109000F4048091F1049091F204E82AF92ACFE057
:1010A000D0E0CC24C394D12CC6010C2E02C0880FF2
:1010B000991F0A94E2F78E219F21892B49F42197E9
:1010C00098F7B12C8B2DCDB7DEB7E9E00C949E27B5
:1010D000BC2EB8018C2F0E9414060E942507019790
:1010E00071F3F0CF0F931F93CF93FC0185810081A3
:1010F0001181882391F0662381F0C8010E943E0887
:10110000C82F682FC8010E945B05B8018C2F0E9470
:101110001406CF911F910F910895C8010E94910567
:10112000C82FF3CFCF93DF93D82FC92F0E943E084B
:101130006D2F7C2F0E9414060E942507DF91CF910E
:101140000895FC0184818823A1F0808191810E940F
:101150009208282F92959F70963091F060F4925FDC
:101160009F70923030F481E0203F79F030F4283ED7
:1011700030F080E004C09A5FF3CF243FD1F70895A8
:1011800081E0283E18F0213FF9CF0895089580E0CE
:101190000895F894E82FE295EF70F0E041A18F7088
:1011A00021E030E0B90102C0660F771F8A95E2F7AF
:1011B000CB01962F9095942391A392A1892B82A382
:1011C00078940895282F35EB2303C001112497FF4D
:1011D00004C080589109892F089580589F4FFBCFF4
:1011E0008091AA0480FD14C081FD14C082FD16C048
:1011F0008091A904882381F08E3180F420E5829FBC
:10120000C00111246EE170E00E94BC27862F089572
:1012100084E1089588E2089588E0089580E50895BE
:101220008091AA0480FD17C081FD17C082FD19C0FE
:101230008091A804882399F0883298F428E0829F4E
:10124000C001112468E270E00E94BC27611571059D
:1012500051F0862F089562E0FCCF64E0FACF61E0A0
:10126000F8CF68E0F6CF81E0089580915E0488238E
:1012700059F0E0918604F0918704309729F00190AD
:10128000F081E02D0995089580E00895A3E0B0E095
:10129000ECE4F9E00C9489279C018091E0019091A5
:1012A000E10182179307A1F03093E1012093E0015F
:1012B000E0918604F0918704309751F083E08983B0
:1012C0003B832A830084F185E02DCE0101960995A8
:1012D0002396E2E00C94A527A3E0B0E0E2E7F9E072
:1012E0000C9489279C018091DE019091DF01821787
:1012F0009307A1F03093DF012093DE01E091860493
:10130000F0918704309751F084E089833B832A83EE
:101310000084F185E02DCE01019609952396E2E047
:101320000C94A52790913B019923C1F09091F6046C
:1013300097FF14C0E82FE695E695E695803FF8F410
:10134000F0E0EE56FE4F877021E030E001C0220F42
:101350008A95EAF78281822B82830895ACE8B1E016
:10136000EFEF90E02D91821751F0EF3F19F421112A
:1013700001C0E92F9F5F9630A9F7EF3F09F4089568
:101380000E2E000CFF0BE657FE4FE6CF90913B016F
:101390009923E1F09091F60497FF18C0E82FE695A5
:1013A000E695E695803FF0F4F0E0EE56FE4F87704C
:1013B00021E030E0A90102C0440F551F8A95E2F7F1
:1013C000CA0180959281892382830895ECE8F1E037
:1013D0009191891303C0DF0111971C9251E0E2390A
:1013E000F507B1F70895A4E0B0E0E9EFF9E00C9457
:1013F00089278FB7F8942091DA013091DB01409171
:10140000DC015091DD0129833A834B835C838FBFDC
:1014100069817A818B819C812496E2E00C94A527D6
:10142000A4E0B0E0E6E1FAE00C94892780915E0444
:10143000882371F00E94F30969837A838B839C83EC
:1014400069817A818B819C812496E2E00C94A527A6
:101450000E94F30969837A838B839C838091600463
:1014600090916104A0916204B091630429813A8152
:101470004B815C81280F391F4A1F5B1F29833A83E8
:101480004B835C83DDCFA4E0B0E0E9E4FAE00C94A8
:101490008727462F572FBC012FB7F8948091DA0188
:1014A0009091DB01A091DC01B091DD012FBF8C0197
:1014B0009D01041B150B260B370BC901B80124969F
:1014C000E4E00C94A32787E797E7909301088093C3
:1014D000000888E19AE00FB6F894A8958093600020
:1014E0000FBE90936000FFCF8091D9010895FC0159
:1014F0009B018091CF019091D0018617970740F012
:10150000672B29F48091E8008E778093E800C90169
:1015100040E0009741F4411106C08091E80082FF4D
:101520002FC080E008952091EE012223A9F12530FB
:10153000A9F12091E80023FD2DC02091E80022FDB3
:10154000ECCF2091E80020FFE4CF3091F300209110
:10155000F200009719F02830310558F041E02830AA
:10156000310509F040E02091E8002E772093E80053
:10157000D0CF41914093F10001972F5F3F4FE9CFCA
:101580008091EE01882341F0853041F08091E800A0
:1015900083FFC3CF81E0089582E0089583E008953A
:1015A0008091C90187FF13C08091E80082FF06C0C7
:1015B0008091E8008B778093E80004C08091EE0171
:1015C0008111F2CF08958091EE018823D9F38091A3
:1015D000E80080FFF8CF8091E8008E77ECCF209173
:1015E000E4003091E50095E6A9018091EC0081705E
:1015F000882331F08091E80080FF06C080E00895E4
:101600002091E80022FD1BC08091EE01882391F01B
:10161000853091F08091EB0085FD10C02091E400B1
:101620003091E5004217530701F391509111DCCF3F
:1016300084E0089582E0089583E0089581E00895AC
:10164000E8EDF0E080818E7F80831092E2001092BE
:10165000DA001092E100A0EEB0E08C9181608C93F2
:1016600080818F77808319BCA7EDB0E08C918E7F4D
:101670008C9380818F7E80831092C8010895FC0135
:10168000AC014C5F5F4F8FEF91E32191822728E0FF
:1016900030E087FF0BC0880F8927215031092115C1
:1016A0003105B9F7E417F50781F70895880FF5CFED
:1016B000982FE42FE2709093E900891308C0762FE9
:1016C000242F50E0E11111C091E0980FF4CF7091F8
:1016D000EC002091ED005091F00021FD06C09F5FCD
:1016E000973049F78093E90008953091EB003E7FF1
:1016F0003093EB003091ED003D7F3093ED00309161
:10170000EB0031603093EB007093EC002093ED0020
:101710005093F0002091EE0027FDE1CF0895A0E066
:10172000B0E0E5E9FBE00C948327C8EDD0E08881C8
:101730008F7E8883E7EDF0E080818160808384E0A4
:1017400082BF81E08093C80188818E7F888302EE0A
:1017500010E0F80110821092DA0081EEC82ED12C30
:10176000F601108288818F778883888180688883DA
:1017700088818F7D888319BC1092EE011092C70179
:101780001092ED011092C60190EEE92EF12CF701B6
:1017900080818B7F808388818160888342E060E0E4
:1017A00080E00E94580BF60180818E7F8083F801D3
:1017B000808181608083808188608083F70180815F
:1017C0008E7F8083888180618883CDB7DEB7E8E033
:1017D0000C949F27E091FA049091F90427E0E91313
:1017E00002C080E00895AE2FB0E02E9FF0011124DA
:1017F000E550FB4F3181361306C03081381303C0EA
:101800003581341304C0FD013196E770E8CF81E0E3
:1018100008950F931F93CF93DF93EB018A0190916B
:10182000EE01943079F58093E9008FEF9091E80014
:1018300095FD07C095ED9A95F1F700008150811153
:10184000F5CF8091E80085FF1DC00E94EF0A81114D
:1018500014C08091E80085FD06C08091E8008E7775
:101860008093E800F2CF88818093F1000150110944
:101870000115110511F02196ECCF8091E8008E77CB
:101880008093E800DF91CF911F910F910895CF933E
:10189000DF93D82FC92F48E050E0682F792F81E0DF
:1018A0000E94090C88E0ED2FFC2FA1EDB1E0019022
:1018B0000D928A95E1F7DF91CF910895BC0140E246
:1018C00050E082E00E94090C0895BC0146E050E01F
:1018D00082E00E94090C0895BC0143E050E082E0E0
:1018E0000E94090C0895A0E0B0E0E9E7FCE00C9448
:1018F0008127F82EE92EB62EA72E8A018091C401E9
:10190000CC24C394D12C8A3018F48AE0C82ED12C70
:10191000C1E0D0E06B2D7A2D8F2D9E2DF801099519
:10192000811116C02196CC16DD0694F0CC9FC00123
:10193000CD9F900D900D112420E030E045E34A95B5
:10194000F1F700002F5F3F4F28173907B9F7E2CFB3
:10195000CDB7DEB7EAE00C949D279091F70492FB97
:10196000222720F9281779F080FB92F99093F70449
:101970006091F6047091F70484E090E00E9494284E
:1019800082E00E94CE05089580913B01882359F1A1
:101990008091F60487FF27C00E94E605809393019B
:1019A00040E250E066E674E082E991E00E9442285D
:1019B000892BC1F080E2E2E9F1E0A6E6B4E0019013
:1019C0000D928A95E1F7E0918604F09187043097B3
:1019D00049F086E0809392010480F581E02D82E950
:1019E00091E0099508950E94E60580938A0148E0F8
:1019F00050E068E874E08AE891E00E944228892B70
:101A000089F388E0EAE8F1E0A8E8B4E001900D92FB
:101A10008A95E1F7E0918604F0918704309711F3FD
:101A20000280F381E02D8AE891E0DBCF882339F052
:101A30009091EE04892B8093EE040E94C40C0895CB
:101A4000882321F00E940C060E94C40C0895A8E08F
:101A5000B0E0EDE2FDE00C9488278091470490917E
:101A60004804A0914904B0914A04BC01CD010E94F0
:101A7000430A11E0643671058105910578F10E94F1
:101A8000100ADC01CB010296A11DB11D89839A8346
:101A9000AB83BC838091240190912501855B9B4F92
:101AA00020912301422F50E0253010F044E050E017
:101AB000BE016F5F7F4F0E944F2882E090E00E943E
:101AC000F026182F882351F00E94F30960934704F1
:101AD000709348048093490490934A04812F289678
:101AE000E3E00C94A427EF92FF921F93CF93DF9330
:101AF000CDB7DEB729970FB6F894DEBF0FBECDBFC6
:101B00007B0180E090E00E94F026182F81111BC01D
:101B100010E08091560490915704A0915804B09120
:101B20005904F70180839183A283B383812F29967F
:101B30000FB6F894DEBF0FBECDBFDF91CF911F91DE
:101B4000FF90EF90089580911601482F50E0882370
:101B500011F041E050E06091170170911801655B50
:101B60007B4FCE0105960E944F2880915A04909198
:101B70005B04A0915C04B0915D04BC01CD010E94A6
:101B8000430A6E837F838887998764367105810550
:101B9000910538F48CE494E00E943F0B9D818917F5
:101BA000B9F181E090E00E94F026882309F4B0CFDB
:101BB00080911E01482F50E0853010F044E050E045
:101BC00060911F0170912001655B7B4FCE010196F2
:101BD0000E944F288CE494E00E943F0B9D81891362
:101BE00097CF0E94F30960935A0470935B0480932B
:101BF0005C0490935D0489819A81AB81BC81809360
:101C0000560490935704A0935804B093590481CF7D
:101C100080914C0490914D04A0914E04B0914F04DA
:101C200089839A83AB83BC83E6CFA6E0B0E0EBE187
:101C3000FEE00C9484278D838B01F42ED22E3E83FC
:101C4000DB018D919D910D90BC91A02DBC01CD012A
:101C50000E94430A69837A838B839C83643671056F
:101C60008105910510F4FF2039F1BD81EB2E0B2E7B
:101C7000000CFF0888E0B802F0011124ED5EFE4F71
:101C800081819281855B9B4F2081422F50E02223EE
:101C900011F041E050E06D2D7E810E944F28C70178
:101CA0000E94F026882349F00E94F309D8016D9321
:101CB0007D938D939C93139781E02696E7E00C9497
:101CC000A027A1E0B0E0E7E6FEE00C948927809130
:101CD0004204898341E090915404981301C040E08C
:101CE0009E012F5F3F4F63E474E083E00E94150E76
:101CF0002196E2E00C94A527A1E0B0E0E2E8FEE046
:101D00000C94892780913D0489832091550430E00B
:101D100090E041E02817390709F440E09E012F5F69
:101D20003F4F6EE374E084E00E94150E2196E2E0DE
:101D30000C94A527A0E0B0E0E0EAFEE00C94832735
:101D40007C016B0164E670E088E70E94B124EC013D
:101D500097FD12C000E010E0F701E00FF11F849141
:101D600064E670E00E942025EC010F5F1F4FC01653
:101D7000D10611F097FFF0CF0E94A22581E0CD2B74
:101D800009F080E0CDB7DEB7E8E00C949F278091A2
:101D90003704882369F080913D04882349F062E08C
:101DA00070E08EEA90E00E949A0E811110923D043C
:101DB0000895A4E0B0E0EFEDFEE00C948927809157
:101DC00037048823F9F00E94F309DC01CB01805F1E
:101DD000984DAF4FBF4F8093310490933204A0933E
:101DE0003304B093340480913D0481110BC062E050
:101DF00070E08CEA90E00E949A0E882319F081E04E
:101E000080933D042496E2E00C94A527CF93DF93C2
:101E1000682F81E06A3019F06D3031F480E00E9463
:101E2000860FDF91CF91089580910A0290910B0265
:101E300026E0FC01AEEBB1E001900D922A95E1F7AE
:101E4000603E08F458C026E0FC0111922A95E9F79B
:101E5000C0910A02D0910B0246E050E0BE018EEB29
:101E600091E00E9442289E012D523240892B41F17F
:101E7000C90145E0969587954A95E1F741E050E024
:101E8000BA0102C0660F771F8A95E2F7CB01609115
:101E90002F0470913004862B972BB9016B5F7F4F15
:101EA000E5E076956795EA95E1F702C0440F551F86
:101EB0006A95E2F7842B952B9093300480932F043E
:101EC0002A5F3F4F40910C02642F70E0C9010E94CD
:101ED0006527481B463010F4240F311D211572E090
:101EE000370710F020E030E0235D3D4F30930B02C8
:101EF00020930A0296CFF6E06F9FB001112460553F
:101F00007F4F46E050E00E943928A2CFCF93382F70
:101F1000E0910A02F0910B02ED52F24020910C0286
:101F2000622F70E0CF010E946527281B822F332388
:101F300061F066E00E94B027C82FC15010F4CF9125
:101F4000089580E20E94060FF8CF9F01280F311DEF
:101F50002115324018F080E0E0E0F0E08E0F9F2F76
:101F6000911D835D9D4F90930B0280930A02E7CFF2
:101F7000CF93DF93EC01FE018491811103C0DF91C7
:101F8000CF9108950E94060F2196F5CF1F921FB69C
:101F90001F9211248F939F93AF93BF938091EC0175
:101FA000811113C08091DA019091DB01A091DC01D5
:101FB000B091DD014196A11DB11D8093DA0190938E
:101FC000DB01A093DC01B093DD01BF91AF919F9144
:101FD0008F911F901FBE1F9018952FB7F894809176
:101FE000DA019091DB01A091DC01B091DD012FBFFE
:101FF00008950E94ED0F2091AD043091AE04232B83
:10200000222321F080933A0490933B042091AF0463
:102010003091B004232B222321F080933804909335
:102020003904E0918604F0918704309749F082E00A
:102030008093AB040680F781E02D8BEA94E009954C
:1020400008952091AD049091B0043091AF046623BF
:1020500009F45AC04091AE04242B292B232B2223B0
:1020600031F098E09093A90491E09093A8048D3CFE
:1020700041F40E94F00881958093AE040E94F90F0C
:102080000895E2E3E80FE231C8F7F0E0E455F74DD8
:102090000C9411280E94F008EFCF0E94F00881955F
:1020A0008093AD04EBCF0E94F008FACF0E94100994
:1020B0008093AF04E3CF0E9410098195F9CF0E946D
:1020C000100981958093B004D9CF0E941009FACFEE
:1020D000815D990B21E030E001C0220F8A95EAF77B
:1020E0008091AC04822B8093AC04C8CF8091AA0469
:1020F00081608093AA04C2CF8091AA048260F9CF44
:102100008091AA048460F5CF8D3C59F48091AE048F
:1021100087FF0DC01092AE04222359F41092A90437
:1021200008C08E3C81F48091AE0418169CF32223E3
:1021300081F08091AF049091B004892B81119ECFE2
:102140001092A8049BCF8F3C41F427FFF0CF109250
:10215000AD048091AE048823E0CF803D19F41216BF
:10216000B4F3E5CF893D29F413160CF71092AF04B0
:10217000DECF8A3D19F437FFDACFF8CF8B3D29F453
:1021800097FFD5CF1092B004D2CF8C3D19F4191619
:10219000CCF3CDCF9FE2980F983090F4815D990BEE
:1021A00041E050E0BA0102C0660F771F8A95E2F75E
:1021B000CB0180959091AC0489238093AC04B7CF78
:1021C0008D3D31F48091AA048E7F8093AA04AFCF15
:1021D0008E3D21F48091AA048D7FF7CF8F3D09F0C9
:1021E000A6CF8091AA048B7FF0CFCF93C82F8823EE
:1021F000B1F18CEF8C0F813AA0F580913B018823DF
:1022000001F18091F60487FF1CC0EC2FE695E6955E
:10221000E695F0E0EE56FE4F828190E04C2F47703D
:1022200021E030E002C0220F331F4A95E2F78223FB
:102230009323892B79F08C2F0E94C6090E94C40C2D
:1022400009C0ECE8F1E08191C817A9F321E0E23977
:10225000F207C9F78C2F0E9492090E94C40CCF91FB
:10226000089580E28C0F883068F4C77081E090E0B8
:1022700001C0880FCA95EAF7C091EE04C82BC0933D
:10228000EE04EBCF8BE58C0F833038F42C2F2452E7
:10229000330BC9010E944609E2CFE8E5EC0FEB31B0
:1022A00050F4F0E0EE0FFF1FEF5AFE4F8081918156
:1022B0000E946C09D4CF83E38C0F833180F661E0F8
:1022C0008C2F0E942110CBCF882381F19CEF980F97
:1022D000913A28F40E94C6090E94C40C089590E225
:1022E000980F983050F4877091E001C0990F8A954B
:1022F000EAF7892F0E940C06EFCF9BE5980F9330E9
:1023000028F480E090E00E944609089598E5980F2F
:102310009B3128F480E090E00E946C09089593E3DB
:10232000980F933118F460E00E94211008951092E4
:10233000EE0480913B01882339F18091F60487FFF8
:1023400023C0E4E9F1E08EE1DF011D928A95E9F70F
:1023500080E090E00E94460980E090E00E946C09D5
:102360001092F8040E94C40C86E0EBEAF4E0DF016E
:102370001D928A95E9F71092A9041092A804109270
:10238000AA040E94F90F0895ECE8F1E086E0DCCFA2
:102390000E9497112FEF84E39CE0215080409040F1
:1023A000E1F700C0000088E19AE00FB6F894A89524
:1023B000809360000FBE90936000FFCFAAE2B0E070
:1023C000E4EEF1E10C94882789EC91E0FC010196A0
:1023D0002091F100208321E0813D9207B9F780919F
:1023E000CA01893009F456C0C8F4823009F4B2C079
:1023F000833009F481C0813071F18091E80083FF5E
:10240000E6C08091C9019091CA019A3008F0DFC0FE
:10241000E92FF0E0E254F74D0C9411288A3009F4CA
:1024200088C08B3051F78091C901813231F780919A
:10243000CD019091CE01892B01F78091E800877F33
:102440008093E8000E94D00A8091CB0180933B01E9
:102450000E949711D2CF8091C901813A71F6809183
:10246000E800877F8093E8008091CD019091CE01B4
:10247000892B61F060E080E090E070E00E94770AD4
:102480008091E8008B778093E800B7CF68E081ED1A
:1024900091E0F3CF8091C901813209F0AECF8091F4
:1024A000CD019091CE01029708F0A7CF8091E8006E
:1024B000877F8093E8008091E80082FF18C09091A8
:1024C000F3008091F200029731F48091F1008130A5
:1024D00011F0863021F48091F1008093D901809130
:1024E000E8008B778093E8000E94D00A86CF809125
:1024F000EE018111E0CF81CF8091C901813A09F0CD
:102500007CCF8091CD019091CE01892B09F075CFC0
:102510008091E800877F8093E8008091E80080FF49
:10252000FCCF80913B018093F1008091E8008E7791
:10253000D9CF8091C901813209F05FCF8091E80045
:10254000877F8093E8000E94D00A8091CC0180931D
:10255000C50153CF8091C901813A09F04ECF8091D6
:10256000E800877F8093E8008091E80080FFFCCF3F
:102570008091C501D8CF803889F0823841F58091AB
:10258000CD018F70873018F58093E9008091EB00C2
:1025900085FB882780F91092E90006C08091C6016A
:1025A0009091ED01911182609091E800977F909356
:1025B000E8008093F1001092F1008091E8008E779E
:1025C00023C0811116C08091CB01813011F180911F
:1025D000E80083FF0AC08091E800877F8093E800CD
:1025E0008091EB0080628093EB00AA96E3E00C946C
:1025F000A427823061F78091CB01882389F0109263
:10260000E9008091E800877F8093E8000E94D00A6B
:10261000DECF81E0933009F080E08093ED01EFCFD1
:102620008091CD018F702FEF280F263080F6809398
:10263000E9002091EB0020FFE2CF933031F480914C
:10264000EB0080628093EB00DACF9091EB00906119
:102650009093EB0021E030E0A90102C0440F551F28
:102660008A95E2F74093EA001092EA008091EB002D
:102670008860E8CF8111ABCF1091CB011F7780919B
:10268000E3008078812B8093E3008091E800877FCE
:102690008093E8000E94D00A8091E80080FFFCCF80
:1026A0008091E30080688093E30083E0111101C012
:1026B00082E08093EE018BCF8058823008F087CF84
:1026C0004091CB015091CC014C3D83E0580799F5E6
:1026D00083E08A838AE289834FB7F894DE011396F8
:1026E00020E03EE051E2E32FF0E050935700849168
:1026F00020FF03C082958F703F5F8F708A30C8F0D3
:10270000895C90E08D939D932F5F243161F74FBFDB
:102710008091E800877F8093E8006AE270E0CE0154
:1027200001960E94770A8091E8008B778093E800F9
:102730004ECF805DE6CF2091CD013091CE01852F27
:1027400099278330910509F160F48130910509F4EE
:1027500072C0029709F03BCF8BE390E0EAEEF6E01F
:1027600029C08132910509F45AC0829709F02FCF10
:102770002115310509F469C02130310509F027CF51
:1027800086EB90E0E0EFF5E015C0CA0199274130F3
:10279000B1F18230910509F43AC0892B09F017CFC5
:1027A000E7E5F7E0E4918E2F90E0E7E5F7E00097AA
:1027B00009F40DCF2091E800277F2093E8002091B5
:1027C000CF013091D0018217930708F49C0140E0BB
:1027D0002115310509F03EC041113CC08091E8004F
:1027E00082FDA1CF8091EE01882309F49CCF853032
:1027F00009F499CF8091E80083FFF0CF94CFE5E40E
:10280000F7E0E4918E2F90E0E5E4F7E0D0CFE7E346
:10281000F7E0E4918E2F90E0E7E3F7E0C8CF2115D1
:10282000310571F02130310509F0D1CE89E090E019
:10283000E5E1F7E0BFCF82E190E0E5E2F7E0BACF73
:1028400089E090E0ECEFF6E0B5CF84E490E0E6EAD2
:10285000F6E0B0CF8091EE01882309F464CF853093
:1028600009F461CF8091E80083FD5DCF8091E8009D
:1028700082FDB4CF8091E80080FFAACF9091F30051
:102880008091F2002115310519F08830910550F042
:1028900041E0089709F040E08091E8008E7780934E
:1028A000E80096CF44914093F100319621503109D0
:1028B0000196E8CF803809F08ACE8091E800877FC2
:1028C0008093E8008091C7018093F10076CE81115A
:1028D0007ECE1091CB01123008F079CE8091E800C5
:1028E000877F8093E8001093C7010E94D00A1123CC
:1028F00081F084E08093EE0142E061EC81E00E948F
:10290000580B42E261EC82E00E94580B8091EE018C
:102910005ECE8091E30087FDECCF81E0EBCF9C01A0
:102920004FB7F8948091DA019091DB01A091DC011E
:10293000B091DD014FBF821B930B08950F931F933E
:10294000CF93DF93C62FD42F122F8823A9F0609343
:10295000EC040E94ED0F9093BD018093BC01C77001
:1029600081E001C0880FCA95EAF70E94160DDF9139
:10297000CF911F910F9108958091EC04681338C096
:102980008091BC019091BD010E948F14883C9105FB
:1029900078F5CD130FC0812F0E94F510812F0E9472
:1029A0006411D77081E001C0880FDA95EAF70E94C0
:1029B000200DDDCFC77001E0802F01C0880FCA95C0
:1029C000EAF70E94200D80E28D0F883050F48D2FA1
:1029D000877001C0000F8A95EAF7802F0E94160DBC
:1029E000DACF812F0E94F510812F0E946411BFCF92
:1029F000C77081E001C0880FCA95EAF7D8CFA0E080
:102A0000B0E0E5E0F5E10C9483277C01FC018481D2
:102A1000882309F4F0C461E0C7010E947208EC0148
:102A2000F70185819091EE04811112C09093EB041F
:102A3000CD32D10509F407C1CF32D10509F0BDC4AB
:102A40008091E804882309F46BC41092E804C3C49D
:102A5000AE015A959E0133274115FFE45F0728F028
:102A6000CF3FD10509F0E8F49E01B9016450710926
:102A70006432710528F02B5231092E30310588F46B
:102A8000E091E304F0E0EE0FFF1FEF54FB4F2081D5
:102A900031812F3F6FE7360721F02F5F3F4F3183A2
:102AA0002083F70121812093E70420812093E6040D
:102AB00020E220933C01D093E504C093E4049E01FE
:102AC000305221153042B8F5F7012681203108F443
:102AD00060C0FE01FF27CD33B8F5E456F64FE49110
:102AE000E0933C019093EB04CF32D10509F007C489
:102AF0009272992309F4CFC082E20E940C0682EE02
:102B00000E94F5108AE50E94F5108AE50E94641182
:102B100089E50E94F51089E50E9464118AE50E940A
:102B2000F5108AE50E94641182EE0E94641181E032
:102B30008093E80483C09E0130542115304108F58C
:102B4000F7012681203128F69093EB041092EC04D3
:102B50009E0130572332310528F1C631ECE7DE07FC
:102B600009F0AEC09A7A81E0911101C080E08093B3
:102B7000ED0489E2911185E30E9492090E94C40C40
:102B80002AC441155F4108F5FE01FF27CD3308F443
:102B9000A4CF9093EB041092EC04CE01905783974E
:102BA00008F089C084E090E00E9460289093F704C8
:102BB0008093F604FE01E150F047E232F10508F09F
:102BC0009FC0E853F74D0C9411289E01205A3245BE
:102BD00020323105F0F2CD33D10568F09093EB044B
:102BE000FE01E851FC47E730F10508F057C0E65117
:102BF000F74D0C941128FE01E456F64FE491E09352
:102C00003C019093EB04CD32D10509F06DCF927267
:102C1000992309F440C08FE10E94F51081E0809370
:102C2000E9040CC092729923B1F182E20E940C0671
:102C30008CE40E94F51081E08093EA048091EB041B
:102C40008093EE04C8C38091E904882309F468C323
:102C50008FE10E9464111092E904BDC326E241EEA7
:102C600061EE0E949E14B7C327E245EE65EEF9CFF0
:102C700026E241EE60EEF5CF27E245EE64EEF1CFBD
:102C800026E241EE62EEEDCF27E245EE66EEE9CFB9
:102C900028E241E0EBCF1092EC0442C31092EC0426
:102CA0009E0130572332310508F47CCFC631FCE752
:102CB000DF0709F457CFCA352CE7D20709F401C161
:102CC000CB353CE7D30708F0E2C0C1306CE7D6074C
:102CD00009F4F5C0C3308CE7D80709F4EAC0C11580
:102CE000DC4709F01DC30E9497112FEF34E36CE01D
:102CF000215030406040E1F700C000000E94630AAC
:102D00008091F60481608093F6046091F6047091DE
:102D1000F70484E090E00E9494280E9497115BC31E
:102D20008091F70488608093F704EFCF8091F604D8
:102D30008260E9CF8091F6048460E5CF8091F6044B
:102D40008860E1CF8091F7048160EDCF8091F70436
:102D50008260E9CF8091F6048061D5CF8091F6043E
:102D60008062D1CF8091F6048064CDCF0E9497110C
:102D70008091F6048068C7CF8091F6048C60C3CF41
:102D80008091F7048360CFCF8091F6048E7FBBCF14
:102D90008091F704877FC7CF8091F6048D7FB3CFF2
:102DA0008091F6048B7FAFCF8091F604877FABCF05
:102DB0008091F7048E7FB7CF8091F7048D7FB3CFDA
:102DC0008091F6048F7E9FCF8091F6048F7D9BCFFC
:102DD0008091F6048F7B97CF0E9497118091F60423
:102DE0008F7791CF8091F604837F8DCF8091F70408
:102DF0008C7F99CF8091F60482FB992790F921E08E
:102E0000922790FB82F990FB83F97DCF8091F704A4
:102E1000982F909591708E7F892B90FB81F983CFAD
:102E20009091F604892F8F7B96FF80646CCF0E946F
:102E300097119091F604892F97FB87F9805863CFFB
:102E400061E08EE090E00E9476285FCF60E0F9CFED
:102E50009091F604892F8F7E94FF806154CF9091DA
:102E6000F604892F8E7F90FF81604DCF9091F704FB
:102E7000892F877F93FF886056CF8091ED04811161
:102E800004C089E20E94C60979CE85E3FBCFCB3529
:102E9000ECE7DE07C1F0CC35DC4709F041C2809198
:102EA000F70482FB882780F991E089270E94AD0C06
:102EB00037C26FEF7FEF80E090E00E9494280E947D
:102EC000C81181E0F3CF80E0F1CFC8010E949105E5
:102ED000C82F35C21C2F1F70C03110F01295107F03
:102EE000DD20B9F0112369F080E28D0F883010F0F9
:102EF000D11109C08091EE04812B8093EE040E94D1
:102F0000C40C8D2F40C08091F804812B8093F8046D
:102F1000F6CF8D2F0E9464111123E9F180E28D0F0D
:102F2000883010F0D11104C0812F0E940C0606C019
:102F300010958091F80481238093F8040E94C40CBA
:102F40002AC01C2F1F70C07FC03211F01295107F55
:102F5000DD2349F0D13009F46BC0DD2009F477C0DE
:102F6000CC20C9F1CECF8091F70482FD30C0DD20A6
:102F700069F0112339F08091EE04812B8093EE04E7
:102F80000E94C40C80E00E94F51005C080E00E9401
:102F900064111111C9CF0023A9F08091F50480FDBF
:102FA00011C0F70115828695869586950E94390590
:102FB000C7010E94FF148091F50486958695869539
:102FC0000E94490560E0C7010E94720814C2DD201A
:102FD00099F0C11004C0812F0E94160DDCCFF1E0E2
:102FE000CF12D9CF8091EF04912F9823191799F21E
:102FF000812B8093EF04CFCFC110CDCF812F0E94C2
:10300000200D9091EF04812F8923882329F0812FAF
:10301000809589238093EF048091F004912F982369
:10302000992309F4B8CF109518231093F004B3CF67
:10303000DD2029F025E02C1508F4ADCFCCCF34E00D
:103040003C1508F4A8CF812F0E94200DA4CFCC20DE
:10305000D1F3D93349F46FEF87EE93E061508040AC
:103060009040E1F700C000008D2F0E94641193CFC3
:103070008C2F869586958370882369F0813009F0BE
:103080008ACF8D2F9C2F9370D11002C080E090E0EA
:103090000E946C0980CF8D2F9C2F9370D11002C09D
:1030A00080E090E00E94460976CF6D2D8D2F0E9422
:1030B000211071CF8C2F8370811142C0D1102FC08D
:1030C0004D2F429546954770440F440F2D2F2F707A
:1030D00030E0042E02C0220F331F0A94E2F780E092
:1030E00090E0D4FF09C08FE090E002C0880F991FE4
:1030F0004A95E2F780959095C695C695C370C23003
:10310000B1F0C33089F04091F1045091F204C13024
:1031100049F0822B932B842395230E942F050E9434
:10312000350939CF242B352B822B932BF6CF822BCD
:10313000932B2091F1043091F20482279327EDCF55
:10314000DD2091F1C0FFEBCF4D2F429546954770A2
:10315000440F440F2D2F2F7030E0042E02C0220F99
:10316000331F0A94E2F780E090E0D4FF09C08FE0BB
:1031700090E002C0880F991F4A95E2F780959095DC
:10318000C695C695C370C230C1F0C33099F0409166
:10319000F3045091F404C13059F0822B932B842313
:1031A00095230E943405BBCF823008F4B8CFCCCF32
:1031B000242B352B822B932BF4CF822B932B209116
:1031C000F3043091F40482279327EBCFCF70DD20F6
:1031D00039F08C2F0E9439058D2F0E94160D9FCF3C
:1031E0008D2F0E94200D8C2F0E94490598CFD23F31
:1031F000A1F178F4D03FC1F0D13F09F447C0DD2000
:1032000009F46BC0CC2009F465C08D2F0E94F51025
:1032100086CFD33F49F1D43FA9F1D110F3CFC110EC
:103220006AC08C2F8F71E0CFDD20A1F0E4E0EC15B7
:1032300008F475CFCF7181E090E09C0102C0220FAD
:10324000331FCA95E2F78091F3049091F40482272A
:103250009327A7CF35E0C316EBCF8C2F8F71D110FA
:10326000C3CF0E9439055BCF80E090E0DD2009F4F8
:1032700098CFCF7181E090E002C0880F991FCA9566
:10328000E2F78FCF8091F70482FD06C08C2F8F71FB
:10329000DD2009F4A9CFE5CFDD2089F0CF718C2F97
:1032A0000E9439058091F70482FF07C068E0C69F3D
:1032B000C001112483608093F5048C2FD2CF81E06C
:1032C0000E94CE0581E08C1508F029CF82E00E9493
:1032D000CE0525CF8C2F8F71C4CFCC2009F4A1CF80
:1032E000D93349F49FEFE7EEF3E09150E040F0402E
:1032F000E1F700C000008D2F0E94641110CFCA3288
:10330000D10509F48FCCFE01E851FC47E730F10507
:1033100008F46DCC8111C2CCC631DC4709F4ADCDC7
:10332000F701858100811181882309F4CECDC80180
:103330000E943E08C82F682FC8010E945B05B80193
:103340008C2F0E9414060E942507D82FC92FF70141
:10335000D580C680C2948FE0C8228091F504877022
:103360008823F9F00D2DDD20E9F0892F807F80344E
:1033700061F080E28D0F8830A0F0892F807E80324E
:1033800021F4D23070F0CC2061F08091F70482FFFC
:1033900008C082E00E94CE058091F504877001E0AC
:1033A000811100E0EC2FE295EF70C03C08F0F3CD06
:1033B000F0E0EF50F74D0C941128CA32D10509F016
:1033C000A2CF8091EA04882309F4AACF8CE40E945A
:1033D00064111092EA048091F5048770882359F0F3
:1033E000F7018581882339F08091F70482FF03C0BB
:1033F00082E00E94CE05CDB7DEB7E8E00C949F27AF
:1034000080913905803178F480913805882359F00E
:10341000E091FA042091F90430913405409133058C
:1034200057E02E1301C008956E2F70E05E9FF001EB
:103430001124DF01A550BB4F14968C91149788235B
:1034400061F111968C911197831327C08C9184138D
:1034500024C015968C91159781111FC012968D91DD
:103460009C91A0913505B09136058A1B9B0B883C39
:10347000910598F4809139058F70806180933905AA
:10348000EF5FFA4F80818F708061808383E395E0E6
:103490000E94FF140E94C4050895FB013196E77055
:1034A000C0CFADE0B0E0E7E5FAE10C947E278C01F7
:1034B00086E0F801DE01189601900D928A95E1F7F9
:1034C000F801E080F580A280B380C48083E3882E79
:1034D00085E0982E70903705711020C0CC20D9F06F
:1034E000FF2009F419C1C8010E94A108882309F42A
:1034F00013C187E0F801D40101900D928A95E1F79C
:10350000F1E0CF1206C080913305909134050E94FE
:1035100092080E94001AFF24F39451C0D0903805FD
:1035200080913505909136059501281B390BDD20DA
:1035300009F4BAC0283C310508F090C0CC2059F3FA
:1035400090913405C18080913905803108F058C0D0
:10355000C91214C0909133059E1110C0F1104AC0D9
:103560008F7080618093390583E395E00E94FF149A
:1035700080913905F8018683F12C21C0F1103AC001
:1035800040E06C2D8E2D0E94EA0B40E06C2D8E2DBC
:103590000E94EA0BF82E8111EFCF888599850E9451
:1035A0009208292F22952F70903470F49F7022304A
:1035B000A0F09923B1F0F8019681903190F48F2D0D
:1035C0002D96EDE00C949A272A5F2F70223068F038
:1035D000C8010E94FF14FD2CF2CF992311F088231B
:1035E00071F3805E883058F3F3CF803F40F3815F02
:1035F0008230F9CF80913905816080933905BCCF45
:10360000C91207C0909133059E1103C0FF2009F431
:103610006CC0C8010E94A108882309F47DC0FF2066
:1036200009F47AC080913905803278F02091330511
:10363000309134053A832983BC82AB827D821E821D
:103640008F83CE0101960E94FF1487E0F801A3E367
:10365000B5E001900D928A95E1F75BCF8091390535
:10366000803150F483E395E00E94FF1487E0F40179
:1036700011928A95E9F780CFCC2009F44CCF2091A4
:10368000340591812913C5CF909133059E11C1CF87
:10369000F110BFCF8683C8010E94FF1487E0F401B8
:1036A00011928A95E9F737CF283C3105F8F6CC20FE
:1036B00009F431CFFF2081F1909134058181981375
:1036C00021C0809133058E111DC08091390580FD88
:1036D00010C0803170F08683807F803F39F0868112
:1036E000982F907F905F8F70892B8683C8010E94EE
:1036F000FF1487E0F801A3E3B5E001900D928A95ED
:10370000E1F709CFC8010E94A10881119ECF8091E5
:103710003905816080933905C8010E94FF14FBCEF2
:10372000ABE1B0E0E6E9FBE10C9488274E8B5F8BC0
:10373000688F798F8A8F9B8F91111092F8041D8A60
:1037400086E0FE017696DE011F9601900D928A9525
:10375000E1F78B89882329F061E0CE010F960E9462
:10376000720887E0FE013F96DE01189601900D92E7
:103770008A95E1F7CE0108960E94511A81112BC05B
:1037800087E0FE013896DE01119601900D928A9530
:10379000E1F72091F9044091FA048C858823D9F04F
:1037A00030E0C90101968770992750E0841795078A
:1037B000E9F097E0929FD001939FB00D1124A5509E
:1037C000BB4FFE01319601900D929A95E1F78093DF
:1037D000F9040E94C40517E08091FA049091F9045D
:1037E000891312C06B96E3E00C94A4270E949711F2
:1037F0001092F9041092FA0487E0E3E3F5E0DF01A8
:103800001D928A95E9F7E7CF189FC00111248550D2
:103810009B4F0E94511A882329F38091FA0490E06B
:103820000196877099278093FA04D6CFA6E0B0E07E
:10383000ECE1FCE10C9487270E94ED0F8C01809154
:103840006404909165048017910779F019821A82B7
:103850000E94ED0FBC0149815A8180E090E00E94F6
:10386000901B10936504009364042696E4E00C9486
:10387000A327A0E1B0E0EFE3FCE10C947E271A82DD
:103880001982FE01339686E0DF011D928A95E9F7E1
:103890008DE3A82E81E0B82E8E010F5F1F4F4801E7
:1038A000EE24E394F12C27E4C22E21E0D22EF50180
:1038B00081915F018F3F09F441C0F894E82FE295B0
:1038C000EF70F0E021A18F70A70102C0440F551FD7
:1038D0008A95E2F7CA01922F982B91A392A1809525
:1038E000892382A3789400C0E1E4F1E031E0712CF7
:1038F00021912F3F09F497C0A22FA295AF70A05E2F
:10390000B0E08C9190E02F7002C0959587952A9534
:10391000E2F78170811187C0832F782A330FCE168A
:10392000DF0631F7F501319780818F3F11F00E945A
:10393000C90850EA5A95F1F7D8017C920F5F1F4FE2
:10394000B1E4AB16B1E0BB0609F0B1CF48E050E0FE
:10395000B40182EE91E00E9442280091EB0110E058
:1039600001511E4F892B09F460C088E0F401A2EEDA
:10397000B1E001900D928A95E1F781E08093BB015F
:103980000E94ED0F9093BA018093B90180915E047B
:10399000882309F4A3C01A8619861C861B86809189
:1039A000C4018A3008F063C07E01E9E0EE0EF11C2C
:1039B00043E75DE0B701C8010E94730C67018823EB
:1039C00009F47AC047E25DE0B701C8010E94730CB8
:1039D000882309F471C041E65EE0B701C8010E9486
:1039E000730C882309F468C04CE75EE0B701C80196
:1039F0000E94730C882309F45FC01092C401809167
:103A0000EA0190E044E050E0B60181519E4F0E94EF
:103A1000422821E02093B801892B09F03FC060962D
:103A2000EDE00C949A2780E078CF8091BB01882349
:103A300009F4ACCF8091B9019091BA010E948F1422
:103A4000059708F4A3CF44E050E062EE71E0C801AE
:103A50000E944228892B41F084E0E2EEF1E0D80197
:103A600001900D928A95E1F71092BB018FCF809162
:103A7000B6019091B7010E948F14843F914008F0E5
:103A800093CF8091B801882351F2FE01399684E0EA
:103A9000DF011D928A95E9F71092B801E091EA01E1
:103AA000F0E0E151FE4F89859A85AB85BC85808326
:103AB0009183A283B383B3CF8091C4018F3F39F444
:103AC0000E94ED0F9093B7018093B601DACF8F5F1C
:103AD0008093C4018A3008F492CFF2CFF80180813C
:103AE0009181A281B38180934C0490934D04A09363
:103AF0004E04B0934F048CE494E00E943F0B8093FB
:103B00004B04C0905004D0905104E0905204F090C7
:103B100053048091B2019091B301A091B401B0918E
:103B2000B501C816D906EA06FB06B1F0C092B2018B
:103B3000D092B301E092B401F092B5010E94F30972
:103B4000C61AD70AE80AF90AC0926004D092610442
:103B5000E0926204F09263048091540480934204E2
:103B600080915504882319F00E94D90E58CF0E94E5
:103B7000C70E55CFCDB7DEB766970FB6F894DEBF48
:103B80000FBECDBF85B7806885BF85B7806885BF0C
:103B900084B7877F84BF0FB6F894A89580916000A2
:103BA000886180936000109260000FBE80E890E012
:103BB0000FB6F89480936100909361000FBE87EC7C
:103BC00098E090938901809388010E94200B0E94C5
:103BD0008F0B8091E20084608093E2007894809162
:103BE000EE01882399F08091E9001091EC0017957F
:103BF000112717958F70182B1092E9008091E8001B
:103C000083FD0E94DE111F701093E90082E084BDE5
:103C100093E095BD9AEF97BD80936E00109260047B
:103C20001092610410926204109263048091D80093
:103C300080618093D8002AE12A95F1F700C0809135
:103C4000D90080FFDEC081E080935E0480935F0432
:103C5000809300010E940226809100018091000162
:103C600091E08927880F880F8093EB0194E0981BDF
:103C70009093EA0184E90E94C90886E60E94C90877
:103C800087E90E94C90886EC0E94C90801E411E096
:103C9000E7E4EE2EE1E0FE2ED8018D918D018F3FFD
:103CA00011F00E94C908E016F106B1F788E0EFEEC6
:103CB000F1E0DF01282F1D922A95E9F7E2EEF1E00D
:103CC000DF011D928A95E9F780E090E00E9460286C
:103CD000863E9E4F09F466C066EE7EEF80E090E07F
:103CE0000E94942860E082E090E00E94762881E0C3
:103CF00090E09093F2048093F10461E083E090E01F
:103D00000E94762860E074E184E090E00E949428AC
:103D100060E086E090E00E9476286FEF87E090E018
:103D20000E94762840E050E0BA0188E090E00E94CE
:103D3000882860E084E290E00E94762860E087E1D5
:103D400090E00E94762860E08CE090E00E94762867
:103D500060E08DE090E00E94762819821A821B8232
:103D60001C821D821E821F82188648E050E068E196
:103D700070E0CE0101960E94662840E050E0BA0152
:103D800080E290E00E94882840E050E0BA018FE095
:103D900090E00E94882840E050E0BA0183E190E082
:103DA0000E94882882E090E00E9458288093F701C2
:103DB00084E090E00E9460289093F7048093F604DA
:103DC0000E94391CEFEFF6E721E0E150F04020407F
:103DD000E1F700C000000E94391CE0915F0481E01F
:103DE000E827EE0FEE0FF0E0E151FE4F808181FFFA
:103DF00013C06FEF7FEF80E090E00E9494280E9454
:103E0000630A0E94200B1092EE0110925E04109241
:103E10005F041092000120CF83E090E00E945828B8
:103E200090E00E942F0580915E04882309F43BC135
:103E300093E080E290932D0480930C020E94AB24C7
:103E40006BE070E082E797E00E949A0E882309F405
:103E500043C080912D0465E070E081FD27C18DE6AF
:103E600097E00E949A0E8823B9F16DE070E08BE52F
:103E700097E00E949A0E882379F10E94F3096D87DA
:103E80007E878F87988BDC01CB01805F984DAF4F89
:103E9000BF4F8093310490933204A0933304B093C6
:103EA0003404EDE2F2E080E092E0DF019C011D923B
:103EB00021503040E1F7F0930B02E0930A028FEFBC
:103EC0009FEF9093300480932F0481E08093370418
:103ED00080933D0410922E0480915E04811102C0F3
:103EE0000E94052681E091E09093870480938604E8
:103EF000CE010196898B9A8B8091EE01853049F431
:103F00008091EE01853009F4D4C00E9497110E947F
:103F100035090E94391C08EF11E07FEEE72E71E0B1
:103F2000F72ED701F80191918D9120E032E02E1704
:103F30003F0709F412C19817B1F370905E04D12CB9
:103F4000D701CD907D01F80181908F018C1441F152
:103F50008C24B12C99249394892D88218823C1F035
:103F60007720B1F0B982DA820E94ED0F9C838B83B7
:103F7000F1E0FD8391E0892D8C21811101C090E059
:103F80009E8349815A816B817C818D810E94901B27
:103F9000B394990C26E0B212DFCFF8013197C082BA
:103FA000D39438E0D312CCCF0E94100A40915E0423
:103FB0004D87809137044111DBC08111E7C10E9418
:103FC000D90E86E0EBEAF4E0A989BA8901900D9256
:103FD0008A95E1F7C090AC040091AD041091AE0455
:103FE000E090AF04F090B0041092AD041092AE04D3
:103FF0001092AF041092B004812F802B882379F0A7
:1040000080913A0490913B040E948F149C0180910E
:10401000A9048111DFC22B30310508F0E1C28F2DD8
:104020008E29882379F080913804909139040E9478
:104030008F149C018091A80481110AC32B30310593
:1040400008F00CC38091AC04C81216C08091AD0476
:10405000882311F0801310C09091AE04992311F0C1
:1040600019130AC02091B004211106C02091AF0499
:10407000211102C0892B81110E94F90F86E0E98984
:10408000FA89ABEAB4E001900D928A95E1F70E94BB
:10409000350990913C04891709F42ECF80933C0494
:1040A0000E94F30929CF92E080E8C4CE88E697E029
:1040B000D8CE8091EE01843031F10E94C70E10926B
:1040C000EC0148E150E080E40FB6F894A8954093E5
:1040D00060000FBE8093600083B7817F846083BFE0
:1040E00083B7816083BF7894889583B78E7F83BFC1
:1040F0000FB6F894A8958091600088618093600065
:10410000109260000FBE8091ED01882309F4F8CE73
:104110000E94391CEFEEF1E087EF91E0219121112F
:1041200004C08E179F07D1F7EBCE80E189BD82E1F5
:1041300089BD09B400FEFDCF8091D8008F7D8093AA
:10414000D8008091E00082608093E0008091E000E0
:1041500081FDFCCF0E949711D3CE9813EECE0E9422
:10416000161C30915E043D87332309F4FCC01D8684
:10417000C090B104D090B2040D2C000CEE08FF08E2
:1041800010910B01612E712CE1EBF4E081E090E0E5
:104190003296681679060CF0EDC080910602909177
:1041A0000702A0910802B0910902BC01CD010E9452
:1041B000430A4B015C019601A701F7FE04C020E011
:1041C00030E040E050E0A0E6BAEE0E941728698790
:1041D0007A878B879C8788EC869D9001879D300D20
:1041E0001124032E000C440B550B280D391D4A1DBC
:1041F0005B1DA5E0B0E00E9417286B8B7C8B8D8B3C
:104200009E8B69857A858B859C852B893C894D8918
:104210005E890E94D02729013A01213F31054105DD
:10422000510528F060EF462E512C612C712CA9EC21
:104230008A169104A104B1040CF18091E30490E08A
:10424000019669E170E00E94BC278093E304880F27
:10425000991FFC01EF54FB4F11821082183108F0B6
:1042600017E11F5F10930B010E94F3096093060290
:10427000709307028093080290930902B2E0CB1674
:10428000D104E104F1041CF4412C512C32012091A1
:104290000202309103024091040250910502CA01CA
:1042A000B9010E94430A6B017C0135E6C316D104B3
:1042B000E104F10484F00E94F30960930202709318
:1042C000030280930402909305028091420480933C
:1042D00001024092000210910102A0910002A11B74
:1042E000BB0BA70196010E94222869877A878B87DA
:1042F0009C8724E630E040E050E00E94F227120F55
:104300001093420410913704112309F48DC0809159
:104310003504909136040E948F14C29708F447C068
:104320000E94ED0F90933604809335048DE292E065
:1043300090930B0280930A021123C9F185EB97E059
:104340000E94B80F8091F3049091F4040E940B0531
:10435000823009F471C0E8F481116BC08FEA97E0F4
:104360000E94B80F1CC080913704882309F429CE1D
:1043700010E0CDCF40815181052E000C660B770BEC
:10438000C40ED51EE61EF71E019602CF10E08D87E3
:10439000BECF833009F453C0843009F453C00E9467
:1043A000350981FF52C08AE897E00E94B80F8091DA
:1043B0002F0490913004892BA1F080913704882339
:1043C00081F080912E0481110CC00E94D90E2091A1
:1043D0002F043091300480E061E070E02115310558
:1043E000C1F580913D048823F9F00E94F3096987A3
:1043F0007A878B879C878091310490913204A091B9
:104400003304B091340429853A854B855C85281B9B
:10441000390B4A0B5B0BDA01C9018F3F9F4FAF4F3E
:10442000BF4710F40E94C70E4D85442309F4C9CD3F
:10443000C6CD89EA97E094CF83EA97E091CF8DE9E2
:1044400097E08ECF87E997E08BCF8DE797E0ADCFF0
:104450008F5F082F10E02B01082E02C0440C551C62
:104460000A94E2F7A20142235323452B89F390914A
:104470002D0490FD43C098013695279536952795D4
:10448000922F8295880F80763FE1380F80930E013E
:104490002093110130930F019093120124E630E034
:1044A00047E050E06CE071E088E70E945025892BDE
:1044B00009F097CFA80125E0440F551F2A95E1F791
:1044C00080912D0480FD22C0435D5D4F04E610E025
:1044D00020E230E060E488E70E947725892B09F02C
:1044E00080CF4094509480912F0490913004842187
:1044F00095219093300480932F0473CF880F880FF9
:10450000880F37E0380F20E093E0C0CFEDE0F2E015
:1045100080E2DF011D928A95E9F7EBE4F1E0FA878A
:10452000E98767E471E08FE4682E81E0782E97E0F8
:10453000B92EDD24D394E985FA85A191FA87E9871C
:10454000FB018191BF01840F952F911D9C01235D7B
:104550003D4F1901EA2FF0E0E35FFD4F80E090E06E
:10456000EB2CE81AFD2C082E01C0FF0C0A94EAF788
:10457000410100E0D4011D914D011F212E2D201B72
:10458000277030E0B12F022E01C0BB0F0A94EAF76A
:104590003195219531092770332701C016952A9549
:1045A000EAF71B2B2081122B10830F5F083011F7C5
:1045B000019631968830910599F6E985FA856E164F
:1045C0007F0609F0B8CF04E610E020E230E04DE0CD
:1045D00052E080CF2531310508F421CD8F3F19F00D
:1045E0008F5F8093A904002359F00E94F0089FEF89
:1045F00010160CF491E0899F802D11248093AD0456
:10460000112359F00E94F00891E011160CF09FEF71
:10461000899F802D11248093AE048091AD0488235E
:1046200009F4FDCCD090AE04DD2009F4F8CC0E9452
:10463000E208811101C081E08093AD048D2D0E94BC
:10464000E208882319F08093AE04E9CC81E0FBCF27
:104650002135310508F4F6CC8F3F19F08F5F809338
:10466000A804EE2059F00E9410099FEF1E140CF4CC
:1046700091E0899F802D11248093AF04FF2059F091
:104680000E94100991E01F140CF09FEF899F802D6C
:1046900011248093B0048091AF04882309F4D2CC14
:1046A000F090B004FF2009F4CDCC0E94E208811103
:1046B00001C081E08093AF048F2D0E94E20888231F
:1046C00019F08093B004BECC81E0FBCF78941F92A8
:1046D0001FB61F9211248F939F93AF93BF93809126
:1046E000DA019091DB01A091DC01B091DD0101962E
:1046F000A11DB11D8093DA019093DB01A093DC0131
:10470000B093DD01BF91AF919F918F911F901FBE1C
:104710001F9018951F920F920FB60F9211242F938E
:104720003F934F935F936F937F938F939F93AF9339
:10473000BF93EF93FF938091E10082FF09C08091C6
:10474000E20082FF05C08091E1008B7F8093E10051
:104750008091DA0080FF24C08091D80080FF20C0C3
:104760008091DA008E7F8093DA008091D90080FFFB
:104770009BC080E189BD82E189BD09B400FEFDCF07
:1047800081E08093EE018091C801811109C00E94EF
:10479000200B0E948F0B8091E20084608093E200E6
:1047A0008091E10080FF17C08091E20080FF13C07C
:1047B0008091E2008E7F8093E2008091E200806130
:1047C0008093E2008091D80080628093D80019BC69
:1047D00085E08093EE018091E10084FF29C0809103
:1047E000E20084FF25C080E189BD82E189BD09B472
:1047F00000FEFDCF8091D8008F7D8093D8008091FE
:10480000E1008F7E8093E1008091E2008F7E8093B3
:10481000E2008091E20081608093E2008091C70114
:10482000882309F447C084E08093EE018091EE0173
:104830008091E10083FF27C08091E20083FF23C0C5
:104840008091E100877F8093E10082E08093EE0118
:104850001092C7018091E1008E7F8093E1008091EA
:10486000E2008E7F8093E2008091E200806180937D
:10487000E20042E060E080E00E94580B8091F0008E
:1048800088608093F000FF91EF91BF91AF919F916D
:104890008F917F916F915F914F913F912F910F90E9
:1048A0000FBE0F901F90189519BC1092EE01109238
:1048B000C80176CF8091E30087FF02C083E0B4CFC8
:1048C00081E0B2CF1F920F920FB60F921124FF9288
:1048D0000F931F932F933F934F935F936F937F9308
:1048E0008F939F93AF93BF93CF93DF93EF93FF93F8
:1048F00009EE10E0F8018081C091EC00C795CC274B
:10490000C7958F70FC2EF82A1082C0EFD0E0888106
:10491000877F888378940E94DE11F8011082888155
:1049200088608883CF2DCF70C083FF91EF91DF9196
:10493000CF91BF91AF919F918F917F916F915F9137
:104940004F913F912F911F910F91FF900F900FBEAC
:104950000F901F9018951092B9008CE08093B800CA
:104960000895A0E0B0E0E7EBF4E20C948027B82EC5
:10497000EB010E94ED0F6C01EE24E394F12CC431A5
:10498000D10560F025E0E22EF12CCF3FDC0731F0BD
:10499000CE0164E170E00E9465277B0184EAA82EC5
:1049A00094E8992E1092BC00A092BC000E94ED0FDA
:1049B000182F092F8091BC0087FF0CC08091B9008F
:1049C000887F8830F9F08091B900887F8031D1F0FC
:1049D0000FEF08C0812F902F0E948F14E816F90660
:1049E00048F70EEF1FEFCF3FDC07E1F2C6010E9450
:1049F0008F14C817D907B0F6C801CDB7DEB7EBE002
:104A00000C949C27B092BB009092BC000E94ED0FCA
:104A1000182F092F8091BC0087FF0AC02091B90090
:104A2000287F283111F0203499F600E010E0E4CF1F
:104A3000812F902F0E948F14E816F90658F7D1CFD6
:104A40000F931F93CF93DF93EB018093BB0084E818
:104A50008093BC000E94ED0F182F092F8091BC009D
:104A600087FF11C02091B900287F81E090E02832B3
:104A700011F480E090E0919581959109DF91CF91BB
:104A80001F910F910895CF3FDC0741F3812F902FA5
:104A90000E948F14C817D90708F78EEF9FEFEECF4B
:104AA000A0E0B0E0E6E5F5E20C9483276B018A0113
:104AB000F22EE32E622F732F0E94B124AC01E60187
:104AC0000C0D1D1DC017D10711F057FF09C084E957
:104AD0008093BC00CA01CDB7DEB7E8E00C949F27F5
:104AE0006F2D7E2D89910E942025AC01EBCFA0E097
:104AF000B0E0EDE7F5E20C948327C62F6A01790157
:104B0000B8010E94B1249C0197FD0DC0B8018C2F03
:104B10000E9420259C01E601EC0CFD1CCE15DF0552
:104B200011F037FF09C084E98093BC00C901CDB7FB
:104B3000DEB7E8E00C949F27B80189910E942025F8
:104B40009C01ECCF84E98093BC0008958EE14A9BE0
:104B500003C081508111FBCF4A9BFECF08955A9824
:104B600080E28A95F1F75A9A0895FC013BE03A9564
:104B7000F1F798E020E080E031E040E14A95F1F77C
:104B8000880F4A9B02C08160232742E04A95F1F7D3
:104B9000000040E14A95F1F791509111EECF90E17C
:104BA0009A95F1F799B132E03A95F1F7000040E1BA
:104BB0004A95F1F792FB992790F992272081920F5D
:104BC00090830895A1E0B0E0E8EEF5E20C9485272B
:104BD00019828C017C01E60EF11C0E151F0541F4B3
:104BE00081E09981911180E02196E6E00C94A12763
:104BF0000E94A625CE0101960E94B525F801819359
:104C00008F01EBCF529A5A9A089552985A9AEA9A7B
:104C1000E9E6F0E080818F7C808308956150770B16
:104C200091E001C0990F6A95EAF7692F90E021E0C1
:104C3000611108C0992399F05A9A80E28A95F1F798
:104C40005A980895362F3823332339F05A9A9227E9
:104C500030E23A95F1F76695EBCF5A98F9CF5A982A
:104C6000ECCFFF920F931F93CF93DF93EC018C0156
:104C7000060F111DC017D10729F4CDB7DEB7E5E047
:104C80000C94A227F9900E94AF2568E08F2D0E9416
:104C90000E26F0CF1F920F920FB60F9211240F9392
:104CA0001F932F933F934F935F936F937F938F93B4
:104CB0009F93AF93BF93EF93FF93CF93DF930F92A5
:104CC000CDB7DEB719820E94A625CE0101960E94BB
:104CD000B525082F069506950695982F92959570FF
:104CE000202F2570920F292F237096959695920F5D
:104CF000982797708981892B81115CC0063008F054
:104D000059C080E18A95F1F75A9A529A82E08A95C1
:104D1000F1F700C05A9888E0089F80011124D8015B
:104D2000AD5EBE4F1696ED91FC9117973097A9F0A6
:104D300060914F017091500114962D913C911597FF
:104D4000260F371F11968D919C911297680F791F2E
:104D500013964C9113978C910995F801ED5EFE4FD7
:104D60006381662351F020914F013091500184817D
:104D70009581820F931F0E9431260E94AF2580E10A
:104D80008A95F1F75A9852985A9A80E18A95F1F7E4
:104D9000F801ED5EFE4F6081662351F020914F01D6
:104DA0003091500181819281820F931F0E94E225F0
:104DB0000E94A6250F90DF91CF91FF91EF91BF91B7
:104DC000AF919F918F917F916F915F914F913F91A3
:104DD0002F911F910F910F900FBE0F901F9018955C
:104DE0000F931F93CF93DF938C0106970CF065C050
:104DF000F894529A5A9885E08A95F1F70000C02FEE
:104E0000C695C570802F8570C80F8C2F8370C6958E
:104E1000C69593E0000F111F9A95E1F7C80FC801DE
:104E20008C2BEC010E94AF2500C068E08C2F0E9403
:104E30000E2690E19A95F1F752985A9A4A9B35C0FE
:104E400087E090E04A9933C0F801ED5EFE4F638140
:104E5000662361F020914F0130915001848195814A
:104E6000820F931F0E94E225882321F10E94A6252C
:104E700080E28A95F1F75A98529A90E19A95F1F763
:104E8000F801ED5EFE4F6081662351F020914F01E5
:104E90003091500181819281820F931F0E943126AF
:104EA0000E94AF25789481E009C000C0C7CF019768
:104EB000009749F4529A5A9A789480E0DF91CF9102
:104EC0001F910F91089500C0BDCFAA1BBB1B51E1DC
:104ED00007C0AA1FBB1FA617B70710F0A61BB70B6A
:104EE000881F991F5A95A9F780959095BC01CD010F
:104EF00008952F923F924F925F926F927F928F927E
:104F00009F92AF92BF92CF92DF92EF92FF920F9358
:104F10001F93CF93DF93CDB7DEB7CA1BDB0B0FB662
:104F2000F894DEBF0FBECDBF09942A88398848881F
:104F30005F846E847D848C849B84AA84B984C884B5
:104F4000DF80EE80FD800C811B81AA81B981CE0FAC
:104F5000D11D0FB6F894DEBF0FBECDBFED01089591
:104F6000991B79E004C0991F961708F0961B881FBB
:104F70007A95C9F78095089597FB072E16F400944B
:104F800007D077FD09D00E94652707FC05D03EF4C5
:104F9000909581959F4F0895709561957F4F0895E5
:104FA000A1E21A2EAA1BBB1BFD010DC0AA1FBB1F2D
:104FB000EE1FFF1FA217B307E407F50720F0A21B9F
:104FC000B30BE40BF50B661F771F881F991F1A940C
:104FD00069F760957095809590959B01AC01BD0136
:104FE000CF010895052E97FB1EF400940E94092816
:104FF00057FD07D00E94D02707FC03D04EF40C9435
:10500000092850954095309521953F4F4F4F5F4F60
:10501000089590958095709561957F4F8F4F9F4F24
:105020000895EE0FFF1F0590F491E02D09940E9462
:105030002A28A59F900DB49F900DA49F800D911DCF
:1050400011240895B7FF0C9417280E941728821B7B
:10505000930B0895A29FB001B39FC001A39F700D51
:10506000811D1124911DB29F700D811D1124911D70
:105070000895FB01DC0102C005900D9241505040A3
:10508000D8F70895FB01DC0104C08D9101908019CF
:1050900021F441505040C8F7881B990B0895FB013B
:1050A000DC0102C001900D9241505040D8F70895A4
:1050B000F999FECF92BD81BDF89A992780B50895E0
:1050C000A8E1B0E042E050E00C949C28DC01A40F81
:1050D000B51F4150504048F0CB01840F951F2E91D1
:1050E0000E94772841505040D0F70895262FF99913
:1050F000FECF92BD81BDF89A019700B4021639F037
:105100001FBA20BD0FB6F894FA9AF99A0FBE089507
:105110000396272F0E9477280E947628252F0E9429
:105120007728242F0C9477280196272F0E94772820
:105130000C947628DC01CB01FC01F999FECF06C066
:10514000F2BDE1BDF89A319600B40D924150504045
:10515000B8F70895F894FFCF4A104D105310681017
:105160006810681068106810681068106810561091
:105170005B105F10651076107C108010BB12E1127E
:10518000E712E112E7123A135C13E7125A1467149C
:10519000C4162F17CC1696169A16D0169E16D4162D
:1051A000E016AA162817AE16E416B216E81610175F
:1051B000B616EC161717BC16F216FA16A216D81663
:1051C000A616DC16C016F616061720172617901618
:1051D000C816361738163C162E16341640164416C6
:1051E00048166A176A17A117A11738185518CB1750
:0A51F000CB175A18E618F718F71845
:1051FA0001740A470C5E0C650C6C0C010021007FDF
:10520A002200030000000100000000000000040169
:10521A000000000405000000000000010900000071
:10522A00000000010A0000000000000120946697B7
:10523A00C6F4F5F6F7313300081018181008004BB9
:10524A0004E200E900EA00B500B600B700CD008329
:10525A0001CC008A01920194012102230224022531
:10526A0002260227022A02B300B4006F0070009FD0
:08527A0001CB019F02A002001C
:00000001FF
