:100000000C94AC0E0C94C90E0C94C90E0C94A53132
:100010000C94C90E0C94C90E0C94C90E0C94C90E04
:100020000C94C90E0C94C90E0C94E52E0C94BD2FA3
:100030000C941F1A0C94C90E0C94C90E0C94C90E82
:100040000C94C90E0C94C90E0C94C90E0C94C90ED4
:100050000C94C90E0C94C12E0C94C90E0C94C90EAC
:100060000C94C90E0C94C90E0C94C90E0C94C90EB4
:100070000C94C90E0C94C90E0C94C90E0C94C90EA4
:100080000C94C90E0C94C90E0C94C90E0C94C90E94
:100090000C94C90E0C94C90E0C94C90E0C94C90E84
:1000A0000C94C90E0C94C90E0C94C90E00AF00AE8E
:1000B0000000000000003E5B4F5B3E003E6B4F6B5C
:1000C0003E001C3E7C3E1C00183C7E3C18001C5729
:1000D0007D571C001C5E7F5E1C0000183C18000051
:1000E000FFE7C3E7FF00001824180000FFE7DBE785
:1000F000FF0030483A060E00262979292600407F65
:1001000005050700407F05253F005A3CE73C5A00A3
:100110007F3E1C1C0800081C1C3E7F0014227F220E
:1001200014005F5F005F5F0006097F017F000066CB
:1001300089956A0060606060600094A2FFA29400EC
:1001400008047E04080010207E20100008082A1CE5
:100150000800081C2A0808001E10101010000C1EB1
:100160000C1E0C0030383E383000060E3E0E0600E5
:1001700000000000000000005F0000000007000712
:100180000000147F147F1400242A7F2A12002313F6
:10019000086462003649562050000008070300003A
:1001A000001C224100000041221C00002A1C7F1C70
:1001B0002A0008083E080800008070300000080887
:1001C0000808080000006060000020100804020019
:1001D0003E5149453E0000427F4000007249494976
:1001E00046002141494D33001814127F1000274565
:1001F000454539003C4A4949310041211109070070
:10020000364949493600464949291E000000140074
:1002100000000040340000000008142241001414C3
:1002200014141400004122140800020159090600A8
:100230003E415D594E007C1211127C007F494949B4
:1002400036003E41414122007F4141413E007F490D
:10025000494941007F09090901003E4141517300AC
:100260007F0808087F0000417F4100002040413F97
:1002700001007F08142241007F40404040007F027F
:100280001C027F007F0408107F003E4141413E0078
:100290007F09090906003E4151215E007F091929A5
:1002A000460026494949320003017F0103003F40CF
:1002B00040403F001F2040201F003F4038403F008B
:1002C0006314081463000304780403006159494D62
:1002D0004300007F4141410002040810200000411A
:1002E00041417F00040201020400404040404000C0
:1002F0000003070800002054547840007F2844443D
:100300003800384444442800384444287F00385496
:100310005454180000087E0902001824241C780098
:100320007F080404780000447D4000002040403DE8
:1003300000007F102844000000417F4000007C0442
:10034000780478007C080404780038444444380079
:100350007C1824241800182424187C007C08040429
:10036000080048545454240004043F4424003C40F2
:1003700040207C001C2040201C003C4030403C00C1
:100380004428102844004C9090907C004464544CC5
:1003900044000008364100000000770000000041E2
:1003A000360800000201020402003C2623263C001D
:1003B000000000000000000000000000000000003D
:1003C000C0E0F0F8F81800C0F0FCFEFFFFFFFFFFF0
:1003D000FFFF7E00000000000000000080C0E0E0A1
:1003E000E0E0E0E0E0E0C0800000000080C0E0E08D
:1003F000E0E0E0E0E0E0C080000000E0E0C0C0E05D
:10040000E0E0E00000E0E0C0C0E0E0E0E0E0C0806C
:100410000000000080C0E0E0E0E0E0E0E0E0C0805C
:100420000000000000000000000000000000E0F0FC
:10043000F0F0E0ECEEF7F37020007C7C7C7E007E38
:100440007E7E7F7F7F000080C0E07E5B4F5BFEC0D2
:100450000000C000DCD7DEDEDED7DC00C00000001C
:10046000000000000000000000000000000000008C
:10047000000000000000000000F8FCFEFFE000FFAC
:10048000FFFFFFFFFF80FFFFFFFFFFFFFFFFFF1FDB
:100490000701000000000000000000FFFFFF8100D6
:1004A000000000000081C3C3C30000FFFFFF810004
:1004B000000000000081FFFFFF0000FFFFFF0100C0
:1004C0000000000000FFFFFF010000000001FFFF2F
:1004D000FF0000FFFFFF9D1C1C1C1C1C1C9DDFDF80
:1004E000DF000000000000000000000000000F1FFF
:1004F0003F7F7F7F7F7F3F1E0C001F1F1F3F003FFE
:100500003F3F7F7F7F00307B7F7830202030787FB7
:100510003B0003000F7F0F0F0F7F0F000300000051
:1005200000000000000000000000000000000000CB
:10053000000000000000000000030F1F3F3F3F3F8E
:100540001F1F3F3F7F7F7F3F3F1F3F7F7F7F7F7C1E
:100550007878381C0F000000000000000103070736
:10056000070707070707030100000000010307074B
:100570000707070707070301000000070707000038
:100580000000000000070707000000000000070748
:100590000700000001030707070707070707030114
:1005A000000000000000000000000000000000004B
:1005B000000000000000000000000000000000003B
:1005C000000000000000000000000000000000002B
:1005D000000000000000000000000000000000001B
:1005E000000000000000000000000000000000000B
:1005F00005010902A10185020901A10005091901EE
:1006000029081500250195087501810205010930A9
:1006100009311581257F95027508810609381581F4
:10062000257F950175088106050C0A38021581257C
:100630007F950175088106C0C005010980A101856B
:100640000319012AB700150126B70095017510811D
:1006500000C0050C0901A101850419012AA0021599
:100660000126A002950175108100C005010906A1AF
:10067000018506050719E029E7150025019508758C
:100680000181020507190029EF1500250195F07574
:100690000181020508190129059505750191029549
:1006A0000175039101C005010906A101050719E0C3
:1006B00029E7150025019508750181029501750846
:1006C00081010507190029FF150026FF0095067511
:1006D00008810005081901290515002501950575F2
:1006E000019102950175039101C009023B000201CD
:1006F00000A0FA0904000001030101000921110111
:1007000000012244000705810308000109040100DB
:10071000010300000009211101000122B6000705B4
:10072000820320000112010002000000085346016C
:10073000000100010200010C0343006F0072006E13
:100740000065000000100366006F006F0073007406
:100750000061006E0000000403090400DA02812831
:10076000D9F1DB20A4A62EAF00A0C0D30000A1C801
:10077000D30000AED580A81F408D14200057504DE7
:100780003A000A20202020200A2020202020000AD1
:100790005F5F5F5F5F0A4341505320004E617620E8
:1007A000200053796D2020004E756D202000446597
:1007B000662020004C415945520A002B0014001AB3
:1007C00000080015001700392204001641074209ED
:1007D000430A00E0001D001B000600190005000090
:1007E0000000000000E20021522C002A0013001239
:1007F000000C0018001C00280038000F410E420DAC
:10080000430B004F0050003700360010001100006D
:100810000000000000E30022522C0029003A003BB7
:10082000003C003D00000039223E003F00400041F6
:10083000006300E000420043004400450036000031
:100840000000000000E20001002C002A0027022620
:100850000025002400550028003800230022002134
:100860000054004F00500020001F001E00570000E1
:100870000000000000E30023522700290035002279
:10088000022F002F02331439223400350223022DA7
:10089000021E02E000640064022E023414210200F1
:1008A0000000000000E20023522C002A002702333F
:1008B000002E0032005500280038002D0030142F83
:1008C0001454004F00500035142602250257000032
:1008D0000000000000E30001002C002900000000DF
:1008E000000000000000003922D900DB00CD00DC50
:1008F00000BD00E000DA00CF00CE00D000BE000056
:100900000000000000E20001002C00D500D400D25D
:1009100000D300D100A90028004B004D0052004A2E
:1009200000AA0000004E004F0051005000A8000037
:100930000000000000E30001002C002020202061C6
:1009400062636465666768696A6B6C6D6E6F70710F
:1009500072737475767778797A3132333435363705
:10096000383930524542545F2D3D5B5D5C233B2757
:10097000602C2E2F2020200000000000000000002E
:100980000000000000000000000000000000000067
:100990000000000000000000000000000000000057
:1009A0000000000000000000000000000000000047
:1009B00000000000000000000080808040402020F7
:1009C000100804020408101020204040808000001D
:1009D0000000000000000000000000000000000017
:1009E0000000000000000000000000000000000007
:1009F00000000000000000000000000000000000F7
:100A000000000000000000000000000000000000E6
:100A100000000000000000000000000000000000D6
:100A2000000000000000000000003FC101010202C0
:100A3000040404040202010101000000000000801F
:100A400000004080804000003030000000000102C3
:100A500064180412C2CA2488F080804040404020BC
:100A600020202010101010080808080404040402B4
:100A7000020202010101010000000000000000006C
:100A80000000000000000000000000000000000066
:100A90000000000000000000000000000000000056
:100AA000000000000000000000E018060100000047
:100AB0000000000000000000808383404040402090
:100AC0002121201010101008080808040404040252
:100AD000020202010101010000000000000000000C
:100AE0000000000000000000000000000000000006
:100AF00000000000000000000000000000000000F6
:100B000000000000000000000000000000000000E5
:100B100000000000000000808080804040404020B5
:100B200020202010101010080F08080404040402EC
:100B3000040810102020404041422498C088888C2E
:100B40009C1C1E0E060000000000000000000000BB
:100B50000000000000000000000000000000000095
:100B60000000000000000000000000000000000085
:100B70000000000000000000000000000000000075
:100B80000000000000000000000000000000000065
:100B90000000000000000000000000000000000055
:100BA0000000000000000000000000000000000045
:100BB0000000000000000000000000000000000035
:100BC0000000000000000000000000000000000025
:100BD0000000000000000000000000000000000015
:100BE0000000000000000000000000000000000005
:100BF00000000000000000000000000000000000F5
:100C000000000000000000000000000000000000E4
:100C100000000000000000000000000000000000D4
:100C200000000000000000000000000000000000C4
:100C30000000000000808080404020201008040256
:100C400004081010202040408080000000000000B8
:100C50000000000000000000000000000000000094
:100C60000000000000000000000000000000000084
:100C70000000000000000000000000000000000074
:100C80000000000000000000000000000000000064
:100C90000000000000000000000000000000000054
:100CA0000000000000003FC101010202048444442E
:100CB000428201010100000000000080000040802D
:100CC00080400000303000000000010204040808E9
:100CD0001020408080808040404040202020201014
:100CE000101010080808080404040402020202019B
:100CF00001010100000000000000000000000000F1
:100D000000000000000000000000000000000000E3
:100D100000000000000000000000000000000000D3
:100D20000000000000E018060100000C030002189B
:100D3000190005FE8083834040404020212120107F
:100D40001010100808080804040404040830408047
:100D50008000000186986000000000000000000094
:100D60000000000000000000000000000000000083
:100D70000000000000000000000000000000000073
:100D80000000000000000000000000000000000063
:100D900000000080808080404040402020202010C3
:100DA000101010080F0808040404040202020201D3
:100DB0000101010000000000000000000000000030
:100DC000000000000000060F0F07030361F0F8FCAD
:100DD000600101013C78F8F07000000000000000A4
:100DE0000000000000000000000000000000000003
:100DF00000000000000000000000000000000000F3
:100E000000000000000000000000000000000000E2
:100E100000000000000000000000000000000000D2
:100E200000000000000000000000000000000000C2
:100E300000000000000000000000000000000000B2
:100E400000000000000000000000000000000000A2
:100E50000000000000000000000000000000000092
:100E60000000000000000000000000000000000082
:100E70000000000000000000000000000000000072
:100E80000000000000000000000000000000000062
:100E90000000000000000000000000000000000052
:100EA0000000000000000000000000000000000042
:100EB00000808080404020201008040204081010A8
:100EC0002020404080800000000000000000000062
:100ED0000000000000000000000000000000000012
:100EE0000000000000000000000000000000000002
:100EF00000000000000000000000000000000000F2
:100F000000000000000000000000000000000000E1
:100F100000000000000000000000000000000000D1
:100F200000003FC1010102020484444442820101E5
:100F300001000000000000800000408080400000B0
:100F4000303000000000010264180412C2CA248874
:100F5000F0808040404040202020201010101008D9
:100F6000080808040404040202020201010101004D
:100F70000000000000000000000000000000000071
:100F80000000000000000000000000000000000061
:100F90000000000000000000000000000000000051
:100FA00000E018060100000C03000218190005FEFD
:100FB00080838340404040202121201010101008E1
:100FC00008080804040404020202020101010100ED
:100FD0000000000000000000000000000000000011
:100FE0000000000000000000000000000000000001
:100FF00000000000000000000000000000000000F1
:101000000000000000000000000000000000008060
:101010008080804040404020202020101010100888
:101020000F08080404040402020202010101010085
:1010300000000000000000000000000000000000B0
:1010400000000000000000000000000000000000A0
:101050000000000000000000000000000000000090
:101060000000000000000000000000000000000080
:101070000000000000000000000000000000000070
:101080000000000000000000000000000000000060
:101090000000000000000000000000000000000050
:1010A0000000000000000000000000000000000040
:1010B0000000000000000000000000000000000030
:1010C0000000000000000000000000000000000020
:1010D0000000000000000000000000000000000010
:1010E0000000000000000000000000000000000000
:1010F00000000000000000000000000000000000F0
:1011000000000000000000000000000000000000DF
:1011100000000000000000000000000000000000CF
:1011200000000000000000000000808040404020DF
:101130002020202018040201020408102020404032
:10114000808000000000000000000000000000009F
:10115000000000000000000000000000000000008F
:10116000000000000000000000000000000000007F
:10117000000000000000000000000000000000006F
:10118000000000000000000000000000000000005F
:1011900000000000000000000000000000003FC14F
:1011A0000101020204040404020201000000000024
:1011B00000000080000040808040000030300000CF
:1011C0000000010204040808102040808080804054
:1011D000404040202020201010101008080808046B
:1011E00004040402020202010101010000000000E7
:1011F00000000000000000000000000000000000EF
:1012000000000000000000000000000000000000DE
:1012100000000000000000000000000000E01806D0
:1012200001000000000000000000000080838340F7
:101230004040402021212010101010080808080408
:101240000404040408304080800000018698600097
:10125000000000000000000000000000000000008E
:10126000000000000000000000000000000000007E
:10127000000000000000000000000000000000006E
:10128000000000000000000000000080808080401E
:101290004040402020202010101010080F080804A3
:1012A0000404040204081010202040404142241885
:1012B000000000000000000000000000000000002E
:1012C000000000000000000000010101000000001B
:1012D000000000000000000000000000000000000E
:1012E00000000000000000000000000000000000FE
:1012F00000000000000000000000000000000000EE
:1013000000000000000000000000000000000000DD
:1013100000000000000000000000000000000000CD
:1013200000000000000000000000000000000000BD
:1013300000000000000000000000000000000000AD
:10134000000000000000000000000000000000009D
:10135000000000000000000000000000000000008D
:10136000000000000000000000000000000000007D
:10137000000000000000000000000000000000006D
:10138000000000000000000000000000000000005D
:10139000000000000000000000000000000000004D
:1013A000000000000000000000808040404020104D
:1013B00008040201020408102040808000000000A0
:1013C000000000000000000000000000000000001D
:1013D000000000000000000000000000000000000D
:1013E00000000000000000000000000000000000FD
:1013F00000000000000000000000000000000000ED
:1014000000000000000000000000000000000000DC
:10141000000000000000000000003FC101010202C6
:1014200004040404020201010100000000000000A5
:1014300000008000008000006060000001020404E1
:1014400008081010202040808080804040404020CC
:1014500020202010101010080808080404040402BA
:101460000202020101010100000000000000000072
:10147000000000000000000000000000000000006C
:10148000000000000000000000000000000000005C
:10149000000000000000000000C0300C030000004D
:1014A000000000000000000080868640404040218F
:1014B0002222201111101008080808040404040452
:1014C0000830408080000001869860000000000025
:1014D000000000000000000000000000000000000C
:1014E00000000000000000000000000000000000FC
:1014F00000000000000000000000000000000000EC
:1015000000000000000000808080804040404020BB
:1015100020202010101010080F08080404040402F2
:101520000408101020204040414224180000000010
:1015300000000000000000000000000000000000AB
:101540000000000000010101000000000000000098
:10155000000000000000000000000000000000008B
:10156000000000000000000000000000000000007B
:10157000000000000000000000000000000000006B
:10158000000000000000000000000000000000005B
:10159000000000000000000000000000000000004B
:1015A000000000000000000000000000000000003B
:1015B000000000000000000000000000000000002B
:1015C000000000000000000000000000000000001B
:1015D000000000000000000000000000000000000B
:1015E00000000000000000000000000000000000FB
:1015F00000000000000000000000000000000000EB
:1016000000000000000000000000000000000000DA
:1016100000000000000000000000000000000000CA
:1016200000000000008080808040402010080402FC
:10163000040810204080800000000000000000002E
:10164000000000000000000000000000000000009A
:10165000000000000000000000000000000000008A
:10166000000000000000000000000000000000007A
:10167000000000000000000000000000000000006A
:10168000000000000000000000000000000000005A
:101690000000000000007E8202020404080808081E
:1016A00004040201010000000000000000008000AE
:1016B00000800000606000010102040408081010AE
:1016C000202040808080804040404020202020100A
:1016D00010101008080808040404040202020201A1
:1016E00001010100000000000000000000000000F7
:1016F00000000000000000000000000000000000EA
:1017000000000000000000000000000000000000D9
:101710000000000000C0300C0300000000000000CA
:101720000000000080868640404040212222201197
:10173000111010080808080404040404083040804C
:10174000800000018698600000000000000000009A
:101750000000000000000000000000000000000089
:101760000000000000000000000000000000000079
:101770000000000000000000000000000000000069
:1017800000000080808080404040402020202010C9
:10179000101010080F0808040404040204081010B4
:1017A00020204040414224180000000000000000BA
:1017B0000000000000000000000000000000000029
:1017C0000001010100000000000000000000000016
:1017D0000000000000000000000000000000000009
:1017E00000000000000000000000000000000000F9
:1017F00000000000000000000000000000000000E9
:1018000000000000000000000000000000000000D8
:1018100000000000000000000000000000000000C8
:1018200000000000000000000000000000000000B8
:1018300000000000000000000000000000000000A8
:101840000000000000000000000000000000000098
:101850000000000000000000000000000000000088
:101860000000000000000000000000000000000078
:101870000000000000000000000000000000000068
:101880000000000000000000000000000000000058
:101890000000000000000000000000000000000048
:1018A000008080808040402010080402040810203E
:1018B00040808000000000000000000000000000E8
:1018C0000000000000000000000000000000000018
:1018D0000000000000000000000000000000000008
:1018E00000000000000000000000000000000000F8
:1018F00000000000000000000000000000000000E8
:1019000000000000000000000000000000000000D7
:10191000001C34C404040408080808080404020174
:1019200001000000000000800000408080400000B6
:101930003030000101020204040408081020408035
:10194000808080404040402020202010101010084F
:101950000808080404040402020202010101010053
:101960000000000000000000000000000000000077
:101970000000000000000000000000000000000067
:101980000000000000000000000000000000000057
:1019900000E0180601000000000000000000000048
:1019A00080838340404040202121201010101008E7
:1019B0000808080404040404083040808000000182
:1019C0008698600000000000000000000000000099
:1019D0000000000000000000000000000000000007
:1019E00000000000000000000000000000000000F7
:1019F0000000000000000000000000000000008067
:101A0000808080404040402020202010101010088E
:101A10000F080804040404020408101020204040A9
:101A200041422418000000000000000000000000F7
:101A300000000000000000000000000000010101A3
:101A40000000000000000000000000000000000096
:101A50000000000000000000000000000000000086
:101A60000000000000000000000000000000000076
:101A70000000000000000000000000000000000066
:101A80000000000000000000000000000000000056
:101A90000000000000000000000000000000000046
:101AA0000000000000000000000000000000000036
:101AB0000000000000000000000000000000000026
:101AC0000000000000000000000000000000000016
:101AD0000000000000000000000000000000000006
:101AE00000000000000000000000000000000000F6
:101AF00000000000000000000000000000000000E6
:101B000000000000000000000000000000000000D5
:101B100000000000000000000000808040404020E5
:101B20002020202018040201020408102020404038
:101B300080800000000000000000000000000000A5
:101B40000000000000000000000000000000000095
:101B50000000000000000000000000000000000085
:101B60000000000000000000000000000000000075
:101B70000000000000000000000000000000000065
:101B8000000000000000000000000000060D31C150
:101B9000010101020202040402020100000000002F
:101BA00000000080000040808040000030300000D5
:101BB000000001020404080810204080808080405A
:101BC0004040402020202010101010080808080471
:101BD00004040402020202010101010000000000ED
:101BE00000000000000000000000000000000000F5
:101BF00000000000000000000000000000000000E5
:101C000000000000000000000000000000E01806D6
:101C100001000000000000000000000080838340FD
:101C2000404040202121201010101008080808040E
:101C3000040404040830408080000001869860009D
:101C40000000000000000000000000000000000094
:101C50000000000000000000000000000000000084
:101C60000000000000000000000000000000000074
:101C70000000000000000000000000808080804024
:101C80004040402020202010101010080F080804A9
:101C9000040404020408101020204040414224188B
:101CA0000000000000000000000000000000000034
:101CB0000000000000000000000101010000000021
:101CC0000000000000000000000000000000000014
:101CD0000000000000000000000000000000000004
:101CE00000000000000000000000000000000000F4
:101CF00000000000000000000000000000000000E4
:101D000000000000000000000000000000000000D3
:101D100000000000000000000000000000000000C3
:101D200000000000000000000000000000000000B3
:101D300000000000000000000000000000000000A3
:101D40000000000000000000000000000000000093
:101D5000000000000000000011241FBECFEFDAE0F9
:101D6000DEBFCDBF11E0A0E0B1E0E0EBF8E602C0DD
:101D700005900D92A838B107D9F725E0A8E8B1E0A1
:101D800001C01D92A934B207E1F70E9413280C94F8
:101D900005340C9400009C01892F99270097E9F0E5
:101DA0009C0188E0A90174E0569547957A95E1F782
:101DB0004115510511F08C5F9A01A901569547957F
:101DC000569547954115510511F08E5F9A0136954C
:101DD0002795232B09F08F5F089580E0E3CF909340
:101DE000FE048093FD040895909300058093FF0402
:101DF000089521E030E002C0220F331F8A95E2F7F8
:101E00008091FF0490910005822B932B0E94F40E89
:101E1000089521E030E002C0220F331F8A95E2F7D7
:101E2000209530958091FF049091000582239323A3
:101E30000E94F40E0895983098F5863088F5E82FC2
:101E4000F0E086E0989FE00DF11D11248E2F877041
:101E500041E001C0440F8A95EAF783E0F695E795E3
:101E60008A95E1F7EE0FFF1FEE0FFF1FE456FB4FC1
:101E700020E030E070E05191DF011197CB01022E9C
:101E800002C0969587950A94E2F78170819585271F
:101E9000842385278C932F5F3F4F2430310559F7DA
:101EA0000895983078F5863068F5E82FF0E086E000
:101EB000989FE00DF11D11249E2F977083E0F695F9
:101EC000E7958A95E1F7EE0FFF1FEE0FFF1FE4562F
:101ED000FB4F40E050E080E0219130E0092E02C04D
:101EE000369527950A94E2F721703327042E01C016
:101EF000220F0A94EAF7822B4F5F5F4F443051055F
:101F000059F7089580E008958091060590910505A0
:101F1000981301C008958F5F8770FACF90910105E3
:101F20008095892380930105282F277021110DC0EA
:101F3000891759F09091030592FF07C08695869501
:101F400086950E94090F1092010508958091FA0468
:101F500090910405892B5091FB045523C1F0909179
:101F60003C019923A9F09091020597FF11C09DE1D2
:101F700024E931E040E0F90160812F5F3F4F6111BA
:101F80004F5F9150C0F741111092FB04852B0895CB
:101F900095E02CE831E0EECF982F90958091FA04EF
:101FA00089238093FA0408957830B8F46630A8F451
:101FB0008430B0F4E62FF0E096E0799FE00DF11D5B
:101FC000112490E3899FE00DF11D1124EE0FFF1FF6
:101FD000E554F84F85919491089580E090E008953C
:101FE00081E0FCCF803E9105D1F1C8F481339105A9
:101FF00009F47FC048F48932910509F46FC08A3230
:10200000910509F47DC0089589339105E1F0823886
:102010009105C9F08533910509F45BC00895843EAC
:102020009105D1F148F4823E910531F1833E91054D
:1020300041F181EE90E00895863E9105C1F1873E21
:102040009105E1F10895209102052370211165C0E9
:102050002091030523FF14C089E290E008952091A8
:10206000020520FD43C03091030530FF09C024FF65
:102070004EC080E090E008952091020522FDF7CF48
:1020800008952091020522FD45C03091030530FDE1
:1020900044C024FFF5CFEDCF2091030521FFF0CF01
:1020A0008091020584FDE5CF87EE90E008952091B0
:1020B000020523FFE5CF24FDDCCFF6CF20910205FA
:1020C00023FD2EC03091030531FFE3CF84EE90E075
:1020D00008952091020525FFD3CFBECF20910205A0
:1020E00025FD21C02091030523FFCACF89E390E09D
:1020F00008952091020526FFC3CF8AE290E008955B
:102100002091020526FFBCCF81E390E0089583EE85
:1021100090E0089582EE90E0089580EE90E00895BA
:1021200086EE90E0089585E390E0AACF90910205B5
:1021300092FF10C041E0282F2471243009F040E0C4
:1021400031E0282F2871283009F030E0431711F0D2
:102150002CE0822793FF10C041E0282F2471243106
:1021600009F040E031E0282F2871283109F030E0F3
:10217000431711F02CE082273091030530FF10C087
:1021800051E0282F2171213009F050E041E0282F43
:102190002871283009F040E0541711F029E0822717
:1021A00031FF10C041E0282F2171213109F040E0BA
:1021B00031E0282F2871283109F030E0431711F061
:1021C00029E0822794FD877E08951F93CF93DF93A4
:1021D0000E94F20FEC01811522E5920708F053C02E
:1021E000811540E5940708F0DDC0803E9105F8F4C4
:1021F0008D3C910508F0AEC0883A910580F4853A8F
:10220000910508F099C08130910521F00497813A39
:10221000910550F4CE01DF91CF911F910895885A16
:1022200091094B9708F48BC0C0E0D0E0F3CF811543
:1022300050E49507F8F4C11580E2D80708F0CBC048
:10224000C83ED10538F3CE019A9581159F4160F7BC
:102250008D2F0E949610182FCE0199270E94F20F01
:10226000212F30E0322F2227E901CC27DF71C82B44
:10227000D92BD0CF99270E94F20FCC27DF70C82B23
:10228000D92BD06AC7CF803842E59407C8F580368D
:1022900052E5950708F067C0C03482E5D807B0F072
:1022A0008C2F86958695877020E2829FC00111242D
:1022B000C37021E030E0A90102C0440F551FCA9548
:1022C000E2F7EA01C82BD92BDC68A4CFC03252E573
:1022D000D50708F041C08C2F8695869520E2829F15
:1022E000C0011124C37021E030E0A90102C0440FF5
:1022F000551FCA95E2F7EA01C82BD92BDD688ACFB2
:10230000803C52E5950760F48F71C03AD24508F0E1
:102310003FC090E0982F8827EC01C46FD06A7ACF35
:10232000805C9245809708F07FCFDC2FCC27CC27AC
:10233000DF71C06FD06A6ECFA497D0646BCFC85ADC
:10234000D0E0CC0FDD1FCE5ADE4F0990D881C02DD2
:10235000D46460CFD0655ECFCF71D0E0DC2FCC27C6
:10236000C16FD06A57CF86958695877020E2829F8D
:10237000C0011124C37021E030E0A90102C0440F64
:10238000551FCA95E2F7EA01C82BD92BDA6842CF6C
:102390000E949610C82FD0E0DC2FCC27CC27DF710D
:1023A000D06238CF8F710E94961065E0D695C795A0
:1023B0006A95E1F7CF70D0E0DC2FCC27282F30E0F2
:1023C00084FF05C054E0220F331F5A95E1F7C22B5A
:1023D000D32BD0691FCF8D2F8F710E949610182F8D
:1023E000CE0199270E94F20F212F30E0322F2227B1
:1023F00022273F71282B392BE901D2CFA0E0B0E092
:10240000E4E0F2E10C94DD328C01E090FF04F09006
:1024100000058091FD049091FE04E82AF92ACFE09E
:10242000D0E0CC24C394D12CC6010C2E02C0880F5E
:10243000991F0A94E2F78E219F21892B49F4219755
:1024400098F7B12C8B2DCDB7DEB7E9E00C94F932BB
:10245000BC2EB8018C2F0E94D40F0E94E51001976A
:1024600071F3F0CF0F931F93CF93FC01858100810F
:102470001181882391F0662381F0C8010E94FE112A
:10248000C82F682FC8010E941B0FB8018C2F0E9413
:10249000D40FCF911F910F910895C8010E94510F41
:1024A000C82FF3CFCF93DF93D82FC92F0E94FE11EF
:1024B0006D2F7C2F0E94D40F0E94E510DF91CF91E9
:1024C0000895FC0184818823A1F0808191810E947C
:1024D0005212282F92959F70963091F060F4925F7F
:1024E0009F70923030F481E0203F79F030F4283E44
:1024F00030F080E004C09A5FF3CF243FD1F7089515
:1025000081E0283E18F0213FF9CF0895089580E03A
:102510000895F894E82FE295EF70F0E041A18F70F4
:1025200021E030E0B90102C0660F771F8A95E2F71B
:10253000CB01962F9095942391A392A1892B82A3EE
:1025400078940895282F35EB2303C001112497FFB9
:1025500004C080589109892F089580589F4FFBCF60
:102560008091B60480FD14C081FD14C082FD16C0A8
:102570008091B504882381F08E3180F420E5829F1C
:10258000C00111246EE170E00E941733862F089578
:1025900084E1089588E2089588E0089580E508952B
:1025A0008091B60480FD17C081FD17C082FD19C05F
:1025B0008091B404882399F0883298F428E0829FAF
:1025C000C001112468E270E00E94173361157105A3
:1025D00051F0862F089562E0FCCF64E0FACF61E00D
:1025E000F8CF68E0F6CF81E0089580916A048823EF
:1025F00059F0E0919204F0919304309729F0019002
:10260000F081E02D0995089580E00895A3E0B0E001
:10261000ECE0F3E10C94E4329C018091E0019091B4
:10262000E10182179307A1F03093E1012093E001CB
:10263000E0919204F0919304309751F083E0898304
:102640003B832A830084F185E02DCE010196099514
:102650002396E2E00C940033A3E0B0E0E2E3F3E180
:102660000C94E4329C018091DE019091DF0182178D
:102670009307A1F03093DF012093DE01E0919204F3
:10268000F0919304309751F084E089833B832A834F
:102690000084F185E02DCE01019609952396E2E0B4
:1026A0000C94003390913C019923C1F09091020564
:1026B00097FF14C0E82FE695E695E695803FF8F47D
:1026C000F0E0EE56FE4F877021E030E001C0220FAF
:1026D0008A95EAF78281822B82830895ACE8B1E083
:1026E000EFEF90E02D91821751F0EF3F19F4211197
:1026F00001C0E92F9F5F9630A9F7EF3F09F40895D5
:102700000E2E000CFF0BE657FE4FE6CF90913C01DA
:102710009923E1F09091020597FF18C0E82FE69504
:10272000E695E695803FF0F4F0E0EE56FE4F8770B8
:1027300021E030E0A90102C0440F551F8A95E2F75D
:10274000CA0180959281892382830895ECE8F1E0A3
:102750009191891303C0DF0111971C9251E0E23976
:10276000F507B1F70895A4E0B0E0E9EBF3E10C94CC
:10277000E4328FB7F8942091DA013091DB01409177
:10278000DC015091DD0129833A834B835C838FBF49
:1027900069817A818B819C812496E2E00C940033DC
:1027A000A4E0B0E0E6EDF3E10C94E43280916A0439
:1027B000882371F00E94B31369837A838B839C838F
:1027C00069817A818B819C812496E2E00C940033AC
:1027D0000E94B31369837A838B839C8380916C04FA
:1027E00090916D04A0916E04B0916F0429813A819B
:1027F0004B815C81280F391F4A1F5B1F29833A8355
:102800004B835C83DDCFA4E0B0E0E9E0F4E10C941D
:10281000E232462F572FBC012FB7F8948091DA018E
:102820009091DB01A091DC01B091DD012FBF8C0103
:102830009D01041B150B260B370BC901B80124960B
:10284000E4E00C94FE3287E797E7909301088093C9
:10285000000888E19AE00FB6F894A895809360008C
:102860000FBE90936000FFCF8091D9010895FC01C5
:102870009B018091CF019091D0018617970740F07E
:10288000672B29F48091E8008E778093E800C901D6
:1028900040E0009741F4411106C08091E80082FFBA
:1028A0002FC080E008952091EE012223A9F1253068
:1028B000A9F12091E80023FD2DC02091E80022FD20
:1028C000ECCF2091E80020FFE4CF3091F30020917D
:1028D000F200009719F02830310558F041E0283017
:1028E000310509F040E02091E8002E772093E800C0
:1028F000D0CF41914093F10001972F5F3F4FE9CF37
:102900008091EE01882341F0853041F08091E8000C
:1029100083FFC3CF81E0089582E0089583E00895A6
:102920008091C90187FF13C08091E80082FF06C033
:102930008091E8008B778093E80004C08091EE01DD
:102940008111F2CF08958091EE018823D9F380910F
:10295000E80080FFF8CF8091E8008E77ECCF2091DF
:10296000E4003091E50095E6A9018091EC008170CA
:10297000882331F08091E80080FF06C080E0089550
:102980002091E80022FD1BC08091EE01882391F088
:10299000853091F08091EB0085FD10C02091E4001E
:1029A0003091E5004217530701F391509111DCCFAC
:1029B00084E0089582E0089583E0089581E0089519
:1029C000E8EDF0E080818E7F80831092E20010922B
:1029D000DA001092E100A0EEB0E08C9181608C935F
:1029E00080818F77808319BCA7EDB0E08C918E7FBA
:1029F0008C9380818F7E80831092C8010895FC01A2
:102A0000AC014C5F5F4F8FEF91E32191822728E06B
:102A100030E087FF0BC0880F89272150310921152D
:102A20003105B9F7E417F50781F70895880FF5CF59
:102A3000CF93DF93682F2091120230911302D901B6
:102A4000AA53B2402E5B3F4F21303240C8F020E005
:102A500032E02A1B3B0B40913C0450913D04E62F91
:102A6000F92FCD012A0F3B1FC1E0D0E08217930759
:102A700050F050933D0440933C04DF91CF91089572
:102A80002CE732E0E8CF6491DC01A65CBD4F7C917D
:102A9000671779F06C93BC01A5E076956795AA95C8
:102AA000E1F7DE0102C0AA0FBB1F6A95E2F74A2BCD
:102AB0005B2B01963196DACF809146058B3028F05A
:102AC0008131F8F48FE69EE019C08091480590E0CE
:102AD000019665E070E00E9417338093480524E07A
:102AE00030E0281B390B4CE752E0249FC001259FA2
:102AF000900D349F900D112485519F4E0E94181502
:102B000008958091470590E0019681709927809300
:102B1000470521E030E0281B390B4CE752E0249FA9
:102B2000C001259F900D349F900D11248958964F18
:102B3000E5CF982FE42FE2709093E900891308C045
:102B4000762F242F50E0E11111C091E0980FF4CFBF
:102B50007091EC002091ED005091F00021FD06C035
:102B60009F5F973049F78093E90008953091EB001B
:102B70003E7F3093EB003091ED003D7F3093ED00D0
:102B80003091EB0031603093EB007093EC002093B8
:102B9000ED005093F0002091EE0027FDE1CF089565
:102BA000A0E0B0E0E6EDF5E10C94DE32C8EDD0E057
:102BB00088818F7E8883E7EDF0E08081816080836B
:102BC00084E082BF81E08093C80188818E7F888302
:102BD00002EE10E0F80110821092DA0081EEC82EA9
:102BE000D12CF601108288818F7788838881806854
:102BF000888388818F7D888319BC1092EE011092A2
:102C0000C7011092ED011092C60190EEE92EF12C51
:102C1000F70180818B7F808388818160888342E097
:102C200060E080E00E949915F60180818E7F8083AC
:102C3000F801808181608083808188608083F701D2
:102C400080818E7F8083888180618883CDB7DEB765
:102C5000E8E00C94FA32E09106059091050527E032
:102C6000E91302C080E00895AE2FB0E02E9FF0017E
:102C70001124E95FFA4F3181361306C030813813D1
:102C800003C03581341304C0FD013196E770E8CFED
:102C900081E008950F931F93CF93DF93EB018A0197
:102CA0009091EE01943079F58093E9008FEF909147
:102CB000E80095FD07C095ED9A95F1F70000815069
:102CC0008111F5CF8091E80085FF1DC00E94AF14EF
:102CD000811114C08091E80085FD06C08091E80054
:102CE0008E778093E800F2CF88818093F1000150C5
:102CF00011090115110511F02196ECCF8091E80022
:102D00008E778093E800DF91CF911F910F91089506
:102D1000CF93DF93D82FC92F48E050E0682F792F49
:102D200081E00E944A1688E0ED2FFC2FA1EDB1E072
:102D300001900D928A95E1F7DF91CF910895BC0142
:102D400040E250E082E00E944A160895BC0146E04D
:102D500050E082E00E944A160895BC0143E050E032
:102D600082E00E944A160895A0E0B0E0EAEBF6E1A6
:102D70000C94DC32F82EE92EB62EA72E8A01809113
:102D8000C401CC24C394D12C8A3018F48AE0C82E14
:102D9000D12CC1E0D0E06B2D7A2D8F2D9E2DF80126
:102DA0000995811116C02196CC16DD0694F0CC9FB2
:102DB000C001CD9F900D900D112420E030E045E33F
:102DC0004A95F1F700002F5F3F4F28173907B9F7F1
:102DD000E2CFCDB7DEB7EAE00C94F832909103056C
:102DE00092FB222720F9281779F080FB92F9909323
:102DF0000305609102057091030584E090E00E9454
:102E0000EF3382E00E948E0F089580913C01882369
:102E100059F18091020587FF27C00E94A60F809379
:102E2000930140E250E062E774E082E991E00E94A1
:102E30009D33892BC1F080E2E2E9F1E0A2E7B4E042
:102E400001900D928A95E1F7E0919204F09193043C
:102E5000309749F086E0809392010480F581E02D5F
:102E600082E991E0099508950E94A60F80938A0156
:102E700048E050E064E974E08AE891E00E949D3304
:102E8000892B89F388E0EAE8F1E0A4E9B4E0019055
:102E90000D928A95E1F7E0919204F09193043097B6
:102EA00011F30280F381E02D8AE891E0DBCF8823E3
:102EB00039F09091FA04892B8093FA040E94051747
:102EC0000895882321F00E94CC0F0E9405170895D1
:102ED000A8E0B0E0EEE6F7E10C94E3328091530411
:102EE00090915404A0915504B0915604BC01CD01B9
:102EF0000E94031411E0643671058105910578F193
:102F00000E94D013DC01CB010296A11DB11D898363
:102F10009A83AB83BC838091250190912601895AC5
:102F20009B4F20912401422F50E0253010F044E0C7
:102F300050E0BE016F5F7F4F0E94AA3382E090E0B5
:102F40000E944B32182F882351F00E94B3136093D4
:102F50005304709354048093550490935604812F26
:102F60002896E3E00C94FF32EF92FF921F93CF93E9
:102F7000DF93CDB7DEB729970FB6F894DEBF0FBE4B
:102F8000CDBF7B0180E090E00E944B32182F811171
:102F90001BC010E08091620490916304A0916404CE
:102FA000B0916504F70180839183A283B383812F5D
:102FB00029960FB6F894DEBF0FBECDBFDF91CF913B
:102FC0001F91FF90EF90089580911701482F50E0D6
:102FD000882311F041E050E06091180170911901CF
:102FE000695A7B4FCE0105960E94AA3380916604F0
:102FF00090916704A0916804B0916904BC01CD016F
:103000000E9403146E837F838887998764367105D5
:103010008105910538F488E594E00E94FF149D81B4
:103020008917B9F181E090E00E944B32882309F4BE
:10303000B0CF80911F01482F50E0853010F044E060
:1030400050E06091200170912101695A7B4FCE01BF
:1030500001960E94AA3388E594E00E94FF149D81A6
:10306000891397CF0E94B31360936604709367042B
:10307000809368049093690489819A81AB81BC81B3
:103080008093620490936304A0936404B0936504F6
:1030900081CF8091580490915904A0915A04B09125
:1030A0005B0489839A83AB83BC83E6CFA6E0B0E060
:1030B000ECE5F8E10C94DF328D838B01F42ED22EF7
:1030C0003E83DB018D919D910D90BC91A02DBC01A3
:1030D000CD010E94031469837A838B839C836436B9
:1030E00071058105910510F4FF2039F1BD81EB2EAA
:1030F0000B2E000CFF0888E0B802F0011124EC5EF2
:10310000FE4F81819281895A9B4F2081422F50E04E
:10311000222311F041E050E06D2D7E810E94AA3300
:10312000C7010E944B32882349F00E94B313D80193
:103130006D937D938D939C93139781E02696E7E0A2
:103140000C94FB32A1E0B0E0E8EAF8E10C94E43240
:1031500080914605898341E090916004981301C0F5
:1031600040E09E012F5F3F4F6FE474E083E00E94D8
:1031700056182196E2E00C940033A1E0B0E0E3ECB5
:10318000F8E10C94E43280914A048983209161042F
:1031900030E090E041E02817390709F440E09E0153
:1031A0002F5F3F4F6BE474E084E00E945618219635
:1031B000E2E00C940033A0E0B0E0E1EEF8E10C9422
:1031C000DE327C016B0164E670E088E70E940C301F
:1031D000EC0197FD12C000E010E0F701E00FF11FD5
:1031E000849164E670E00E947B30EC010F5F1F4F1A
:1031F000C016D10611F097FFF0CF0E94FD3081E09C
:10320000CD2B09F080E0CDB7DEB7E8E00C94FA32C0
:1032100080914404882369F080914A04882349F00E
:1032200062E070E08EEA90E00E94DB18811110925B
:103230004A040895A4E0B0E0E0E2F9E10C94E4323D
:10324000809144048823F9F00E94B313DC01CB0180
:10325000805F984DAF4FBF4F80933E0490933F04E3
:10326000A0934004B093410480914A0481110BC0A3
:1032700062E070E08CEA90E00E94DB18882319F08D
:1032800081E080934A042496E2E00C940033CF93CB
:10329000DF93682F81E06A3019F06D3031F480E0FF
:1032A0000E94C719DF91CF910895809112029091E9
:1032B000130226E0FC01AEEBB1E001900D922A95DD
:1032C000E1F7603E08F458C026E0FC0111922A950F
:1032D000E9F7C0911202D091130246E050E0BE011E
:1032E0008EEB91E00E949D339E012A533240892B40
:1032F00041F1C90145E0969587954A95E1F741E08E
:1033000050E0BA0102C0660F771F8A95E2F7CB0141
:1033100060913C0470913D04862B972BB9016B5F43
:103320007F4FE5E076956795EA95E1F702C0440F97
:10333000551F6A95E2F7842B952B90933D0480935B
:103340003C042A5F3F4F40911402642F70E0C90192
:103350000E94C032481B463010F4240F311D211545
:1033600072E0370710F020E030E0265C3D4F3093EC
:1033700013022093120296CFF6E06F9FB001112442
:1033800060557F4F46E050E00E949433A2CFCF9328
:10339000382FE0911202F0911302EA53F24020918B
:1033A0001402622F70E0CF010E94C032281B822FCE
:1033B000332361F066E00E940B33C82FC15010F434
:1033C000CF91089580E20E944719F8CF9F01280FFE
:1033D000311D2115324018F080E0E0E0F0E08E0F62
:1033E0009F2F911D865C9D4F909313028093120234
:1033F000E7CF0F931F93CF93DF93EC01FC01019074
:103400000020E9F78F0101501109C017D10728F0FA
:10341000DF91CF911F910F91089589910E944719D3
:10342000F4CFCF93DF93EC01FE018491811103C0AF
:10343000DF91CF9108950E9447192196F5CF1F92F1
:103440001FB61F9211248F939F93AF93BF938091C8
:10345000EC01811113C08091DA019091DB01A09100
:10346000DC01B091DD014196A11DB11D8093DA010F
:103470009093DB01A093DC01B093DD01BF91AF918C
:103480009F918F911F901FBE1F9018952FB7F89492
:103490008091DA019091DB01A091DC01B091DD0116
:1034A0002FBF08950E94461A2091B9043091BA04A2
:1034B000232B222321F080934704909348042091EA
:1034C000BB043091BC04232B222321F080934504BC
:1034D00090934604E0919204F0919304309749F060
:1034E00082E08093B7040680F781E02D87EB94E0BB
:1034F000099508952091B9049091BC043091BB04C2
:10350000662309F45AC04091BA04242B292B232B9B
:10351000222331F098E09093B50491E09093B404A5
:103520008D3C41F40E94B01281958093BA040E94B0
:10353000521A0895E2E3E80FE231C8F7F0E0E95FDC
:10354000FB4C0C946C330E94B012EFCF0E94B0126F
:1035500081958093B904EBCF0E94B012FACF0E94FC
:10356000D0128093BB04E3CF0E94D0128195F9CF93
:103570000E94D01281958093BC04D9CF0E94D012B2
:10358000FACF815D990B21E030E001C0220F8A95CE
:10359000EAF78091B804822B8093B804C8CF809159
:1035A000B60481608093B604C2CF8091B604826075
:1035B000F9CF8091B6048460F5CF8D3C59F48091A9
:1035C000BA0487FF0DC01092BA04222359F4109256
:1035D000B50408C08E3C81F48091BA0418169CF39F
:1035E000222381F08091BB049091BC04892B81112E
:1035F0009ECF1092B4049BCF8F3C41F427FFF0CFB5
:103600001092B9048091BA048823E0CF803D19F468
:103610001216B4F3E5CF893D29F413160CF7109276
:10362000BB04DECF8A3D19F437FFDACFF8CF8B3DEC
:1036300029F497FFD5CF1092BC04D2CF8C3D19F45A
:103640001916CCF3CDCF9FE2980F983090F4815D9E
:10365000990B41E050E0BA0102C0660F771F8A95CE
:10366000E2F7CB0180959091B80489238093B80448
:10367000B7CF8D3D31F48091B6048E7F8093B60430
:10368000AFCF8E3D21F48091B6048D7FF7CF8F3D73
:1036900009F0A6CF8091B6048B7FF0CFCF93C82FCF
:1036A0008823B1F18CEF8C0F813AA0F580913C0119
:1036B000882301F18091020587FF1CC0EC2FE6955D
:1036C000E695E695F0E0EE56FE4F828190E04C2FB5
:1036D000477021E030E002C0220F331F4A95E2F725
:1036E00082239323892B79F08C2F0E9486130E94CA
:1036F000051709C0ECE8F1E08191C817A9F321E0B2
:10370000E239F207C9F78C2F0E9452130E94051765
:10371000CF91089580E28C0F883068F4C77081E003
:1037200090E001C0880FCA95EAF7C091FA04C82B4F
:10373000C093FA04EBCF8BE58C0F833038F42C2F39
:103740002452330BC9010E940613E2CFE8E5EC0FC7
:10375000EB3150F4F0E0EE0FFF1FEE5AFE4F808188
:1037600091810E942C13D4CF83E38C0F833180F698
:1037700061E08C2F0E947A1ACBCF882381F19CEFD5
:10378000980F913A28F40E9486130E940517089515
:1037900090E2980F983050F4877091E001C0990F33
:1037A0008A95EAF7892F0E94CC0FEFCF9BE5980FFF
:1037B000933028F480E090E00E940613089598E585
:1037C000980F9B3128F480E090E00E942C1308951C
:1037D00093E3980F933118F460E00E947A1A0895E9
:1037E0001092FA0480913C01882339F180910205FE
:1037F00087FF23C0E4E9F1E08EE1DF011D928A95A5
:10380000E9F780E090E00E94061380E090E00E94DB
:103810002C13109204050E94051786E0E7EBF4E0F4
:10382000DF011D928A95E9F71092B5041092B40455
:103830001092B6040E94521A0895ECE8F1E086E076
:10384000DCCF0E94F01B2FEF84E39CE021508040EE
:103850009040E1F700C0000088E19AE00FB6F894CC
:10386000A895809360000FBE90936000FFCFAAE2FE
:10387000B0E0EDE3FCE10C94E33289EC91E0FC0173
:1038800001962091F100208321E0813D9207B9F754
:103890008091CA01893009F456C0C8F4823009F415
:1038A000B2C0833009F481C0813071F18091E800A9
:1038B00083FFE6C08091C9019091CA019A3008F057
:1038C000DFC0E92FF0E0E75EFB4C0C946C338A30EC
:1038D00009F488C08B3051F78091C901813231F7EA
:1038E0008091CD019091CE01892B01F78091E80064
:1038F000877F8093E8000E9490148091CB01809391
:103900003C010E94F01BD2CF8091C901813A71F62F
:103910008091E800877F8093E8008091CD019091AD
:10392000CE01892B61F060E080E090E070E00E94C1
:1039300037148091E8008B778093E800B7CF68E078
:1039400081ED91E0F3CF8091C901813209F0AECFD2
:103950008091CD019091CE01029708F0A7CF809180
:10396000E800877F8093E8008091E80082FF18C01C
:103970009091F3008091F200029731F48091F10070
:10398000813011F0863021F48091F1008093D901CB
:103990008091E8008B778093E8000E94901486CF96
:1039A0008091EE018111E0CF81CF8091C901813AF0
:1039B00009F07CCF8091CD019091CE01892B09F047
:1039C00075CF8091E800877F8093E8008091E800C0
:1039D00080FFFCCF80913C018093F1008091E80052
:1039E0008E77D9CF8091C901813209F05FCF809164
:1039F000E800877F8093E8000E9490148091CC01BA
:103A00008093C50153CF8091C901813A09F04ECF0F
:103A10008091E800877F8093E8008091E80080FF34
:103A2000FCCF8091C501D8CF803889F0823841F52C
:103A30008091CD018F70873018F58093E9008091D7
:103A4000EB0085FB882780F91092E90006C0809181
:103A5000C6019091ED01911182609091E800977FED
:103A60009093E8008093F1001092F1008091E800BB
:103A70008E7723C0811116C08091CB01813011F166
:103A80008091E80083FF0AC08091E800877F8093DF
:103A9000E8008091EB0080628093EB00AA96E3E05F
:103AA0000C94FF32823061F78091CB01882389F03A
:103AB0001092E9008091E800877F8093E8000E94DF
:103AC0009014DECF81E0933009F080E08093ED0127
:103AD000EFCF8091CD018F702FEF280F263080F629
:103AE0008093E9002091EB0020FFE2CF933031F486
:103AF0008091EB0080628093EB00DACF9091EB0035
:103B000090619093EB0021E030E0A90102C0440FE6
:103B1000551F8A95E2F74093EA001092EA008091DF
:103B2000EB008860E8CF8111ABCF1091CB011F77FC
:103B30008091E3008078812B8093E3008091E800FE
:103B4000877F8093E8000E9490148091E80080FFB6
:103B5000FCCF8091E30080688093E30083E0111143
:103B600001C082E08093EE018BCF8058823008F054
:103B700087CF4091CB015091CC014C3D83E0580759
:103B800099F583E08A838AE289834FB7F894DE014E
:103B9000139620E03EE051E2E32FF0E0509357000F
:103BA000849120FF03C082958F703F5F8F708A30B1
:103BB000C8F0895C90E08D939D932F5F243161F76D
:103BC0004FBF8091E800877F8093E8006AE270E051
:103BD000CE0101960E9437148091E8008B77809384
:103BE000E8004ECF805DE6CF2091CD013091CE012F
:103BF000852F99278330910509F160F48130910573
:103C000009F472C0029709F03BCF8BE390E0EAEE33
:103C1000F6E029C08132910509F45AC0829709F073
:103C20002FCF2115310509F469C02130310509F084
:103C300027CF86EB90E0E0EFF5E015C0CA019927A9
:103C40004130B1F18230910509F43AC0892B09F075
:103C500017CFE7E5F7E0E4918E2F90E0E7E5F7E096
:103C6000009709F40DCF2091E800277F2093E8000A
:103C70002091CF013091D0018217930708F49C0165
:103C800040E02115310509F03EC041113CC0809152
:103C9000E80082FDA1CF8091EE01882309F49CCF3A
:103CA000853009F499CF8091E80083FFF0CF94CF5D
:103CB000E5E4F7E0E4918E2F90E0E5E4F7E0D0CF83
:103CC000E7E3F7E0E4918E2F90E0E7E3F7E0C8CF79
:103CD0002115310571F02130310509F0D1CE89E08F
:103CE00090E0E5E1F7E0BFCF82E190E0E5E2F7E0C8
:103CF000BACF89E090E0ECEFF6E0B5CF84E490E055
:103D0000E6EAF6E0B0CF8091EE01882309F464CFB3
:103D1000853009F461CF8091E80083FD5DCF80910B
:103D2000E80082FDB4CF8091E80080FFAACF909197
:103D3000F3008091F2002115310519F088309105CA
:103D400050F041E0089709F040E08091E8008E775C
:103D50008093E80096CF44914093F1003196215032
:103D600031090196E8CF803809F08ACE8091E800C9
:103D7000877F8093E8008091C7018093F10076CE21
:103D800081117ECE1091CB01123008F079CE809156
:103D9000E800877F8093E8001093C7010E94901489
:103DA000112381F084E08093EE0142E061EC81E038
:103DB0000E94991542E261EC82E00E94991580917F
:103DC000EE015ECE8091E30087FDECCF81E0EBCF8A
:103DD0009C014FB7F8948091DA019091DB01A0919A
:103DE000DC01B091DD014FBF821B930B08950F934F
:103DF0001F93CF93DF93C62FD42F122F8823A9F0C0
:103E00006093F8040E94461A9093BD018093BC0110
:103E1000C77081E001C0880FCA95EAF70E94571762
:103E2000DF91CF911F910F9108958091F80468134D
:103E300038C08091BC019091BD010E94E81E883C71
:103E4000910578F5CD130FC0812F0E944E1B812F55
:103E50000E94BD1BD77081E001C0880FDA95EAF798
:103E60000E946117DDCFC77001E0802F01C0880F6D
:103E7000CA95EAF70E94611780E28D0F883050F4EE
:103E80008D2F877001C0000F8A95EAF7802F0E945E
:103E90005717DACF812F0E944E1B812F0E94BD1B26
:103EA000BFCFC77081E001C0880FCA95EAF7D8CFAD
:103EB000A0E0B0E0EEE5FFE10C94DE327C01FC0115
:103EC0008481882309F4F0C461E0C7010E943212A2
:103ED000EC01F70185819091FA04811112C0909351
:103EE000F704CD32D10509F407C1CF32D10509F06D
:103EF000BDC48091F404882309F46BC41092F404C7
:103F0000C3C4AE015A959E0133274115FFE45F07F4
:103F100028F0CF3FD10509F0E8F49E01B9016450C3
:103F200071096432710528F02B5231092E303105A8
:103F300088F4E091EF04F0E0EE0FFF1FE354FB4F35
:103F4000208131812F3F6FE7360721F02F5F3F4FF0
:103F500031832083F70121812093F3042081209372
:103F6000F20420E220933D01D093F104C093F004C9
:103F70009E01305221153042B8F5F70126812031DB
:103F800008F460C0FE01FF27CD33B8F5E55CF64FBD
:103F9000E491E0933D019093F704CF32D10509F00D
:103FA00007C49272992309F4CFC082E20E94CC0F19
:103FB00082EE0E944E1B8AE50E944E1B8AE50E94FB
:103FC000BD1B89E50E944E1B89E50E94BD1B8AE549
:103FD0000E944E1B8AE50E94BD1B82EE0E94BD1B03
:103FE00081E08093F40483C09E0130542115304158
:103FF00008F5F7012681203128F69093F7041092F6
:10400000F8049E0130572332310528F1C631ECE720
:10401000DE0709F0AEC09A7A81E0911101C080E01C
:104020008093F90489E2911185E30E9452130E9462
:1040300005172AC441155F4108F5FE01FF27CD335E
:1040400008F4A4CF9093F7041092F804CE0190578F
:10405000839708F089C084E090E00E94BB3390937E
:10406000030580930205FE01E150F047E232F105BD
:1040700008F09FC0ED5DFB4C0C946C339E01205A00
:10408000324520323105F0F2CD33D10568F09093FE
:10409000F704FE01E851FC47E730F10508F057C08E
:1040A000EB5BFB4C0C946C33FE01E55CF64FE4914A
:1040B000E0933D019093F704CD32D10509F06DCF27
:1040C0009272992309F440C08FE10E944E1B81E057
:1040D0008093F5040CC092729923B1F182E20E94A0
:1040E000CC0F8CE40E944E1B81E08093F6048091FB
:1040F000F7048093FA04C8C38091F504882309F477
:1041000068C38FE10E94BD1B1092F504BDC326E277
:1041100041EE61EE0E94F71EB7C327E245EE65EE61
:10412000F9CF26E241EE60EEF5CF27E245EE64EEF0
:10413000F1CF26E241EE62EEEDCF27E245EE66EEEC
:10414000E9CF28E241E0EBCF1092F80442C310928D
:10415000F8049E0130572332310508F47CCFC63174
:10416000FCE7DF0709F457CFCA352CE7D20709F47B
:1041700001C1CB353CE7D30708F0E2C0C1306CE7A2
:10418000D60709F4F5C0C3308CE7D80709F4EAC0B4
:10419000C115DC4709F01DC30E94F01B2FEF34E36B
:1041A0006CE0215030406040E1F700C000000E9408
:1041B00023148091020581608093020560910205BD
:1041C0007091030584E090E00E94EF330E94F01BA1
:1041D0005BC380910305886080930305EFCF8091D6
:1041E00002058260E9CF809102058460E5CF80916D
:1041F00002058860E1CF809103058160EDCF809159
:1042000003058260E9CF809102058061D5CF80915E
:1042100002058062D1CF809102058064CDCF0E94DB
:10422000F01B809102058068C7CF809102058C60E9
:10423000C3CF809103058360CFCF809102058E7F2D
:10424000BBCF80910305877FC7CF809102058D7F0B
:10425000B3CF809102058B7FAFCF80910205877F1E
:10426000ABCF809103058E7FB7CF809103058D7F03
:10427000B3CF809102058F7E9FCF809102058F7D05
:104280009BCF809102058F7B97CF0E94F01B80917E
:1042900002058F7791CF80910205837F8DCF80912A
:1042A00003058C7F99CF8091020582FB992790F9B5
:1042B00021E0922790FB82F990FB83F97DCF8091DA
:1042C0000305982F909591708E7F892B90FB81F933
:1042D00083CF90910205892F8F7B96FF80646CCFEE
:1042E0000E94F01B90910205892F97FB87F9805857
:1042F00063CF61E08EE090E00E94D1335FCF60E059
:10430000F9CF90910205892F8F7E94FF806154CF61
:1043100090910205892F8E7F90FF81604DCF909103
:104320000305892F877F93FF886056CF8091F9041A
:10433000811104C089E20E94861379CE85E3FBCF08
:10434000CB35ECE7DE07C1F0CC35DC4709F041C2E4
:104350008091030582FB882780F991E089270E94DC
:10436000EE1637C26FEF7FEF80E090E00E94EF33F0
:104370000E94211C81E0F3CF80E0F1CFC8010E94B0
:10438000510FC82F35C21C2F1F70C03110F012956D
:10439000107FDD20B9F0112369F080E28D0F8830A5
:1043A00010F0D11109C08091FA04812B8093FA0496
:1043B0000E9405178D2F40C080910405812B8093AA
:1043C0000405F6CF8D2F0E94BD1B1123E9F180E279
:1043D0008D0F883010F0D11104C0812F0E94CC0FB6
:1043E00006C01095809104058123809304050E94E6
:1043F00005172AC01C2F1F70C07FC03211F0129504
:10440000107FDD2349F0D13009F46BC0DD2009F4C1
:1044100077C0CC20C9F1CECF8091030582FD30C09A
:10442000DD2069F0112339F08091FA04812B80930B
:10443000FA040E94051780E00E944E1B05C080E030
:104440000E94BD1B1111C9CF0023A9F08091010565
:1044500080FD11C0F70115828695869586950E948C
:10446000F90EC7010E94581F809101058695869517
:1044700086950E94090F60E0C7010E94321214C2A3
:10448000DD2099F0C11004C0812F0E945717DCCFA6
:10449000F1E0CF12D9CF8091FB04912F9823191707
:1044A00099F2812B8093FB04CFCFC110CDCF812F08
:1044B0000E9461179091FB04812F8923882329F0A2
:1044C000812F809589238093FB048091FC04912F98
:1044D0009823992309F4B8CF109518231093FC045E
:1044E000B3CFDD2029F025E02C1508F4ADCFCCCFDB
:1044F00034E03C1508F4A8CF812F0E946117A4CFA7
:10450000CC20D1F3D93349F46FEF87EE93E06150BB
:1045100080409040E1F700C000008D2F0E94BD1B3D
:1045200093CF8C2F869586958370882369F0813090
:1045300009F08ACF8D2F9C2F9370D11002C080E09C
:1045400090E00E942C1380CF8D2F9C2F9370D11060
:1045500002C080E090E00E94061376CF6D2D8D2F73
:104560000E947A1A71CF8C2F8370811142C0D110B2
:104570002FC04D2F429546954770440F440F2D2F65
:104580002F7030E0042E02C0220F331F0A94E2F78E
:1045900080E090E0D4FF09C08FE090E002C0880F77
:1045A000991F4A95E2F780959095C695C695C37078
:1045B000C230B1F0C33089F04091FD045091FE0447
:1045C000C13049F0822B932B842395230E94EF0E58
:1045D0000E94F51239CF242B352B822B932BF6CF4B
:1045E000822B932B2091FD043091FE048227932788
:1045F000EDCFDD2091F1C0FFEBCF4D2F42954695D9
:104600004770440F440F2D2F2F7030E0042E02C04E
:10461000220F331F0A94E2F780E090E0D4FF09C034
:104620008FE090E002C0880F991F4A95E2F78095CD
:104630009095C695C695C370C230C1F0C33099F04D
:104640004091FF0450910005C13059F0822B932B0B
:10465000842395230E94F40EBBCF823008F4B8CF98
:10466000CCCF242B352B822B932BF4CF822B932B67
:104670002091FF043091000582279327EBCFCF7064
:10468000DD2039F08C2F0E94F90E8D2F0E945717D4
:104690009FCF8D2F0E9461178C2F0E94090F98CFFA
:1046A000D23FA1F178F4D03FC1F0D13F09F447C027
:1046B000DD2009F46BC0CC2009F465C08D2F0E9469
:1046C0004E1B86CFD33F49F1D43FA9F1D110F3CF90
:1046D000C1106AC08C2F8F71E0CFDD20A1F0E4E023
:1046E000EC1508F475CFCF7181E090E09C0102C019
:1046F000220F331FCA95E2F78091FF0490910005C5
:1047000082279327A7CF35E0C316EBCF8C2F8F716D
:10471000D110C3CF0E94F90E5BCF80E090E0DD2086
:1047200009F498CFCF7181E090E002C0880F991F03
:10473000CA95E2F78FCF8091030582FD06C08C2FCA
:104740008F71DD2009F4A9CFE5CFDD2089F0CF718D
:104750008C2F0E94F90E8091030582FF07C068E04C
:10476000C69FC00111248360809301058C2FD2CF96
:1047700081E00E948E0F81E08C1508F029CF82E045
:104780000E948E0F25CF8C2F8F71C4CFCC2009F4BF
:10479000A1CFD93349F49FEFE7EEF3E09150E04029
:1047A000F040E1F700C000008D2F0E94BD1B10CF2C
:1047B000CA32D10509F48FCCFE01E851FC47E7303D
:1047C000F10508F46DCC8111C2CCC631DC4709F487
:1047D000ADCDF701858100811181882309F4CECD0B
:1047E000C8010E94FE11C82F682FC8010E941B0F2C
:1047F000B8018C2F0E94D40F0E94E510D82FC92F2A
:10480000F701D580C680C2948FE0C822809101054F
:1048100087708823F9F00D2DDD20E9F0892F807F46
:10482000803461F080E28D0F8830A0F0892F807E87
:10483000803221F4D23070F0CC2061F080910305F9
:1048400082FF08C082E00E948E0F80910105877070
:1048500001E0811100E0EC2FE295EF70C03C08F020
:10486000F3CDF0E0E45BFB4C0C946C33CA32D10521
:1048700009F0A2CF8091F604882309F4AACF8CE432
:104880000E94BD1B1092F604809101058770882359
:1048900059F0F7018581882339F08091030582FF63
:1048A00003C082E00E948E0FCDB7DEB7E8E00C9423
:1048B000FA3280914505803178F48091440588234F
:1048C00059F0E09106052091050530914005409191
:1048D0003F0557E02E1301C008956E2F70E05E9FD4
:1048E000F0011124DF01A95FBA4F14968C9114973F
:1048F000882361F111968C911197831327C08C91B5
:10490000841324C015968C91159781111FC012969F
:104910008D919C91A0914105B09142058A1B9B0B02
:10492000883C910598F4809145058F708061809353
:104930004505E35FFA4F80818F70806180838FE34C
:1049400095E00E94581F0E94840F0895FB01319644
:10495000E770C0CFADE0B0E0E0EBF4E20C94D93208
:104960008C0186E0F801DE01189601900D928A957F
:10497000E1F7F801E080F580A280B380C4808FE386
:10498000882E85E0982E70904305711020C0CC20B1
:10499000D9F0FF2009F419C1C8010E9461128823CF
:1049A00009F413C187E0F801D40101900D928A95B2
:1049B000E1F7F1E0CF1206C080913F0590914005EC
:1049C0000E9452120E945924FF24F39451C0D090A7
:1049D000440580914105909142059501281B390BB2
:1049E000DD2009F4BAC0283C310508F090C0CC2085
:1049F00059F390914005C18080914505803108F0C0
:104A000058C0C91214C090913F059E1110C0F110FA
:104A10004AC08F708061809345058FE395E00E94C6
:104A2000581F80914505F8018683F12C21C0F110B3
:104A30003AC040E06C2D8E2D0E942B1640E06C2D6C
:104A40008E2D0E942B16F82E8111EFCF8885998527
:104A50000E945212292F22952F70903470F49F706B
:104A60002230A0F09923B1F0F8019681903190F4B2
:104A70008F2D2D96EDE00C94F5322A5F2F702230A9
:104A800068F0C8010E94581FFD2CF2CF992311F045
:104A9000882371F3805E883058F3F3CF803F40F372
:104AA000815F8230F9CF8091450581608093450513
:104AB000BCCFC91207C090913F059E1103C0FF20D3
:104AC00009F46CC0C8010E946112882309F47DC0FA
:104AD000FF2009F47AC080914505803278F020915A
:104AE0003F05309140053A832983BC82AB827D82A9
:104AF0001E828F83CE0101960E94581F87E0F80125
:104B0000AFE3B5E001900D928A95E1F75BCF80911C
:104B10004505803150F48FE395E00E94581F87E0EF
:104B2000F40111928A95E9F780CFCC2009F44CCF9B
:104B30002091400591812913C5CF90913F059E1189
:104B4000C1CFF110BFCF8683C8010E94581F87E0F4
:104B5000F40111928A95E9F737CF283C3105F8F630
:104B6000CC2009F431CFFF2081F190914005818163
:104B7000981321C080913F058E111DC0809145057D
:104B800080FD10C0803170F08683807F803F39F0D7
:104B90008681982F907F905F8F70892B8683C801C4
:104BA0000E94581F87E0F801AFE3B5E001900D9235
:104BB0008A95E1F709CFC8010E94611281119ECF49
:104BC00080914505816080934505C8010E94581F6A
:104BD000FBCEABE1B0E0EFEEF5E20C94E3324E8BAE
:104BE0005F8B688F798F8A8F9B8F9111109204054C
:104BF0001D8A86E0FE017696DE011F9601900D92D9
:104C00008A95E1F78B89882329F061E0CE010F9620
:104C10000E94321287E0FE013F96DE011896019055
:104C20000D928A95E1F7CE0108960E94AA2481117F
:104C30002BC087E0FE013896DE01119601900D929F
:104C40008A95E1F720910505409106058C8588231A
:104C5000D9F030E0C90101968770992750E0841798
:104C60009507E9F097E0929FD001939FB00D112432
:104C7000A95FBA4FFE01319601900D929A95E1F726
:104C8000809305050E94840F17E08091060590919E
:104C90000505891312C06B96E3E00C94FF320E9465
:104CA000F01B109205051092060587E0EFE3F5E092
:104CB000DF011D928A95E9F7E7CF189FC001112403
:104CC000895F9A4F0E94AA24882329F380910605C0
:104CD00090E001968770992780930605D6CFA6E0CD
:104CE000B0E0E5E7F6E20C94E2320E94461A8C014D
:104CF00080917004909171048017910779F0198266
:104D00001A820E94461ABC0149815A8180E090E0D3
:104D10000E94E92510937104009370042696E4E044
:104D20000C94FE32A0E1B0E0E8E9F6E20C94D9324E
:104D30001A821982FE01339686E0DF011D928A9560
:104D4000E9F78EE3A82E81E0B82E8E010F5F1F4F8A
:104D50004801EE24E394F12C28E4C22E21E0D22E67
:104D6000F50181915F018F3F09F441C0F894E82F6C
:104D7000E295EF70F0E021A18F70A70102C0440F0F
:104D8000551F8A95E2F7CA01922F982B91A392A101
:104D90008095892382A3789400C0E2E4F1E031E0B9
:104DA000712C21912F3F09F497C0A22FA295AF70CB
:104DB000A05EB0E08C9190E02F7002C09595879531
:104DC0002A95E2F78170811187C0832F782A330FEB
:104DD000CE16DF0631F7F501319780818F3F11F054
:104DE0000E94891250EA5A95F1F7D8017C920F5F20
:104DF0001F4FB2E4AB16B1E0BB0609F0B1CF48E0FB
:104E000050E0B40182EE91E00E949D330091EB01ED
:104E100010E001511E4F892B09F460C088E0F401B5
:104E2000A2EEB1E001900D928A95E1F781E08093C6
:104E3000BB010E94461A9093BA018093B9018091F8
:104E40006A04882309F4A3C01A8619861C861B8667
:104E50008091C4018A3008F063C07E01E9E0EE0E63
:104E6000F11C44EB57E1B701C8010E94B416670179
:104E7000882309F47AC048E657E1B701C8010E94C7
:104E8000B416882309F471C042EA58E1B701C80199
:104E90000E94B416882309F468C04DEB58E1B701AD
:104EA000C8010E94B416882309F45FC01092C4019F
:104EB0008091EA0190E044E050E0B60181519E4FBC
:104EC0000E949D3321E02093B801892B09F03FC057
:104ED0006096EDE00C94F53280E078CF8091BB01D4
:104EE000882309F4ACCF8091B9019091BA010E9456
:104EF000E81E059708F4A3CF44E050E062EE71E0AD
:104F0000C8010E949D33892B41F084E0E2EEF1E07C
:104F1000D80101900D928A95E1F71092BB018FCFD5
:104F20008091B6019091B7010E94E81E843F9140A4
:104F300008F093CF8091B801882351F2FE01399691
:104F400084E0DF011D928A95E9F71092B801E091A3
:104F5000EA01F0E0E151FE4F89859A85AB85BC8579
:104F600080839183A283B383B3CF8091C4018F3FA9
:104F700039F40E94461A9093B7018093B601DACFB4
:104F80008F5F8093C4018A3008F492CFF2CFF8018A
:104F900080819181A281B3818093580490935904B8
:104FA000A0935A04B0935B0488E594E00E94FF1438
:104FB00080935704C0905C04D0905D04E0905E0440
:104FC000F0905F048091B2019091B301A091B4017F
:104FD000B091B501C816D906EA06FB06B1F0C09239
:104FE000B201D092B301E092B401F092B5010E94F7
:104FF000B313C61AD70AE80AF90AC0926C04D09211
:105000006D04E0926E04F0926F04809160048093CE
:10501000460580916104882319F00E941A1958CF1F
:105020000E94081955CFCDB7DEB763970FB6F89435
:10503000DEBF0FBECDBF85B7806885BF85B78068EE
:1050400085BF84B7877F84BF0FB6F894A8958091F9
:105050006000886180936000109260000FBE80E85D
:1050600090E00FB6F89480936100909361000FBEBA
:1050700087E892E190938901809388010E94E0146F
:105080000E94D0158091E20084608093E2007894C1
:105090008091EE01882399F08091E9001091EC0055
:1050A0001795112717958F70182B1092E900809192
:1050B000E80083FD0E94371C1F701093E90082E016
:1050C00084BD93E095BD9AEF97BD80936E001092DA
:1050D0006C0410926D0410926E0410926F04809113
:1050E000D80080618093D8002AE12A95F1F700C0AA
:1050F0008091D90080FFDEC081E080936A048093B4
:105100006B04809300010E945D31809100018091C9
:10511000000191E08927880F880F8093EB0194E0CC
:10512000981B9093EA0184E90E94891286E60E9406
:10513000891287E90E94891286EC0E94891202E492
:1051400011E048E4E42E41E0F42ED8018D918D0168
:105150008F3F11F00E948912E016F106B1F788E046
:10516000EFEEF1E0DF01A82E1D92AA94E9F7E2EE3E
:10517000F1E0DF011D928A95E9F780E090E00E945E
:10518000BB33863E9E4F09F466C066EE7EEF80E03C
:1051900090E00E94EF3360E082E090E00E94D13323
:1051A00081E090E09093FE048093FD0461E083E051
:1051B00090E00E94D13360E074E184E090E00E94CE
:1051C000EF3360E086E090E00E94D1336FEF87E03C
:1051D00090E00E94D13340E050E0BA0188E090E0D6
:1051E0000E94E33360E084E290E00E94D13360E00B
:1051F00087E190E00E94D13360E08CE090E00E9473
:10520000D13360E08DE090E00E94D13319821A82A0
:105210001B821C821D821E821F82188648E050E07D
:1052200068E170E0CE0101960E94C13340E050E099
:10523000BA0180E290E00E94E33340E050E0BA011E
:105240008FE090E00E94E33340E050E0BA0183E158
:1052500090E00E94E33382E090E00E94B3338093B9
:10526000F70184E090E00E94BB33909303058093A4
:1052700002050E949226EFEFF6E721E0E150F040B0
:105280002040E1F700C000000E949226E0916B04EC
:1052900081E0E827EE0FEE0FF0E0E151FE4F808154
:1052A00081FF13C06FEF7FEF80E090E00E94EF334B
:1052B0000E9423140E94E0141092EE0110926A04DE
:1052C00010926B041092000120CF83E090E00E94C6
:1052D000B33390E00E94EF0E80916A04882309F4B2
:1052E0003FC193E080E290933A04809314020E94BD
:1052F00006306BE070E082E797E00E94DB188823BD
:1053000009F443C080913A0465E070E081FD2BC14F
:105310008DE697E00E94DB188823B9F16DE070E01C
:105320008BE597E00E94DB18882379F10E94B31384
:1053300069877A878B879C87DC01CB01805F984DDA
:10534000AF4FBF4F80933E0490933F04A09340041F
:10535000B0934104EAE3F2E080E092E0DF019C01D7
:105360001D9221503040E1F7F0931302E0931202B6
:105370008FEF9FEF90933D0480933C0481E08093F6
:10538000440480934A0410923B0480916A04811182
:1053900002C00E94603181E091E090939304809379
:1053A0009204CE0101968A8B9B8B8091EE01853011
:1053B00049F48091EE01853009F4D8C00E94F01BB9
:1053C0000E94F5120E94922608EF11E03FEEE32EB4
:1053D00031E0F32ED701F80191918D9120E0A22EBA
:1053E00022E0B22EAE16BF0609F414C19817A1F33D
:1053F00070906A04D12CD701CD907D01F801819085
:105400008F018C1449F18C24B12C99249394892D0B
:1054100088218823C1F07720B1F0B982DA820E9416
:10542000461A9C838B83F1E0FD8391E0892D8C21CA
:10543000811101C090E09E8349815A816B817C81FA
:105440008D810E94E925B394990CB6E0AB2EBA1079
:10545000DECFF8013197C082D394A8E0BA2EDB10DA
:10546000CACF0E94D013C0906A04C98A80914404B4
:10547000C110DBC08111E9C10E941A1986E0E7EB77
:10548000F4E0AA89BB8901900D928A95E1F7C0905A
:10549000B8040091B9041091BA04E090BB04F090F4
:1054A000BC041092B9041092BA041092BB0410927A
:1054B000BC04812F802B882379F080914704909140
:1054C00048040E94E81E9C018091B5048111DDC34F
:1054D0002B30310508F0DFC38F2D8E29882379F01A
:1054E00080914504909146040E94E81E9C018091A1
:1054F000B404811108C42B30310508F00AC480912E
:10550000B804C81216C08091B904882311F0801322
:1055100010C09091BA04992311F019130AC0209178
:10552000BC04211106C02091BB04211102C0892BAB
:1055300081110E94521A86E0EA89FB89A7EBB4E048
:1055400001900D928A95E1F70E94F512909149041D
:10555000891709F42ACF809349040E94B31325CFF9
:1055600092E080E8C0CE88E697E0D4CE8091EE014C
:10557000843031F10E9408191092EC0148E150E0AA
:1055800080E40FB6F894A895409360000FBE809316
:10559000600083B7817F846083BF83B7816083BFEE
:1055A0007894889583B78E7F83BF0FB6F894A895BB
:1055B00080916000886180936000109260000FBE4F
:1055C0008091ED01882309F4F4CE0E949226EFEE3B
:1055D000F1E087EF91E02191211104C08E179F0720
:1055E000D1F7E7CE80E189BD82E189BD09B400FE33
:1055F000FDCF8091D8008F7D8093D8008091E0000E
:1056000082608093E0008091E00081FDFCCF0E94E9
:10561000F01BCFCE9813ECCE0E946F26B0906A0498
:10562000B98ABB2009F4FEC0198AC090BD04D0908D
:10563000BE040D2C000CEE08FF0810910B01612E2A
:10564000712CEDEBF4E081E090E03296681679067B
:105650000CF0EFC020910602309107024091080241
:1056600050910902CA01B9010E9403144B015C0167
:105670009601A701F7FE04C020E030E040E050E0D2
:10568000A0E6BAEE0E94723369877A878B879C877F
:1056900088EC869D9001879D300D1124032E000C0F
:1056A000440B550B280D391D4A1D5B1DA5E0B0E0CC
:1056B0000E9472336D877E878F87988B69857A8584
:1056C0008B859C852D853E854F8558890E942B337F
:1056D00029013A0131EF431651046104710428F0A5
:1056E000F0EF4F2E512C612C712C49EC8416910453
:1056F000A104B1040CF18091EF0490E0019669E1FE
:1057000070E00E9417338093EF04880F991FFC010B
:10571000E354FB4F11821082183108F017E11F5F2C
:1057200010930B010E94B31360930602709307025B
:10573000809308029093090252E0C516D104E10457
:10574000F1041CF4412C512C320180910202909101
:105750000302A0910402B0910502BC01CD010E9498
:1057600003146B017C0195E6C916D104E104F10430
:1057700084F00E94B313609302027093030280933B
:1057800004029093050280914605809301024092A5
:10579000000210910102A0910002A11BBB0BA70106
:1057A00096010E947D3369877A878B879C8724E6E0
:1057B00030E040E050E00E944D33120F1093460558
:1057C00010914404112309F48CC0809142049091FB
:1057D00043040E94E81EC29708F445C00E94461A7E
:1057E00090934304809342048AE392E090931302DF
:1057F00080931202112309F485C084EB97E00E9484
:10580000111A8091FF04909100050E94CB0E823006
:1058100009F46FC0E8F4811169C08EEA97E00E9434
:10582000111A19C080914404882309F427CE10E08E
:10583000CCCF40815181052E000C660B770BC40E36
:10584000D51EE61EF71E019600CF10E0898BBDCF56
:10585000833009F451C00E94F51281FF50C08FE8D7
:1058600097E00E94111A80913C0490913D04892B8D
:10587000A9F080914404882389F080913B04811130
:105880000DC00E941A1920913C0430913D0480E023
:1058900061E070E02115310509F036C180914A04BC
:1058A0008823F9F00E94B31369877A878B879C87D6
:1058B00080913E0490913F04A0914004B091410436
:1058C000A984BA84CB84DC84A81AB90ACA0ADB0A80
:1058D0002FEFA216B206C2062FE7D20610F40E94DE
:1058E0000819A988AA2009F4C9CDC6CD88EA97E08D
:1058F00096CF82EA97E093CF8CE997E090CF82E849
:1059000097E0AFCF80914605882309F43EC0A09070
:105910000E02B0900F02C0901002D0901102C6018A
:10592000B5010E94031469877A878B879C87653647
:1059300071058105910560F00E94B31360930E021A
:1059400070930F0280931002909311020E945C15D5
:105950000E94B31360930A0270930B0280930C02AF
:1059600090930D028DE797E00E94111A80914605F1
:1059700090910C01981340C0909119029032E1F57A
:1059800085E192E00E94F9196ECF20910A023091D0
:105990000B0240910C0250910D02CA01B9010E9404
:1059A000031469877A878B879C87613177428105E9
:1059B0009105C0F680910E0290910F02A091100205
:1059C000B0911102BC01CD010E94031469877A874E
:1059D0008B879C87653671058105910518F20E94B9
:1059E000B31360930E0270930F0280931002909392
:1059F00011020E945C15B6CF80930C0190E2909347
:105A00001902A82EB12CC12CD12CA986BA86CB861E
:105A1000DC861092180278E1E72E72E0F72EC601BC
:105A2000B5012AE030E040E050E00E942B336D8762
:105A30007E878F87988B8D85805DAD84BE84CF8473
:105A4000D88800E010E0AB28AC28AD2871F567E1FC
:105A5000E62E62E0F62E8093170229873A874B875D
:105A60005C8769857A858B859C852AE030E040E0FB
:105A700050E00E942B336D877E878F87988B8D85B2
:105A8000805D2D853E854F85588901E010E0232BF0
:105A9000242B252B51F480E2A984BA84CB84DC84A6
:105AA000AB28AC28AD2809F080E3D7018E937D01A7
:105AB00069857A858B859C852AE030E040E050E05E
:105AC0000E942B3329873A874B875C870F5F1F4FD4
:105AD0000330110509F454CFCA01B9012AE030E0BE
