:100000000C94CC010C94E9010C94E9010C94EE1CC5
:100010000C94E9010C94E9010C94E9010C94E901B8
:100020000C94E9010C94E9010C94291B0C94011C1B
:100030000C94DE1A0C94E9010C94E9010C94E9018A
:100040000C94E9010C94E9010C94E9010C94E90188
:100050000C94E9010C94051B0C94E9010C94E90142
:100060000C94E9010C94E9010C94E9010C94E90168
:100070000C94E9010C94E9010C94E9010C94E90158
:100080000C94E9010C94E9010C94E9010C94E90148
:100090000C94E9010C94E9010C94E9010C94E90138
:1000A0000C94E9010C94E9010C94E90105010902A1
:1000B000A10185020901A1000509190129081500FE
:1000C0002501950875018102050109300931158165
:1000D000257F95027508810609381581257F9501D0
:1000E00075088106050C0A38021581257F95017572
:1000F000088106C0C005010980A101850319012AF4
:10010000B700150126B700950175108100C0050CD8
:100110000901A101850419012AA002150126A002E6
:10012000950175108100C005010906A1018506052C
:100130000719E029E71500250195087501810205D9
:1001400007190029EF1500250195F07501810205B9
:10015000081901290595057501910295017503910D
:1001600001C005010906A101050719E029E71500ED
:100170002501950875018102950175088101050722
:10018000190029FF150026FF009506750881000556
:10019000081901290515002501950575019102959C
:1001A0000175039101C009023B00020100A0FA0998
:1001B0000400000103010100092111010001224492
:1001C0000007058103080001090401000103000084
:1001D0000009211101000122B60007058203200059
:1001E0000112010002000000085346010001000155
:1001F0000200010C0343006F0072006E00650000F6
:1002000000100366006F006F007300740061006EE1
:10021000000000040309042B0014001A0008001554
:10022000001700392204001641074209430A00E082
:10023000001D001B00060019000500000000000062
:1002400000E20021522C002A00130012000C0018BA
:10025000001C00280038000F410E420D430B004FD8
:1002600000500037003600100011000000000000B0
:1002700000E30022522C0029003A003B003C003DE4
:1002800000000039223E003F00400041006300E0D2
:10029000004200430044004500360000000000001A
:1002A00000E20001002C002A00270226002500247D
:1002B0000055002800380023002200210054004F80
:1002C00000500020001F001E00570000000000002A
:1002D00000E300235227002900350022022F002FBF
:1002E00002331439223400350223022D021E02E0AB
:1002F00000640064022E0234142102000000000099
:1003000000E20023522C002A00270233002E003284
:10031000005500280038002D0030142F1454004FD1
:10032000005000351426022502570000000000008E
:1003300000E30001002C0029000000000000000084
:100340000000003922D900DB00CD00DC00BD00E058
:1003500000DA00CF00CE00D000BE00000000000098
:1003600000E20001002C00D500D400D200D300D15F
:1003700000A90028004B004D0052004A00AA0000CE
:10038000004E004F0051005000A800000000000087
:1003900000E30001002C000011241FBECFEFDAE0C3
:1003A000DEBFCDBF11E0A0E0B1E0E2E5FEE302C0B8
:1003B00005900D92A636B107D9F722E0A6E6B1E086
:1003C00001C01D92A739B207E1F70E94CF170C9424
:1003D000D61E0C94000090934F0280934E02089515
:1003E0009093510280935002089521E030E002C0C2
:1003F000220F331F8A95E2F78091500290915102AB
:10040000822B932B0E94F001089521E030E002C07E
:10041000220F331F8A95E2F7209530958091500284
:1004200090915102822393230E94F0010895983005
:1004300098F5863088F5E82FF0E086E0989FE00D8B
:10044000F11D11248E2F877041E001C0440F8A9561
:10045000EAF783E0F695E7958A95E1F7EE0FFF1F3F
:10046000EE0FFF1FEC5DFD4F20E030E070E051919A
:10047000DF011197CB01022E02C0969587950A9451
:10048000E2F7817081958527842385278C932F5FE0
:100490003F4F2430310559F70895983078F586306C
:1004A00068F5E82FF0E086E0989FE00DF11D11243B
:1004B0009E2F977083E0F695E7958A95E1F7EE0F0A
:1004C000FF1FEE0FFF1FEC5DFD4F40E050E080E0AE
:1004D000219130E0092E02C0369527950A94E2F763
:1004E00021703327042E01C0220F0A94EAF7822BD1
:1004F0004F5F5F4F4430510559F7089580E00895EC
:100500008091570290915602981301C008958F5F11
:100510008770FACF9091520280958923809352027E
:10052000282F277021110DC0891759F0909154027E
:1005300092FF07C08695869586950E9405021092C7
:100540005202089580914B0290915502892B50914F
:100550004C025523C1F0909123019923A9F0909169
:10056000530297FF11C09DE122E731E040E0F9011D
:1005700060812F5F3F4F61114F5F9150C0F7411174
:1005800010924C02852B089595E02AE631E0EECFDB
:10059000982F909580914B02892380934B02089568
:1005A0007830B8F46630A8F48430B0F4E62FF0E088
:1005B00096E0799FE00DF11D112490E3899FE00DF5
:1005C000F11D1124EE0FFF1FE95EFD4F85919491FF
:1005D000089580E090E0089581E0FCCF803E910591
:1005E000D1F1C8F48133910509F47FC048F4893210
:1005F000910509F46FC08A32910509F47DC0089510
:1006000089339105E1F082389105C9F08533910570
:1006100009F45BC00895843E9105D1F148F4823E0F
:10062000910531F1833E910541F181EE90E008950D
:10063000863E9105C1F1873E9105E1F10895209133
:1006400053022370211165C02091540223FF14C06E
:1006500089E290E008952091530220FD43C030913B
:10066000540230FF09C024FF4EC080E090E008959E
:100670002091530222FDF7CF08952091530222FDCD
:1006800045C03091540230FD44C024FFF5CFEDCF7A
:100690002091540221FFF0CF8091530284FDE5CFD9
:1006A00087EE90E008952091530223FFE5CF24FDCB
:1006B000DCCFF6CF2091530223FD2EC0309154029F
:1006C00031FFE3CF84EE90E008952091530225FF9F
:1006D000D3CFBECF2091530225FD21C020915402DB
:1006E00023FFCACF89E390E008952091530226FFAB
:1006F000C3CF8AE290E008952091530226FFBCCF39
:1007000081E390E0089583EE90E0089582EE90E01A
:10071000089580EE90E0089586EE90E0089585E3D8
:1007200090E0AACF9091530292FF10C041E0282F91
:100730002471243009F040E031E0282F287128305E
:1007400009F030E0431711F02CE0822793FF10C02E
:1007500041E0282F2471243109F040E031E0282FB6
:100760002871283109F030E0431711F02CE082277E
:100770003091540230FF10C051E0282F21712130F8
:1007800009F050E041E0282F2871283009F040E0BE
:10079000541711F029E0822731FF10C041E0282FC3
:1007A0002171213109F040E031E0282F28712831F2
:1007B00009F030E0431711F029E0822794FD877E8D
:1007C00008951F93CF93DF930E94EE02EC018115F1
:1007D00022E5920708F053C0811540E5940708F020
:1007E000DDC0803E9105F8F48D3C910508F0AEC067
:1007F000883A910580F4853A910508F099C08130D6
:10080000910521F00497813A910550F4CE01DF91D2
:10081000CF911F910895885A91094B9708F48BC086
:10082000C0E0D0E0F3CF811550E49507F8F4C1158E
:1008300080E2D80708F0CBC0C83ED10538F3CE011E
:100840009A9581159F4160F78D2F0E949203182F72
:10085000CE0199270E94EE02212F30E0322F22276D
:10086000E901CC27DF71C82BD92BD0CF99270E9463
:10087000EE02CC27DF70C82BD92BD06AC7CF8038C7
:1008800042E59407C8F5803652E5950708F067C041
:10089000C03482E5D807B0F08C2F86958695877096
:1008A00020E2829FC0011124C37021E030E0A90141
:1008B00002C0440F551FCA95E2F7EA01C82BD92B95
:1008C000DC68A4CFC03252E5D50708F041C08C2FB8
:1008D0008695869520E2829FC0011124C37021E095
:1008E00030E0A90102C0440F551FCA95E2F7EA01A2
:1008F000C82BD92BDD688ACF803C52E5950760F480
:100900008F71C03AD24508F03FC090E0982F8827F9
:10091000EC01C46FD06A7ACF805C9245809708F072
:100920007FCFDC2FCC27CC27DF71C06FD06A6ECF92
:10093000A497D0646BCFC85AD0E0CC0FDD1FC05D48
:10094000DE4F0990D881C02DD46460CFD0655ECFD2
:10095000CF71D0E0DC2FCC27C16FD06A57CF8695FE
:100960008695877020E2829FC0011124C37021E028
:1009700030E0A90102C0440F551FCA95E2F7EA0111
:10098000C82BD92BDA6842CF0E949203C82FD0E03F
:10099000DC2FCC27CC27DF71D06238CF8F710E943B
:1009A000920365E0D695C7956A95E1F7CF70D0E0E0
:1009B000DC2FCC27282F30E084FF05C054E0220F25
:1009C000331F5A95E1F7C22BD32BD0691FCF8D2F40
:1009D0008F710E949203182FCE0199270E94EE0278
:1009E000212F30E0322F222722273F71282B392B4D
:1009F000E901D2CFA0E0B0E0E0E0F5E00C94121EF7
:100A00008C01E0905002F090510280914E02909142
:100A10004F02E82AF92ACFE0D0E0CC24C394D12CAD
:100A2000C6010C2E02C0880F991F0A94E2F78E218E
:100A30009F21892B49F4219798F7B12C8B2DCDB7A5
:100A4000DEB7E9E00C942E1EBC2EB8018C2F0E945C
:100A5000D0020E94E103019771F3F0CF0F931F932F
:100A6000CF93FC01858100811181882391F0662359
:100A700081F0C8010E94FA04C82F682FC8010E94A3
:100A80001702B8018C2F0E94D002CF911F910F91B5
:100A90000895C8010E944D02C82FF3CFCF93DF9372
:100AA000D82FC92F0E94FA046D2F7C2F0E94D002EC
:100AB0000E94E103DF91CF910895FC018481882396
:100AC000A1F0808191810E944E05282F92959F7000
:100AD000963091F060F4925F9F70923030F481E034
:100AE000203F79F030F4283E30F080E004C09A5F77
:100AF000F3CF243FD1F7089581E0283E18F0213F3D
:100B0000F9CF0895089580E00895F894E82FE295CC
:100B1000EF70F0E041A18F7021E030E0B90102C038
:100B2000660F771F8A95E2F7CB01962F9095942355
:100B300091A392A1892B82A378940895282F35EB55
:100B40002303C001112497FF04C080589109892F05
:100B5000089580589F4FFBCF80913E0280FD14C0C6
:100B600081FD14C082FD16C080913D02882381F072
:100B70008E3180F420E5829FC00111246EE170E087
:100B80000E94401E862F089584E1089588E208950A
:100B900088E0089580E5089580913E0280FD17C0A9
:100BA00081FD17C082FD19C080913C02882399F015
:100BB000883298F428E0829FC001112468E270E036
:100BC0000E94401E6115710551F0862F089562E064
:100BD000FCCF64E0FACF61E0F8CF68E0F6CF81E0C7
:100BE00008958091F201882359F0E0911A02F09162
:100BF0001B02309729F00190F081E02D09950895AE
:100C000080E00895A3E0B0E0E8E0F6E00C94191E5F
:100C10009C018091B4019091B50182179307A1F0D6
:100C20003093B5012093B401E0911A02F0911B02B8
:100C3000309751F083E089833B832A830084F185D8
:100C4000E02DCE01019609952396E2E00C94351E25
:100C5000A3E0B0E0EEE2F6E00C94191E9C01809156
:100C6000B2019091B30182179307A1F03093B301C1
:100C70002093B201E0911A02F0911B02309751F0DB
:100C800084E089833B832A830084F185E02DCE01B3
:100C9000019609952396E2E00C94351E909123016C
:100CA0009923C1F09091530297FF14C0E82FE69565
:100CB000E695E695803FF8F4F0E0E059FE4F877046
:100CC00021E030E001C0220F8A95EAF78281822B71
:100CD00082830895AAE6B1E0EFEF90E02D918217AC
:100CE00051F0EF3F19F4211101C0E92F9F5F9630B9
:100CF000A9F7EF3F09F408950E2E000CFF0BE859F9
:100D0000FE4FE6CF909123019923E1F09091530299
:100D100097FF18C0E82FE695E695E695803FF0F43A
:100D2000F0E0E059FE4F877021E030E0A90102C0F9
:100D3000440F551F8A95E2F7CA0180959281892355
:100D400082830895EAE6F1E09191891303C0DF01FF
:100D500011971C9251E0E037F507B1F708952FB7CE
:100D6000F8948091DD019091DE01A091DF01B091B6
:100D7000E0012FBF08950E94AF06209141023091FB
:100D80004202232B222321F08093D6019093D70196
:100D90002091430230914402232B222321F080939F
:100DA000D4019093D501E0911A02F0911B02309783
:100DB00049F082E080933F020680F781E02D8FE3C7
:100DC00092E009950895209141029091440230915A
:100DD0004302662309F45AC040914202242B292B76
:100DE000232B222331F098E090933D0291E09093E1
:100DF0003C028D3C41F40E94AC05819580934202F7
:100E00000E94BB060895E2E3E80FE231C8F7F0E084
:100E1000E852F14E0C94541E0E94AC05EFCF0E9494
:100E2000AC05819580934102EBCF0E94AC05FACFCF
:100E30000E94CC0580934302E3CF0E94CC058195AC
:100E4000F9CF0E94CC05819580934402D9CF0E94AE
:100E5000CC05FACF815D990B21E030E001C0220F73
:100E60008A95EAF780914002822B80934002C8CF96
:100E700080913E02816080933E02C2CF80913E020B
:100E80008260F9CF80913E028460F5CF8D3C59F4A9
:100E90008091420287FF0DC010924202222359F432
:100EA00010923D0208C08E3C81F4809142021816D7
:100EB0009CF3222381F08091430290914402892B7C
:100EC00081119ECF10923C029BCF8F3C41F427FFB3
:100ED000F0CF10924102809142028823E0CF803D02
:100EE00019F41216B4F3E5CF893D29F413160CF763
:100EF00010924302DECF8A3D19F437FFDACFF8CFE4
:100F00008B3D29F497FFD5CF10924402D2CF8C3D70
:100F100019F41916CCF3CDCF9FE2980F983090F4C6
:100F2000815D990B41E050E0BA0102C0660F771F66
:100F30008A95E2F7CB0180959091400289238093B6
:100F40004002B7CF8D3D31F480913E028E7F809379
:100F50003E02AFCF8E3D21F480913E028D7FF7CFD0
:100F60008F3D09F0A6CF80913E028B7FF0CFA4E0A9
:100F7000B0E0EDEBF7E00C94191E8FB7F8942091D8
:100F8000DD013091DE014091DF015091E0012983C4
:100F90003A834B835C838FBF69817A818B819C818B
:100FA0002496E2E00C94351EA4E0B0E0EAEDF7E010
:100FB0000C94191E8091F201882371F00E94B707EA
:100FC00069837A838B839C8369817A818B819C81FD
:100FD0002496E2E00C94351E0E94B70769837A8359
:100FE0008B839C838091F4019091F501A091F6018F
:100FF000B091F70129813A814B815C81280F391F1B
:101000004A1F5B1F29833A834B835C83DDCF9C019E
:101010004FB7F8948091DD019091DE01A091DF013E
:10102000B091E0014FBF821B930B089587E797E7CC
:10103000909301088093000888E19AE00FB6F89435
:10104000A895809360000FBE90936000FFCF8091C1
:10105000B1010895FC019B018091A7019091A80125
:101060008617970740F0672B29F48091E8008E7768
:101070008093E800C90140E0009741F4411106C0A7
:101080008091E80082FF2FC080E008952091C20186
:101090002223A9F12530A9F12091E80023FD2DC0DC
:1010A0002091E80022FDECCF2091E80020FFE4CF62
:1010B0003091F3002091F200009719F028303105AB
:1010C00058F041E02830310509F040E02091E80077
:1010D0002E772093E800D0CF41914093F100019703
:1010E0002F5F3F4FE9CF8091C201882341F08530C7
:1010F00041F08091E80083FFC3CF81E0089582E052
:10110000089583E008958091A10187FF13C0809125
:10111000E80082FF06C08091E8008B778093E800AA
:1011200004C08091C2018111F2CF08958091C20163
:101130008823D9F38091E80080FFF8CF8091E80000
:101140008E77ECCF2091E4003091E50095E6A9017F
:101150008091EC008170882331F08091E80080FF5D
:1011600006C080E008952091E80022FD1BC0809118
:10117000C201882391F0853091F08091EB0085FDCC
:1011800010C02091E4003091E5004217530701F3AD
:1011900091509111DCCF84E0089582E0089583E0BE
:1011A000089581E00895E8EDF0E080818E7F8083EE
:1011B0001092E2001092DA001092E100A0EEB0E08E
:1011C0008C9181608C9380818F77808319BCA7ED8F
:1011D000B0E08C918E7F8C9380818F7E8083109283
:1011E000A0010895FC01AC014C5F5F4F8FEF91E3CC
:1011F0002191822728E030E087FF0BC0880F8927E4
:101200002150310921153105B9F7E417F50781F7A8
:101210000895880FF5CF982FE42FE2709093E9009E
:10122000891308C0762F242F50E0E11111C091E0FE
:10123000980FF4CF7091EC002091ED005091F000E8
:1012400021FD06C09F5F973049F78093E90008951C
:101250003091EB003E7F3093EB003091ED003D7F0D
:101260003093ED003091EB0031603093EB007093E0
:10127000EC002093ED005093F0002091EE0027FD4C
:10128000E1CF0895A0E0B0E0E8E4F9E00C94131E8B
:10129000C8EDD0E088818F7E8883E7EDF0E0808123
:1012A0008160808384E082BF81E08093A001888197
:1012B0008E7F888302EE10E0F80110821092DA002F
:1012C00081EEC82ED12CF601108288818F77888319
:1012D00088818068888388818F7D888319BC10927B
:1012E000C20110929F011092C10110929E0190EED6
:1012F000E92EF12CF70180818B7F808388818160CA
:10130000888342E060E080E00E940B09F601808162
:101310008E7F8083F80180818160808380818860F6
:101320008083F70180818E7F8083888180618883BC
:10133000CDB7DEB7E8E00C942F1EE09157029091F4
:10134000560227E0E91302C080E00895AE2FB0E016
:101350002E9FF0011124E85AFD4F3181361306C04B
:101360003081381303C03581341304C0FD01319638
:10137000E770E8CF81E008950F931F93CF93DF9339
:10138000EB018A019091C201943079F58093E900D4
:101390008FEF9091E80095FD07C095ED9A95F1F7D4
:1013A000000081508111F5CF8091E80085FF1DC0BC
:1013B0000E94A208811114C08091E80085FD06C03A
:1013C0008091E8008E778093E800F2CF8881809347
:1013D000F100015011090115110511F02196ECCF12
:1013E0008091E8008E778093E800DF91CF911F9184
:1013F0000F910895CF93DF93D82FC92F48E050E085
:10140000682F792F81E00E94BC0988E0ED2FFC2F26
:10141000A9EAB1E001900D928A95E1F7DF91CF91B1
:101420000895BC0140E250E082E00E94BC090895AA
:10143000BC0146E050E082E00E94BC090895BC0176
:1014400043E050E082E00E94BC090895A0E0B0E0D3
:10145000ECE2FAE00C94111EF82EE92EB62EA72E1F
:101460008A0180919C01CC24C394D12C8A3018F439
:101470008AE0C82ED12CC1E0D0E06B2D7A2D8F2DC3
:101480009E2DF8010995811116C02196CC16DD0616
:1014900094F0CC9FC001CD9F900D900D112420E0C1
:1014A00030E045E34A95F1F700002F5F3F4F2817E2
:1014B0003907B9F7E2CFCDB7DEB7EAE00C942D1EBD
:1014C0009091540292FB222720F9281779F080FB93
:1014D00092F990935402609153027091540284E007
:1014E00090E00E94AA1E82E00E948A0208958091E4
:1014F0002301882359F18091530287FF27C00E945E
:10150000A2028093710140E250E06AEF71E080E74F
:1015100091E00E94C01E892BC1F080E2E0E7F1E07B
:10152000AAEFB1E001900D928A95E1F7E0911A02DD
:10153000F0911B02309749F086E08093700104809F
:10154000F581E02D80E791E0099508950E94A202BF
:101550008093680148E050E06CE172E088E691E039
:101560000E94C01E892B89F388E0E8E6F1E0ACE137
:10157000B2E001900D928A95E1F7E0911A02F091A4
:101580001B02309711F30280F381E02D88E691E091
:10159000DBCFCF93C82F8823B1F18CEF8C0F813A2A
:1015A000A0F580912301882301F18091530287FFE8
:1015B0001CC0EC2FE695E695E695F0E0E059FE4F6D
:1015C000828190E04C2F477021E030E002C0220F72
:1015D000331F4A95E2F782239323892B79F08C2FCE
:1015E0000E9482060E94770A09C0EAE6F1E0819132
:1015F000C817A9F321E0E037F207C9F78C2F0E9442
:101600004E060E94770ACF91089580E28C0F8830B1
:1016100068F4C77081E090E001C0880FCA95EAF7CE
:10162000C0914B02C82BC0934B02EBCF8BE58C0FC4
:10163000833038F42C2F2452330BC9010E94020648
:10164000E2CFE8E5EC0FEB3150F4F0E0EE0FFF1FD6
:10165000E05DFE4F808191810E942806D4CF83E314
:101660008C0F833180F661E08C2F0E94E306CBCF94
:10167000882381F19CEF980F913A28F40E9482060A
:101680000E94770A089590E2980F983050F487707E
:1016900091E001C0990F8A95EAF7892F0E94C8024C
:1016A000EFCF9BE5980F933028F480E090E00E9404
:1016B0000206089598E5980F9B3128F480E090E0A9
:1016C0000E942806089593E3980F933118F460E080
:1016D0000E94E3060895882339F090914B02892BEC
:1016E00080934B020E94770A0895882321F00E947C
:1016F000C8020E94770A08950F931F93CF93DF9338
:10170000C62FD42F122F8823A9F0609349020E947C
:10171000AF0690939B0180939A01C77081E001C04E
:10172000880FCA95EAF70E946B0BDF91CF911F914A
:101730000F91089580914902681338C080919A01F1
:1017400090919B010E940708883C910578F5CD1384
:101750000FC0812F0E94C90A812F0E94380BD770B9
:1017600081E001C0880FDA95EAF70E94750BDDCFA2
:10177000C77001E0802F01C0880FCA95EAF70E9468
:10178000750B80E28D0F883050F48D2F877001C06B
:10179000000F8A95EAF7802F0E946B0BDACF812F1A
:1017A0000E94C90A812F0E94380BBFCFC77081E009
:1017B00001C0880FCA95EAF7D8CF10924B028091EA
:1017C0002301882339F18091530287FF23C0E2E788
:1017D000F1E08EE1DF011D928A95E9F780E090E06B
:1017E0000E94020680E090E00E94280610925502B6
:1017F0000E94770A86E0EFE3F2E0DF011D928A950E
:10180000E9F710923D0210923C0210923E020E94B3
:10181000BB060895EAE6F1E086E0DCCF0E94DD0B2E
:101820002FEF84E39CE0215080409040E1F700C01E
:10183000000088E19AE00FB6F894A89580936000C4
:101840000FBE90936000FFCFA0E0B0E0EAE2FCE0C2
:101850000C94131E7C01FC018481882309F44FC081
:1018600061E0C7010E942E05EC0190914B0290931C
:101870004802F7018581CD32D10509F445C0CF3248
:10188000D10509F459C0CA32D10559F0FE01E85119
:10189000FC47E730F10508F0E7C0E651F14E0C9443
:1018A000541E882391F09272992309F48EC082E22B
:1018B0000E94C8028CE40E94C90A81E0809347021A
:1018C0008091480280934B020AC08091470288238E
:1018D00009F47DC08CE40E94380B1092470280917D
:1018E00052028770882359F0F7018581882339F0E7
:1018F0008091540282FF03C082E00E948A02CDB729
:10190000DEB7E8E00C942F1E882359F092729923D9
:1019100009F45BC08FE10E94C90A81E0809346020E
:10192000CFCF80914602882309F451C08FE10E94F5
:10193000380B10924602D3CF882319F19272992363
:1019400009F443C082E20E94C80282EE0E94C90AE2
:101950008AE50E94C90A8AE50E94380B89E50E943F
:10196000C90A89E50E94380B8AE50E94C90A8AE5FE
:101970000E94380B82EE0E94380B81E08093450272
:101980009FCF80914502882311F110924502A7CF85
:1019900026E241EE61EE0E947C0BA1CF27E245EEEC
:1019A00065EEF9CF26E241EE60EEF5CF27E245EE97
:1019B00064EEF1CF26E241EE62EEEDCF27E245EE96
:1019C00066EEE9CF28E241E0EBCF10924902F70141
:1019D000858100811181882309F47EC1C8010E949C
:1019E000FA04C82F682FC8010E941702B8018C2F73
:1019F0000E94D0020E94E103D82FC92FF701D580A1
:101A0000C680C2948FE0C8228091520287708823DA
:101A1000F9F00D2DDD20E9F0892F807F803461F011
:101A200080E28D0F8830A0F0892F807E803221F4F3
:101A3000D23070F0CC2061F08091540282FF08C057
:101A400082E00E948A0280915202877001E0811137
:101A500000E0EC2FE295EF70C03C08F0A3C1F0E08D
:101A6000EF50F14E0C94541E81110DC0C631DC476D
:101A700009F0ADCF80914A02882309F4EFC085E3D5
:101A80000E948206E8C0109249029E01305723321C
:101A9000310508F0CFC084E090E00E94761E90935C
:101AA000540280935302FE01E150F047E232F10507
:101AB00020F4E350F14E0C94541E80915302816047
:101AC00080935302609153027091540284E090E03D
:101AD0000E94AA1E0E94DD0B02CF809154028860F2
:101AE00080935402EFCF809153028260E9CF8091BE
:101AF00053028460E5CF809153028860E1CF8091EA
:101B000054028160EDCF809154028260E9CF8091D0
:101B100053028061D5CF809153028062D1CF8091F2
:101B200053028064CDCF0E94DD0B80915302806808
:101B3000C7CF809153028C60C3CF809154028360E1
:101B4000CFCF809153028E7FBBCF80915402877F8D
:101B5000C7CF809153028D7FB3CF809153028B7F8B
:101B6000AFCF80915302877FABCF809154028E7F9D
:101B7000B7CF809154028D7FB3CF809153028F7E77
:101B80009FCF809153028F7D9BCF809153028F7B9B
:101B900097CF0E94DD0B809153028F7791CF809178
:101BA0005302837F8DCF809154028C7F99CF809197
:101BB000530282FB992790F921E0922790FB82F94A
:101BC00090FB83F97DCF80915402982F909591706E
:101BD0008E7F892B90FB81F983CF90915302892FBF
:101BE0008F7B96FF80646CCF0E94DD0B9091530237
:101BF000892F97FB87F9805863CF61E08EE090E0F2
:101C00000E948C1E5FCF60E0F9CF90915302892F24
:101C10008F7E94FF806154CF90915302892F8E7FE5
:101C200090FF81604DCF90915402892F877F93FF61
:101C3000886056CFC6312CE7D20791F49A7A81E0BA
:101C4000911101C080E080934A0285E3911101C0A7
:101C500089E20E944E060E94770A41CE89E210CFA7
:101C6000CA353CE7D307A1F1C8F4C1309CE7D907D6
:101C700069F1C330ECE7DE0719F1C115DC4709F063
:101C8000A6CE0E94DD0B8FEF94E3ECE081509040F4
:101C9000E040E1F700C000000E941608CB352CE7B9
:101CA000D207C1F0CC35DC4709F091CE80915402C7
:101CB00082FB882780F991E089270E94600A87CEFD
:101CC0006FEF7FEF80E090E00E94AA1E0E940E0C52
:101CD00081E0F3CF80E0F1CFC8010E944D02C82F10
:101CE00085CE1C2F1F70C03110F01295107FDD20A3
:101CF000B9F0112369F080E28D0F883010F0D11116
:101D000009C080914B02812B80934B020E94770A7D
:101D10008D2F40C080915502812B80935502F6CFC4
:101D20008D2F0E94380B1123E9F180E28D0F88304E
:101D300010F0D11104C0812F0E94C80206C0109576
:101D4000809155028123809355020E94770A2AC010
:101D50001C2F1F70C07FC03211F01295107FDD2341
:101D600049F0D13009F46BC0DD2009F477C0CC20F4
:101D7000C9F1CECF8091540282FD30C0DD2069F0E0
:101D8000112339F080914B02812B80934B020E94EA
:101D9000770A80E00E94C90A05C080E00E94380BE3
:101DA0001111C9CF0023A9F08091520280FD11C00A
:101DB000F70115828695869586950E94F501C701E3
:101DC0000E94240C809152028695869586950E94E9
:101DD000050260E0C7010E942E0591CDDD2099F03B
:101DE000C11004C0812F0E946B0BDCCFF1E0CF1239
:101DF000D9CF80914C02912F9823191799F2812BFA
:101E000080934C02CFCFC110CDCF812F0E94750B94
:101E100090914C02812F8923882329F0812F80956E
:101E2000892380934C0280914D02912F982399230E
:101E300009F4B8CF1095182310934D02B3CFDD20CD
:101E400029F025E02C1508F4ADCFCCCF34E03C15BB
:101E500008F4A8CF812F0E94750BA4CFCC20D1F31A
:101E6000D93349F48FEF97EEE3E081509040E040A2
:101E7000E1F700C000008D2F0E94380B93CF8C2F0C
:101E8000869586958370882369F0813009F08ACF22
:101E90008D2F9C2F9370D11002C080E090E00E94A3
:101EA000280680CF8D2F9C2F9370D11002C080E028
:101EB00090E00E94020676CF6D2D8D2F0E94E306E2
:101EC00071CF8C2F8370811142C0D1102FC04D2F44
:101ED000429546954770440F440F2D2F2F7030E0E8
:101EE000042E02C0220F331F0A94E2F780E090E034
:101EF000D4FF09C08FE090E002C0880F991F4A9577
:101F0000E2F780959095C695C695C370C230B1F042
:101F1000C33089F040914E0250914F02C13049F0D8
:101F2000822B932B842395230E94EB010E94F105C1
:101F300039CF242B352B822B932BF6CF822B932B4F
:101F400020914E0230914F0282279327EDCFDD2062
:101F500091F1C0FFEBCF4D2F429546954770440F4E
:101F6000440F2D2F2F7030E0042E02C0220F331F9C
:101F70000A94E2F780E090E0D4FF09C08FE090E09F
:101F800002C0880F991F4A95E2F780959095C695F3
:101F9000C695C370C230C1F0C33099F04091500271
:101FA00050915102C13059F0822B932B84239523F9
:101FB0000E94F001BBCF823008F4B8CFCCCF242BE5
:101FC000352B822B932BF4CF822B932B2091500215
:101FD0003091510282279327EBCFCF70DD2039F06B
:101FE0008C2F0E94F5018D2F0E946B0B9FCF8D2FA0
:101FF0000E94750B8C2F0E94050298CFD23FA1F151
:1020000078F4D03FC1F0D13F09F447C0DD2009F496
:102010006BC0CC2009F465C08D2F0E94C90A86CF01
:10202000D33F49F1D43FA9F1D110F3CFC1106AC019
:102030008C2F8F71E0CFDD20A1F0F4E0FC1508F4C7
:1020400075CFCF7181E090E09C0102C0220F331F59
:10205000CA95E2F78091500290915102822793270E
:10206000A7CF35E0C316EBCF8C2F8F71D110C3CF24
:102070000E94F5015BCF80E090E0DD2009F498CF6D
:10208000CF7181E090E002C0880F991FCA95E2F7F6
:102090008FCF8091540282FD06C08C2F8F71DD207E
:1020A00009F4A9CFE5CFDD2089F0CF718C2F0E94F4
:1020B000F5018091540282FF07C0E8E0CE9FC00185
:1020C00011248360809352028C2FD2CF81E00E9432
:1020D0008A02F1E0FC1508F029CF82E00E948A0212
:1020E00025CF8C2F8F71C4CFCC2009F4A1CFD93349
:1020F00049F42FEF37EE83E0215030408040E1F784
:1021000000C000008D2F0E94380B10CF80919602E6
:10211000803178F480919502882359F0E09157023C
:1021200020915602309191024091900257E02E1377
:1021300001C008956E2F70E05E9FF0011124DF0151
:10214000A85ABD4F14968C911497882361F111966B
:102150008C911197831327C08C91841324C01596FA
:102160008C91159781111FC012968D919C91A09111
:102170009202B09193028A1B9B0B883C910598F4C4
:10218000809196028F70806180939602E25AFD4F93
:1021900080818F708061808380E992E00E94240CAE
:1021A0000E9480020895FB013196E770C0CFADE038
:1021B000B0E0EDEDF0E10C940E1E8C0186E0F8012C
:1021C000DE01189601900D928A95E1F7F801E08002
:1021D000F580A280B380C48080E9882E82E0982EAA
:1021E00070909402711020C0CC20D9F0FF2009F427
:1021F00019C1C8010E945D05882309F413C187E055
:10220000F801D40101900D928A95E1F7F1E0CF1227
:1022100006C080919002909191020E944E050E940A
:102220008610FF24F39451C0D090950280919202C1
:10223000909193029501281B390BDD2009F4BAC057
:10224000283C310508F090C0CC2059F390919102C0
:10225000C18080919602803108F058C0C91214C024
:10226000909190029E1110C0F1104AC08F70806151
:102270008093960280E992E00E94240C809196025D
:10228000F8018683F12C21C0F1103AC040E06C2D9A
:102290008E2D0E949D0940E06C2D8E2D0E949D097F
:1022A000F82E8111EFCF888599850E944E05292F40
:1022B00022952F70903470F49F702230A0F09923F3
:1022C000B1F0F8019681903190F48F2D2D96EDE0CC
:1022D0000C942A1E2A5F2F70223068F0C8010E94D9
:1022E000240CFD2CF2CF992311F0882371F3805E2A
:1022F000883058F3F3CF803F40F3815F8230F9CFCD
:1023000080919602816080939602BCCFC91207C06B
:10231000909190029E1103C0FF2009F46CC0C80187
:102320000E945D05882309F47DC0FF2009F47AC06E
:1023300080919602803278F0209190023091910243
:102340003A832983BC82AB827D821E828F83CE0139
:1023500001960E94240C87E0F801A0E9B2E0019008
:102360000D928A95E1F75BCF80919602803150F40F
:1023700080E992E00E94240C87E0F40111928A9592
:10238000E9F780CFCC2009F44CCF209191029181C4
:102390002913C5CF909190029E11C1CFF110BFCFEC
:1023A0008683C8010E94240C87E0F40111928A956B
:1023B000E9F737CF283C3105F8F6CC2009F431CFC6
:1023C000FF2081F1909191028181981321C0809129
:1023D00090028E111DC08091960280FD10C0803148
:1023E00070F08683807F803F39F08681982F907FC0
:1023F000905F8F70892B8683C8010E94240C87E030
:10240000F801A0E9B2E001900D928A95E1F709CFB9
:10241000C8010E945D0581119ECF80919602816066
:1024200080939602C8010E94240CFBCEABE1B0E081
:10243000ECE1F2E10C94181E4E8B5F8B688F798F64
:102440008A8F9B8F9111109255021D8A86E0FE01A2
:102450007696DE011F9601900D928A95E1F78B89A1
:10246000882329F061E0CE010F960E942E0587E0B7
:10247000FE013F96DE01189601900D928A95E1F7D4
:10248000CE0108960E94D71081112BC087E0FE0173
:102490003896DE01119601900D928A95E1F7209110
:1024A0005602409157028C858823D9F030E0C9014B
:1024B00001968770992750E084179507E9F097E017
:1024C000929FD001939FB00D1124A85ABD4FFE01D9
:1024D000319601900D929A95E1F7809356020E94F1
:1024E000800217E08091570290915602891312C022
:1024F0006B96E3E00C94341E0E94DD0B10925602A2
:102500001092570287E0E0E9F2E0DF011D928A9520
:10251000E9F7E7CF189FC0011124885A9D4F0E9408
:10252000D710882329F38091570290E00196877095
:10253000992780935702D6CFA6E0B0E0E2EAF2E115
:102540000C94171E0E94AF068C018091F8019091A7
:10255000F9018017910779F019821A820E94AF065B
:10256000BC0149815A8180E090E00E9416121093CC
:10257000F9010093F8012696E4E00C94331EAAE2D8
:10258000B0E0E5ECF2E10C94181E81EA91E0FC0168
:1025900001962091F100208321E0893A9207B9F752
:1025A0008091A201893009F456C0C8F4823009F440
:1025B000B2C0833009F481C0813071F18091E800AC
:1025C00083FFE6C08091A1019091A2019A3008F0AA
:1025D000DFC0E92FF0E0E15EF04E0C94541E8A302B
:1025E00009F488C08B3051F78091A101813231F715
:1025F0008091A5019091A601892B01F78091E800B7
:10260000877F8093E8000E9483088091A3018093D4
:1026100023010E94DD0BD2CF8091A101813A71F696
:102620008091E800877F8093E8008091A5019091D8
:10263000A601892B61F060E080E090E070E00E94EC
:102640002A088091E8008B778093E800B7CF68E094
:1026500089EA91E0F3CF8091A101813209F0AECFF8
:102660008091A5019091A601029708F0A7CF8091D3
:10267000E800877F8093E8008091E80082FF18C01F
:102680009091F3008091F200029731F48091F10073
:10269000813011F0863021F48091F1008093B101F6
:1026A0008091E8008B778093E8000E94830886CFB2
:1026B0008091C2018111E0CF81CF8091A101813A47
:1026C00009F07CCF8091A5019091A601892B09F09A
:1026D00075CF8091E800877F8093E8008091E800C3
:1026E00080FFFCCF809123018093F1008091E8006E
:1026F0008E77D9CF8091A101813209F05FCF80918F
:10270000E800877F8093E8000E9483088091A401FD
:1027100080939D0153CF8091A101813A09F04ECF62
:102720008091E800877F8093E8008091E80080FF37
:10273000FCCF80919D01D8CF803889F0823841F557
:102740008091A5018F70873018F58093E900809102
:10275000EB0085FB882780F91092E90006C0809184
:102760009E019091C101911182609091E800977F44
:102770009093E8008093F1001092F1008091E800BE
:102780008E7723C0811116C08091A301813011F191
:102790008091E80083FF0AC08091E800877F8093E2
:1027A000E8008091EB0080628093EB00AA96E3E062
:1027B0000C94341E823061F78091A301882389F044
:1027C0001092E9008091E800877F8093E8000E94E2
:1027D0008308DECF81E0933009F080E08093C1016F
:1027E000EFCF8091A5018F702FEF280F263080F654
:1027F0008093E9002091EB0020FFE2CF933031F489
:102800008091EB0080628093EB00DACF9091EB0037
:1028100090619093EB0021E030E0A90102C0440FE9
:10282000551F8A95E2F74093EA001092EA008091E2
:10283000EB008860E8CF8111ABCF1091A3011F7727
:102840008091E3008078812B8093E3008091E80001
:10285000877F8093E8000E9483088091E80080FFD2
:10286000FCCF8091E30080688093E30083E0111146
:1028700001C082E08093C2018BCF8058823008F083
:1028800087CF4091A3015091A4014C3D83E05807AC
:1028900099F583E08A838AE289834FB7F894DE0151
:1028A000139620E03EE051E2E32FF0E05093570012
:1028B000849120FF03C082958F703F5F8F708A30B4
:1028C000C8F0895C90E08D939D932F5F243161F770
:1028D0004FBF8091E800877F8093E8006AE270E054
:1028E000CE0101960E942A088091E8008B778093A0
:1028F000E8004ECF805DE6CF2091A5013091A60182
:10290000852F99278330910509F160F48130910575
:1029100009F472C0029709F03BCF8BE390E0E6EA3E
:10292000F1E029C08132910509F45AC0829709F07B
:102930002FCF2115310509F469C02130310509F087
:1029400027CF86EB90E0ECEAF0E015C0CA019927AA
:102950004130B1F18230910509F43AC0892B09F078
:1029600017CFE3E1F2E0E4918E2F90E0E3E1F2E0B3
:10297000009709F40DCF2091E800277F2093E8000D
:102980002091A7013091A8018217930708F49C01B8
:1029900040E02115310509F03EC041113CC0809155
:1029A000E80082FDA1CF8091C201882309F49CCF69
:1029B000853009F499CF8091E80083FFF0CF94CF60
:1029C000E1E0F2E0E4918E2F90E0E1E0F2E0D0CFA0
:1029D000E3EFF1E0E4918E2F90E0E3EFF1E0C8CF78
:1029E0002115310571F02130310509F0D1CE89E092
:1029F00090E0E1EDF1E0BFCF82E190E0E1EEF1E0C7
:102A0000BACF89E090E0E8EBF1E0B5CF84E490E064
:102A1000E2E6F1E0B0CF8091C201882309F464CFEF
:102A2000853009F461CF8091E80083FD5DCF80910E
:102A3000E80082FDB4CF8091E80080FFAACF90919A
:102A4000F3008091F2002115310519F088309105CD
:102A500050F041E0089709F040E08091E8008E775F
:102A60008093E80096CF44914093F1003196215035
:102A700031090196E8CF803809F08ACE8091E800CC
:102A8000877F8093E80080919F018093F10076CE4C
:102A900081117ECE1091A301123008F079CE809181
:102AA000E800877F8093E80010939F010E948308CD
:102AB000112381F084E08093C20142E061EC81E067
:102AC0000E940B0942E261EC82E00E940B098091B6
:102AD000C2015ECE8091E30087FDECCF81E0EBCFB9
:102AE000A0E1B0E0E6E7F5E10C940E1E1A8219822F
:102AF000FE01339686E0DF011D928A95E9F784E2B4
:102B0000A82E81E0B82E8E010F5F1F4F4801EE24E2
:102B1000E394F12C2EE2C22E21E0D22EF501819118
:102B20005F018F3F09F441C0F894E82FE295EF7000
:102B3000F0E021A18F70A70102C0440F551F8A95B4
:102B4000E2F7CA01922F982B91A392A18095892335
:102B500082A3789400C0E8E2F1E031E0712C219189
:102B60002F3F09F485C0A22FA295AF70A05EB0E000
:102B70008C9190E02F7002C0959587952A95E2F789
:102B80008170811175C0832F782A330FCE16DF062E
:102B900031F7F501319780818F3F11F00E94850553
:102BA00050EA5A95F1F7D8017C920F5F1F4FB8E2B7
:102BB000AB16B1E0BB0609F0B1CF48E050E0B4017C
:102BC00086EB91E00E94C01E0091BF0110E00D5302
:102BD0001E4F892B09F44EC088E0F401A6EBB1E04A
:102BE00001900D928A95E1F781E0809399010E940E
:102BF000AF0690939801809397018091F20188230A
:102C000009F491C01A8619861C861B8680919C0146
:102C10008A3008F051C07E01E9E0EE0EF11C4AE274
:102C200057E1B701C8010E94260A6701882309F409
:102C300068C043ED56E1B701C8010E94260A882307
:102C400009F45FC010929C018091BE0190E044E0C5
:102C500050E0B6018D539E4F0E94C01E21E020938C
:102C60009601892B09F03FC06096EDE00C942A1E76
:102C700080E08ACF80919901882309F4BECF8091AA
:102C80009701909198010E940708059708F4B5CF25
:102C900044E050E066EB71E0C8010E94C01E892B41
:102CA00041F084E0E6EBF1E0D80101900D928A95C5
:102CB000E1F710929901A1CF809194019091950133
:102CC0000E940708843F914008F0A5CF80919601AB
:102CD000882351F2FE01399684E0DF011D928A9526
:102CE000E9F710929601E091BE01F0E0ED53FE4F3E
:102CF00089859A85AB85BC8580839183A283B383C4
:102D0000B3CF80919C018F3F39F40E94AF0690931E
:102D1000950180939401DACF8F5F80939C018A3074
:102D200008F492CFF2CFF80180819181A281B38122
:102D30008093E2019093E301A093E401B093E50155
:102D400082EE91E00E94F2088093E101C090E601DA
:102D5000D090E701E090E801F090E90180919001C6
:102D600090919101A0919201B0919301C816D9065A
:102D7000EA06FB0609F478CFC0929001D092910147
:102D8000E0929201F09293010E94B707C61AD70A07
:102D9000E80AF90AC092F401D092F501E092F60136
:102DA000F092F70161CFA8E0B0E0E9EDF6E10C9414
:102DB000181E4091D9015091DA016091DB017091A8
:102DC000DC012FB7F8948091DD019091DE01A09194
:102DD000DF01B091E0012FBF841B950BA60BB70B51
:102DE00011E084369105A105B10578F10E94D40760
:102DF000DC01CB010296A11DB11D89839A83AB83AF
:102E0000BC8380911C0190911D018F519E4F209198
:102E10001B01422F50E0253010F044E050E0BE018D
:102E20006F5F7F4F0E94CD1E82E090E00E94941D54
:102E3000182F882351F00E94B7076093D90170932F
:102E4000DA018093DB019093DC01812F2896E3E087
:102E50000C94341EEF92FF921F93CF93DF9300D018
:102E600000D00F92CDB7DEB77B0180E090E00E94EA
:102E7000941D182F81111AC010E08091EA019091E1
:102E8000EB01A091EC01B091ED01F70180839183FA
:102E9000A283B383812F0F900F900F900F900F900C
:102EA000DF91CF911F91FF90EF90089580910E01D7
:102EB000482F50E0882311F041E050E060910F016D
:102EC000709110016F517E4FCE0105960E94CD1E6C
:102ED0004091EE015091EF016091F0017091F1018C
:102EE0002FB7F8948091DD019091DE01A091DF0170
:102EF000B091E0012FBF841B950BA60BB70B843656
:102F00009105A105B10538F482EE91E00E94F20826
:102F10009D818917B9F181E090E00E94941D88237A
:102F200009F4AACF80911601482F50E0853010F0A7
:102F300044E050E060911701709118016F517E4F8D
:102F4000CE0101960E94CD1E82EE91E00E94F20811
:102F50009D81891391CF0E94B7076093EE01709312
:102F6000EF018093F0019093F10189819A81AB8107
:102F7000BC818093EA019093EB01A093EC01B093A4
:102F8000ED017BCF8091E2019091E301A091E401FA
:102F9000B091E50189839A83AB83BC83E6CFCDB73B
:102FA000DEB729970FB6F894DEBF0FBECDBF85B749
:102FB000806885BF85B7806885BF84B7877F84BFF9
:102FC0000FB6F894A89580916000886180936000A6
:102FD000109260000FBE80E890E00FB6F8948093E6
:102FE0006100909361000FBE83E895E090936701C4
:102FF000809366010E94D3080E9442098091E200FA
:1030000084608093E20078948091C201882399F0D3
:103010008091E9001091EC001795112717958F709A
:10302000182B1092E9008091E80083FD0E94BF12E6
:103030001F701093E90082E084BD93E095BD9AEF84
:1030400097BD80936E001092F4011092F5011092DA
:10305000F6011092F7018091D80080618093D8002A
:103060002AE12A95F1F700C08091D90080FFDEC0E7
:1030700081E08093F2018093F301809300010E942C
:10308000A61C809100018091000191E08927880FA2
:10309000880F8093BF0194E0981B9093BE0184E950
:1030A0000E94850586E60E94850587E90E948505C0
:1030B00086EC0E94850508E211E04EE2E42E41E034
:1030C000F42ED8018D918D018F3F11F00E9485055E
:1030D000E016F106B1F788E0E3ECF1E0DF01282F1C
:1030E0001D922A95E9F7E6EBF1E0DF011D928A9542
:1030F000E9F780E090E00E94761E863E9E4F09F43C
:1031000066C066EE7EEF80E090E00E94AA1E60E05E
:1031100082E090E00E948C1E81E090E090934F024C
:1031200080934E0261E083E090E00E948C1E60E09C
:1031300074E184E090E00E94AA1E60E086E090E0E6
:103140000E948C1E6FEF87E090E00E948C1E40E092
:1031500050E0BA0188E090E00E949E1E60E084E2A8
:1031600090E00E948C1E60E087E190E00E948C1E3F
:1031700060E08CE090E00E948C1E60E08DE090E0CA
:103180000E948C1E19821A821B821C821D821E8242
:103190001F82188648E050E068E170E0CE01019699
:1031A0000E947C1E40E050E0BA0180E290E00E9464
:1031B0009E1E40E050E0BA018FE090E00E949E1E0B
:1031C00040E050E0BA0183E190E00E949E1E82E060
:1031D00090E00E946E1E8093CB0184E090E00E94FC
:1031E000761E90935402809353020E947015EFEF65
:1031F000F6E721E0E150F0402040E1F700C0000098
:103200000E947015E091F30181E0E827EE0FEE0FC8
:10321000F0E0ED53FE4F808181FF13C06FEF7FEF31
:1032200080E090E00E94AA1E0E9416080E94D30827
:103230001092C2011092F2011092F301109200015B
:1032400020CF83E090E00E946E1E90E00E94EB0190
:103250008091F201811102C00E94A91C81E091E0DD
:1032600090931B0280931A0266246394CE01019608
:1032700028E1822E912C30E4432E33243394898725
:10328000592E8091C201853049F48091C201853068
:1032900009F451C00E94DD0B0E94F1050E947015D7
:1032A0008CECC82E81E0D82E93ECA92E91E0B92E9B
:1032B000D501F60191918D9121E0E43DF20709F4E9
:1032C00089C09817B9F32090F20110E0D5010D9153
:1032D0005D01F60171906F01701639F17026F12CC5
:1032E000EE24E3948E2D87218823B9F02220A9F0C3
:1032F000F9821A830E94AF069C838B833D8291E002
:103300008E2D8023811101C090E09E8349815A81D6
:103310006B817C818D810E941612F394EE0CF6E095
:10332000FF12E0CFF601319700831F5F183071F66E
:103330000E94D40753C08091C201843009F11092D9
:10334000C0010FB6F894A895809260000FBE40921D
:10335000600083B7817F846083BF83B7816083BF50
:103360007894889583B78E7F83BF0FB6F894A8951D
:1033700080916000886180936000109260000FBEB1
:103380008091C101882309F480CF0E947015E3EC7D
:10339000F1E08BEC91E02191211104C08E179F0781
:1033A000D1F773CF80E189BD82E189BD09B400FE08
:1033B000FDCF8091D8008F7D8093D8008091E00070
:1033C00082608093E0008091E00081FDFCCF0E944C
:1033D000DD0B5BCF981377CF0E949C1286E0EFE362
:1033E000F2E0A985B52D01900D928A95E1F7F09054
:1033F00040020091410210914202D0904302E090BD
:103400004402109241021092420210924302109222
:103410004402812F802B882379F08091D6019091EE
:10342000D7010E9407089C0180913D02811148C08C
:103430002B30310508F04AC08E2D8D29882379F074
:103440008091D4019091D5010E9407089C01809140
:103450003C02811174C02B30310508F076C0809198
:103460004002F81216C080914102882311F08013A7
:1034700010C090914202992311F019130AC02091B3
:103480004402211106C020914302211102C0892B60
:1034900081110E94BB0686E0E985F52DAFE3B2E01D
:1034A00001900D928A95E1F70E94F1059091D80163
:1034B000891709F4E6CE8093D8010E94B707E1CEC0
:1034C0002531310508F4B8CF8F3F19F08F5F809315
:1034D0003D02002359F00E94AC059FEF10160CF43A
:1034E00091E0899F802D112480934102112359F08E
:1034F0000E94AC0591E011160CF09FEF899F802D82
:1035000011248093420280914102882309F494CFD0
:10351000C0904202CC2009F48FCF0E949E058111F9
:1035200001C081E0809341028C2D0E949E0588237A
:1035300019F08093420280CF609242027DCF213504
:10354000310508F48CCF8F3F19F08F5F80933C02D8
:10355000DD2059F00E94CC059FEF1D140CF491E082
:10356000899F802D112480934302EE2059F00E9400
:10357000CC0591E01E140CF09FEF899F802D112443
:103580008093440280914302882309F468CFE0903D
:103590004402EE2009F463CF0E949E05811101C010
:1035A00081E0809343028E2D0E949E05882319F0AE
:1035B0008093440254CF6092440251CF1F921FB6B1
:1035C0001F9211248F939F93AF93BF938091C0015B
:1035D000811113C08091DD019091DE01A091DF0186
:1035E000B091E0014196A11DB11D8093DD01909342
:1035F000DE01A093DF01B093E001BF91AF919F91F5
:103600008F911F901FBE1F90189578941F921FB620
:103610001F9211248F939F93AF93BF938091DD01ED
:103620009091DE01A091DF01B091E0010196A11D12
:10363000B11D8093DD019093DE01A093DF01B09373
:10364000E001BF91AF919F918F911F901FBE1F907E
:1036500018951F920F920FB60F9211242F933F933C
:103660004F935F936F937F938F939F93AF93BF938A
:10367000EF93FF938091E10082FF09C08091E20007
:1036800082FF05C08091E1008B7F8093E1008091F3
:10369000DA0080FF24C08091D80080FF20C0809194
:1036A000DA008E7F8093DA008091D90080FF9BC082
:1036B00080E189BD82E189BD09B400FEFDCF81E0D2
:1036C0008093C2018091A001811109C00E94D3089A
:1036D0000E9442098091E20084608093E200809120
:1036E000E10080FF17C08091E20080FF13C080914D
:1036F000E2008E7F8093E2008091E20080618093FF
:10370000E2008091D80080628093D80019BC85E0E7
:103710008093C2018091E10084FF29C08091E20082
:1037200084FF25C080E189BD82E189BD09B400FE26
:10373000FDCF8091D8008F7D8093D8008091E100EB
:103740008F7E8093E1008091E2008F7E8093E20083
:103750008091E20081608093E20080919F01882344
:1037600009F447C084E08093C2018091C201809136
:10377000E10083FF27C08091E20083FF23C0809196
:10378000E100877F8093E10082E08093C201109284
:103790009F018091E1008E7F8093E1008091E200A3
:1037A0008E7F8093E2008091E20080618093E2004E
:1037B00042E060E080E00E940B098091F0008860A8
:1037C0008093F000FF91EF91BF91AF919F918F9106
:1037D0007F916F915F914F913F912F910F900FBE0D
:1037E0000F901F90189519BC1092C2011092A00161
:1037F00076CF8091E30087FF02C083E0B4CF81E001
:10380000B2CF1F920F920FB60F921124FF920F9317
:103810001F932F933F934F935F936F937F938F9358
:103820009F93AF93BF93CF93DF93EF93FF9309EEF3
:1038300010E0F8018081C091EC00C795CC27C795B6
:103840008F70FC2EF82A1082C0EFD0E08881877F2D
:10385000888378940E94BF12F80110828881886062
:103860008883CF2DCF70C083FF91EF91DF91CF91EF
:10387000BF91AF919F918F917F916F915F914F9188
:103880003F912F911F910F91FF900F900FBE0F90BE
:103890001F9018958EE14A9B03C081508111FBCF88
:1038A0004A9BFECF08955A9880E28A95F1F75A9A7A
:1038B0000895FC013BE03A95F1F798E020E080E0C4
:1038C00031E040E14A95F1F7880F4A9B02C08160E0
:1038D000232742E04A95F1F7000040E14A95F1F7CD
:1038E00091509111EECF90E19A95F1F799B132E0B4
:1038F0003A95F1F7000040E14A95F1F792FB9927DC
:1039000090F992272081920F90830895A1E0B0E072
:10391000ECE8FCE10C94151E19828C017C01E60E8A
:10392000F11C0E151F0541F481E09981911180E091
:103930002196E6E00C94311E0E944A1CCE010196AD
:103940000E94591CF80181938F01EBCF529A5A9A29
:10395000089552985A9AEA9AE9E6F0E080818F7CBD
:10396000808308956150770B91E001C0990F6A95AB
:10397000EAF7692F90E021E0611108C0992399F0DE
:103980005A9A80E28A95F1F75A980895362F38238B
:10399000332339F05A9A922730E23A95F1F7669537
:1039A000EBCF5A98F9CF5A98ECCFFF920F931F9311
:1039B000CF93DF93EC018C01060F111DC017D107C7
:1039C00029F4CDB7DEB7E5E00C94321EF9900E94E1
:1039D000531C68E08F2D0E94B21CF0CF1F920F92F3
:1039E0000FB60F9211240F931F932F933F934F9372
:1039F0005F936F937F938F939F93AF93BF93EF9357
:103A0000FF93CF93DF930F92CDB7DEB719820E9459
:103A10004A1CCE0101960E94591C082F0695069556
:103A20000695982F92959570202F2570920F292F2B
:103A3000237096959695920F982797708981892B78
:103A400081115CC0043008F059C080E18A95F1F71B
:103A50005A9A529A82E08A95F1F700C05A9888E003
:103A6000089F80011124D801A55FBE4F1696ED91E5
:103A7000FC9117973097A9F060912E0170912F015A
:103A800014962D913C911597260F371F11968D9105
:103A90009C911297680F791F13964C9113978C91F4
:103AA0000995F801E55FFE4F6381662351F020918F
:103AB0002E0130912F0184819581820F931F0E94E6
:103AC000D51C0E94531C80E18A95F1F75A985298B0
:103AD0005A9A80E18A95F1F7F801E55FFE4F60811F
:103AE000662351F020912E0130912F018181928126
:103AF000820F931F0E94861C0E944A1C0F90DF9128
:103B0000CF91FF91EF91BF91AF919F918F917F9155
:103B10006F915F914F913F912F911F910F910F9056
:103B20000FBE0F901F9018950F931F93CF93DF93A5
:103B30008C0104970CF065C0F894529A5A9885E06D
:103B40008A95F1F70000C02FC695C570802F85704B
:103B5000C80F8C2F8370C695C69593E0000F111F78
:103B60009A95E1F7C80FC8018C2BEC010E94531CF9
:103B700000C068E08C2F0E94B21C90E19A95F1F78A
:103B800052985A9A4A9B35C087E090E04A9933C0D0
:103B9000F801E55FFE4F6381662361F020912E01FD
:103BA00030912F0184819581820F931F0E94861C82
:103BB000882321F10E944A1C80E28A95F1F75A98E5
:103BC000529A90E19A95F1F7F801E55FFE4F608116
:103BD000662351F020912E0130912F018181928135
:103BE000820F931F0E94D51C0E94531C789481E081
:103BF00009C000C0C7CF0197009749F4529A5A9A5A
:103C0000789480E0DF91CF911F910F91089500C0CB
:103C1000BDCF2F923F924F925F926F927F928F9281
:103C20009F92AF92BF92CF92DF92EF92FF920F934B
:103C30001F93CF93DF93CDB7DEB7CA1BDB0B0FB655
:103C4000F894DEBF0FBECDBF09942A883988488812
:103C50005F846E847D848C849B84AA84B984C884A8
:103C6000DF80EE80FD800C811B81AA81B981CE0F9F
:103C7000D11D0FB6F894DEBF0FBECDBFED01089584
:103C800097FB072E16F4009407D077FD09D00E9409
:103C90005A1E07FC05D03EF4909581959F4F0895DC
:103CA000709561957F4F0895EE0FFF1F0590F49179
:103CB000E02D0994AA1BBB1B51E107C0AA1FBB1F23
:103CC000A617B70710F0A61BB70B881F991F5A95A8
:103CD000A9F780959095BC01CD010895F999FECF83
:103CE00092BD81BDF89A992780B50895A8E1B0E00A
:103CF00042E050E00C94B21EDC01A40FB51F41500D
:103D0000504048F0CB01840F951F2E910E948D1ECC
:103D100041505040D0F70895262FF999FECF92BD1B
:103D200081BDF89A019700B4021639F01FBA20BD80
:103D30000FB6F894FA9AF99A0FBE08950396272FB2
:103D40000E948D1E0E948C1E252F0E948D1E242FE6
:103D50000C948D1E0196272F0E948D1E0C948C1E94
:103D6000DC01CB01FC01F999FECF06C0F2BDE1BD3B
:103D7000F89A319600B40D9241505040B8F708952A
:103D8000FB01DC0104C08D910190801921F44150A8
:103D90005040C8F7881B990B0895FB01DC0102C055
:103DA00001900D9241505040D8F70895F894FFCFFC
:103DB0000C070F0715072A072A072A072A072A07C9
:103DC0002A072A072A0718071D0721072707380788
:103DD0003E074207D20CD60CC80CCE0CDA0CDE0C17
:103DE000E20C710E710EA80EA80E3F0F5C0FD20EE2
:103DF000D20E610FED0FFE0FFE0FA10D0C0EA90DDF
:103E0000730D770DAD0D7B0DB10DBD0D870D050E3D
:103E10008B0DC10D8F0DC50DED0D930DC90DF40D5D
:103E2000990DCF0DD70D7F0DB50D830DB90D9D0DDE
:103E3000D30DE30DFD0D030E6D0DA50D130E9C139B
:103E4000C213C813C213C8131B143D14C8133B1567
:023E5000481513
:103E5200012708FA09110A180A1F0A0000000100C6
:103E62000000000000000401000000040500000042
:103E720000000001946697C6F4F5F6F73133E101CC
:103E8200E200E900EA00B500B600B700CD00830108
:103E9200CC008A019201940121022302240225020C
:103EA200260227022A02B300B4006F0070009F01AD
:063EB200CB019F02A002FB
:00000001FF
